{
	"ballotV3.sol": {
		"Ballot": {
			"abi": [
				{
					"constant": false,
					"inputs": [
						{
							"name": "toVoter",
							"type": "address"
						}
					],
					"name": "register",
					"outputs": [],
					"payable": false,
					"stateMutability": "nonpayable",
					"type": "function"
				},
				{
					"constant": true,
					"inputs": [],
					"name": "winningProposal",
					"outputs": [
						{
							"name": "_winningProposal",
							"type": "uint8"
						}
					],
					"payable": false,
					"stateMutability": "view",
					"type": "function"
				},
				{
					"constant": false,
					"inputs": [
						{
							"name": "toProposal",
							"type": "uint8"
						}
					],
					"name": "vote",
					"outputs": [],
					"payable": false,
					"stateMutability": "nonpayable",
					"type": "function"
				},
				{
					"constant": true,
					"inputs": [],
					"name": "stage",
					"outputs": [
						{
							"name": "",
							"type": "uint8"
						}
					],
					"payable": false,
					"stateMutability": "view",
					"type": "function"
				},
				{
					"inputs": [
						{
							"name": "_numProposals",
							"type": "uint8"
						}
					],
					"payable": false,
					"stateMutability": "nonpayable",
					"type": "constructor"
				}
			],
			"devdoc": {
				"methods": {}
			},
			"evm": {
				"assembly": "    /* \"ballotV3.sol\":58:2042  contract Ballot {... */\n  mstore(0x40, 0x80)\n    /* \"ballotV3.sol\":320:330  Stage.Init */\n  0x0\n    /* \"ballotV3.sol\":299:330  Stage public stage = Stage.Init */\n  dup1\n  exp(0x100, 0x0)\n  dup2\n  sload\n  dup2\n  0xff\n  mul\n  not\n  and\n  swap1\n  dup4\n  0x3\n  dup2\n  gt\n  iszero\n  tag_1\n  jumpi\n  invalid\ntag_1:\n  mul\n  or\n  swap1\n  sstore\n  pop\n    /* \"ballotV3.sol\":565:798  constructor(uint8 _numProposals) public {... */\n  callvalue\n    /* \"--CODEGEN--\":8:17   */\n  dup1\n    /* \"--CODEGEN--\":5:7   */\n  iszero\n  tag_2\n  jumpi\n    /* \"--CODEGEN--\":30:31   */\n  0x0\n    /* \"--CODEGEN--\":27:28   */\n  dup1\n    /* \"--CODEGEN--\":20:32   */\n  revert\n    /* \"--CODEGEN--\":5:7   */\ntag_2:\n    /* \"ballotV3.sol\":565:798  constructor(uint8 _numProposals) public {... */\n  pop\n  mload(0x40)\n  0x20\n  dup1\n  bytecodeSize\n  dup4\n  codecopy\n  dup2\n  add\n  dup1\n  0x40\n  mstore\n  dup2\n  add\n  swap1\n  dup1\n  dup1\n  mload\n  swap1\n  0x20\n  add\n  swap1\n  swap3\n  swap2\n  swap1\n  pop\n  pop\n  pop\n    /* \"ballotV3.sol\":629:639  msg.sender */\n  caller\n    /* \"ballotV3.sol\":615:626  chairperson */\n  0x0\n  0x1\n    /* \"ballotV3.sol\":615:639  chairperson = msg.sender */\n  0x100\n  exp\n  dup2\n  sload\n  dup2\n  0xffffffffffffffffffffffffffffffffffffffff\n  mul\n  not\n  and\n  swap1\n  dup4\n  0xffffffffffffffffffffffffffffffffffffffff\n  and\n  mul\n  or\n  swap1\n  sstore\n  pop\n    /* \"ballotV3.sol\":678:679  2 */\n  0x2\n    /* \"ballotV3.sol\":649:655  voters */\n  0x1\n    /* \"ballotV3.sol\":649:668  voters[chairperson] */\n  0x0\n    /* \"ballotV3.sol\":656:667  chairperson */\n  dup1\n  0x1\n  swap1\n  sload\n  swap1\n  0x100\n  exp\n  swap1\n  div\n  0xffffffffffffffffffffffffffffffffffffffff\n  and\n    /* \"ballotV3.sol\":649:668  voters[chairperson] */\n  0xffffffffffffffffffffffffffffffffffffffff\n  and\n  0xffffffffffffffffffffffffffffffffffffffff\n  and\n  dup2\n  mstore\n  0x20\n  add\n  swap1\n  dup2\n  mstore\n  0x20\n  add\n  0x0\n  keccak256\n    /* \"ballotV3.sol\":649:675  voters[chairperson].weight */\n  0x0\n  add\n    /* \"ballotV3.sol\":649:679  voters[chairperson].weight = 2 */\n  dup2\n  swap1\n  sstore\n  pop\n    /* \"ballotV3.sol\":709:722  _numProposals */\n  dup1\n    /* \"ballotV3.sol\":690:722  proposals.length = _numProposals */\n  0xff\n  and\n    /* \"ballotV3.sol\":690:699  proposals */\n  0x2\n    /* \"ballotV3.sol\":690:722  proposals.length = _numProposals */\n  dup2\n  tag_5\n  swap2\n  swap1\n  jump\t// in(tag_6)\ntag_5:\n  pop\n    /* \"ballotV3.sol\":740:749  Stage.Reg */\n  0x1\n    /* \"ballotV3.sol\":732:737  stage */\n  0x0\n  dup1\n    /* \"ballotV3.sol\":732:749  stage = Stage.Reg */\n  0x100\n  exp\n  dup2\n  sload\n  dup2\n  0xff\n  mul\n  not\n  and\n  swap1\n  dup4\n  0x3\n  dup2\n  gt\n  iszero\n  tag_7\n  jumpi\n  invalid\ntag_7:\n  mul\n  or\n  swap1\n  sstore\n  pop\n    /* \"ballotV3.sol\":771:774  now */\n  timestamp\n    /* \"ballotV3.sol\":759:768  startTime */\n  0x3\n    /* \"ballotV3.sol\":759:774  startTime = now */\n  dup2\n  swap1\n  sstore\n  pop\n    /* \"ballotV3.sol\":565:798  constructor(uint8 _numProposals) public {... */\n  pop\n    /* \"ballotV3.sol\":58:2042  contract Ballot {... */\n  jump(tag_8)\ntag_6:\n  dup2\n  sload\n  dup2\n  dup4\n  sstore\n  dup2\n  dup2\n  gt\n  iszero\n  tag_9\n  jumpi\n  dup2\n  dup4\n  0x0\n  mstore\n  keccak256(0x0, 0x20)\n  swap2\n  dup3\n  add\n  swap2\n  add\n  tag_10\n  swap2\n  swap1\n  jump\t// in(tag_11)\ntag_10:\ntag_9:\n  pop\n  pop\n  pop\n  jump\t// out\ntag_11:\n  tag_12\n  swap2\n  swap1\ntag_13:\n  dup1\n  dup3\n  gt\n  iszero\n  tag_14\n  jumpi\n  0x0\n  dup1\n  dup3\n  add\n  0x0\n  swap1\n  sstore\n  pop\n  0x1\n  add\n  jump(tag_13)\ntag_14:\n  pop\n  swap1\n  jump\ntag_12:\n  swap1\n  jump\t// out\ntag_8:\n  dataSize(sub_0)\n  dup1\n  dataOffset(sub_0)\n  0x0\n  codecopy\n  0x0\n  return\nstop\n\nsub_0: assembly {\n        /* \"ballotV3.sol\":58:2042  contract Ballot {... */\n      mstore(0x40, 0x80)\n      jumpi(tag_1, lt(calldatasize, 0x4))\n      calldataload(0x0)\n      0x100000000000000000000000000000000000000000000000000000000\n      swap1\n      div\n      0xffffffff\n      and\n      dup1\n      0x4420e486\n      eq\n      tag_2\n      jumpi\n      dup1\n      0x609ff1bd\n      eq\n      tag_3\n      jumpi\n      dup1\n      0xb3f98adc\n      eq\n      tag_4\n      jumpi\n      dup1\n      0xc040e6b8\n      eq\n      tag_5\n      jumpi\n    tag_1:\n      0x0\n      dup1\n      revert\n        /* \"ballotV3.sol\":814:1184  function register(address toVoter) public validStage(Stage.Reg) {... */\n    tag_2:\n      callvalue\n        /* \"--CODEGEN--\":8:17   */\n      dup1\n        /* \"--CODEGEN--\":5:7   */\n      iszero\n      tag_6\n      jumpi\n        /* \"--CODEGEN--\":30:31   */\n      0x0\n        /* \"--CODEGEN--\":27:28   */\n      dup1\n        /* \"--CODEGEN--\":20:32   */\n      revert\n        /* \"--CODEGEN--\":5:7   */\n    tag_6:\n        /* \"ballotV3.sol\":814:1184  function register(address toVoter) public validStage(Stage.Reg) {... */\n      pop\n      tag_7\n      0x4\n      dup1\n      calldatasize\n      sub\n      dup2\n      add\n      swap1\n      dup1\n      dup1\n      calldataload\n      0xffffffffffffffffffffffffffffffffffffffff\n      and\n      swap1\n      0x20\n      add\n      swap1\n      swap3\n      swap2\n      swap1\n      pop\n      pop\n      pop\n      jump(tag_8)\n    tag_7:\n      stop\n        /* \"ballotV3.sol\":1630:2040  function winningProposal() public validStage(Stage.Done) view returns (uint8 _winningProposal)  {... */\n    tag_3:\n      callvalue\n        /* \"--CODEGEN--\":8:17   */\n      dup1\n        /* \"--CODEGEN--\":5:7   */\n      iszero\n      tag_9\n      jumpi\n        /* \"--CODEGEN--\":30:31   */\n      0x0\n        /* \"--CODEGEN--\":27:28   */\n      dup1\n        /* \"--CODEGEN--\":20:32   */\n      revert\n        /* \"--CODEGEN--\":5:7   */\n    tag_9:\n        /* \"ballotV3.sol\":1630:2040  function winningProposal() public validStage(Stage.Done) view returns (uint8 _winningProposal)  {... */\n      pop\n      tag_10\n      jump(tag_11)\n    tag_10:\n      mload(0x40)\n      dup1\n      dup3\n      0xff\n      and\n      0xff\n      and\n      dup2\n      mstore\n      0x20\n      add\n      swap2\n      pop\n      pop\n      mload(0x40)\n      dup1\n      swap2\n      sub\n      swap1\n      return\n        /* \"ballotV3.sol\":1191:1623  function vote(uint8 toProposal) public validStage(Stage.Vote){... */\n    tag_4:\n      callvalue\n        /* \"--CODEGEN--\":8:17   */\n      dup1\n        /* \"--CODEGEN--\":5:7   */\n      iszero\n      tag_12\n      jumpi\n        /* \"--CODEGEN--\":30:31   */\n      0x0\n        /* \"--CODEGEN--\":27:28   */\n      dup1\n        /* \"--CODEGEN--\":20:32   */\n      revert\n        /* \"--CODEGEN--\":5:7   */\n    tag_12:\n        /* \"ballotV3.sol\":1191:1623  function vote(uint8 toProposal) public validStage(Stage.Vote){... */\n      pop\n      tag_13\n      0x4\n      dup1\n      calldatasize\n      sub\n      dup2\n      add\n      swap1\n      dup1\n      dup1\n      calldataload\n      0xff\n      and\n      swap1\n      0x20\n      add\n      swap1\n      swap3\n      swap2\n      swap1\n      pop\n      pop\n      pop\n      jump(tag_14)\n    tag_13:\n      stop\n        /* \"ballotV3.sol\":299:330  Stage public stage = Stage.Init */\n    tag_5:\n      callvalue\n        /* \"--CODEGEN--\":8:17   */\n      dup1\n        /* \"--CODEGEN--\":5:7   */\n      iszero\n      tag_15\n      jumpi\n        /* \"--CODEGEN--\":30:31   */\n      0x0\n        /* \"--CODEGEN--\":27:28   */\n      dup1\n        /* \"--CODEGEN--\":20:32   */\n      revert\n        /* \"--CODEGEN--\":5:7   */\n    tag_15:\n        /* \"ballotV3.sol\":299:330  Stage public stage = Stage.Init */\n      pop\n      tag_16\n      jump(tag_17)\n    tag_16:\n      mload(0x40)\n      dup1\n      dup3\n      0x3\n      dup2\n      gt\n      iszero\n      tag_18\n      jumpi\n      invalid\n    tag_18:\n      0xff\n      and\n      dup2\n      mstore\n      0x20\n      add\n      swap2\n      pop\n      pop\n      mload(0x40)\n      dup1\n      swap2\n      sub\n      swap1\n      return\n        /* \"ballotV3.sol\":814:1184  function register(address toVoter) public validStage(Stage.Reg) {... */\n    tag_8:\n        /* \"ballotV3.sol\":867:876  Stage.Reg */\n      0x1\n        /* \"ballotV3.sol\":526:534  reqStage */\n      dup1\n        /* \"ballotV3.sol\":517:534  stage == reqStage */\n      0x3\n      dup2\n      gt\n      iszero\n      tag_20\n      jumpi\n      invalid\n    tag_20:\n        /* \"ballotV3.sol\":517:522  stage */\n      0x0\n      dup1\n      swap1\n      sload\n      swap1\n      0x100\n      exp\n      swap1\n      div\n      0xff\n      and\n        /* \"ballotV3.sol\":517:534  stage == reqStage */\n      0x3\n      dup2\n      gt\n      iszero\n      tag_21\n      jumpi\n      invalid\n    tag_21:\n      eq\n        /* \"ballotV3.sol\":509:535  require(stage == reqStage) */\n      iszero\n      iszero\n      tag_22\n      jumpi\n      0x0\n      dup1\n      revert\n    tag_22:\n        /* \"ballotV3.sol\":907:918  chairperson */\n      0x0\n      0x1\n      swap1\n      sload\n      swap1\n      0x100\n      exp\n      swap1\n      div\n      0xffffffffffffffffffffffffffffffffffffffff\n      and\n        /* \"ballotV3.sol\":893:918  msg.sender != chairperson */\n      0xffffffffffffffffffffffffffffffffffffffff\n      and\n        /* \"ballotV3.sol\":893:903  msg.sender */\n      caller\n        /* \"ballotV3.sol\":893:918  msg.sender != chairperson */\n      0xffffffffffffffffffffffffffffffffffffffff\n      and\n      eq\n      iszero\n        /* \"ballotV3.sol\":893:943  msg.sender != chairperson || voters[toVoter].voted */\n      dup1\n      tag_24\n      jumpi\n      pop\n        /* \"ballotV3.sol\":922:928  voters */\n      0x1\n        /* \"ballotV3.sol\":922:937  voters[toVoter] */\n      0x0\n        /* \"ballotV3.sol\":929:936  toVoter */\n      dup4\n        /* \"ballotV3.sol\":922:937  voters[toVoter] */\n      0xffffffffffffffffffffffffffffffffffffffff\n      and\n      0xffffffffffffffffffffffffffffffffffffffff\n      and\n      dup2\n      mstore\n      0x20\n      add\n      swap1\n      dup2\n      mstore\n      0x20\n      add\n      0x0\n      keccak256\n        /* \"ballotV3.sol\":922:943  voters[toVoter].voted */\n      0x1\n      add\n      0x0\n      swap1\n      sload\n      swap1\n      0x100\n      exp\n      swap1\n      div\n      0xff\n      and\n        /* \"ballotV3.sol\":893:943  msg.sender != chairperson || voters[toVoter].voted */\n    tag_24:\n        /* \"ballotV3.sol\":889:965  if (msg.sender != chairperson || voters[toVoter].voted) ... */\n      iszero\n      tag_25\n      jumpi\n        /* \"ballotV3.sol\":958:965  return; */\n      jump(tag_23)\n        /* \"ballotV3.sol\":889:965  if (msg.sender != chairperson || voters[toVoter].voted) ... */\n    tag_25:\n        /* \"ballotV3.sol\":1000:1001  1 */\n      0x1\n        /* \"ballotV3.sol\":975:981  voters */\n      dup1\n        /* \"ballotV3.sol\":975:990  voters[toVoter] */\n      0x0\n        /* \"ballotV3.sol\":982:989  toVoter */\n      dup5\n        /* \"ballotV3.sol\":975:990  voters[toVoter] */\n      0xffffffffffffffffffffffffffffffffffffffff\n      and\n      0xffffffffffffffffffffffffffffffffffffffff\n      and\n      dup2\n      mstore\n      0x20\n      add\n      swap1\n      dup2\n      mstore\n      0x20\n      add\n      0x0\n      keccak256\n        /* \"ballotV3.sol\":975:997  voters[toVoter].weight */\n      0x0\n      add\n        /* \"ballotV3.sol\":975:1001  voters[toVoter].weight = 1 */\n      dup2\n      swap1\n      sstore\n      pop\n        /* \"ballotV3.sol\":1035:1040  false */\n      0x0\n        /* \"ballotV3.sol\":1011:1017  voters */\n      0x1\n        /* \"ballotV3.sol\":1011:1026  voters[toVoter] */\n      0x0\n        /* \"ballotV3.sol\":1018:1025  toVoter */\n      dup5\n        /* \"ballotV3.sol\":1011:1026  voters[toVoter] */\n      0xffffffffffffffffffffffffffffffffffffffff\n      and\n      0xffffffffffffffffffffffffffffffffffffffff\n      and\n      dup2\n      mstore\n      0x20\n      add\n      swap1\n      dup2\n      mstore\n      0x20\n      add\n      0x0\n      keccak256\n        /* \"ballotV3.sol\":1011:1032  voters[toVoter].voted */\n      0x1\n      add\n      0x0\n        /* \"ballotV3.sol\":1011:1040  voters[toVoter].voted = false */\n      0x100\n      exp\n      dup2\n      sload\n      dup2\n      0xff\n      mul\n      not\n      and\n      swap1\n      dup4\n      iszero\n      iszero\n      mul\n      or\n      swap1\n      sstore\n      pop\n        /* \"ballotV3.sol\":1073:1083  10 seconds */\n      0xa\n        /* \"ballotV3.sol\":1061:1070  startTime */\n      sload(0x3)\n        /* \"ballotV3.sol\":1061:1083  startTime + 10 seconds */\n      add\n        /* \"ballotV3.sol\":1054:1057  now */\n      timestamp\n        /* \"ballotV3.sol\":1054:1084  now > (startTime + 10 seconds) */\n      gt\n        /* \"ballotV3.sol\":1050:1159  if (now > (startTime + 10 seconds)) {... */\n      iszero\n      tag_26\n      jumpi\n        /* \"ballotV3.sol\":1108:1118  Stage.Vote */\n      0x2\n        /* \"ballotV3.sol\":1100:1105  stage */\n      0x0\n      dup1\n        /* \"ballotV3.sol\":1100:1118  stage = Stage.Vote */\n      0x100\n      exp\n      dup2\n      sload\n      dup2\n      0xff\n      mul\n      not\n      and\n      swap1\n      dup4\n      0x3\n      dup2\n      gt\n      iszero\n      tag_27\n      jumpi\n      invalid\n    tag_27:\n      mul\n      or\n      swap1\n      sstore\n      pop\n        /* \"ballotV3.sol\":1145:1148  now */\n      timestamp\n        /* \"ballotV3.sol\":1133:1142  startTime */\n      0x3\n        /* \"ballotV3.sol\":1133:1148  startTime = now */\n      dup2\n      swap1\n      sstore\n      pop\n        /* \"ballotV3.sol\":1050:1159  if (now > (startTime + 10 seconds)) {... */\n    tag_26:\n        /* \"ballotV3.sol\":545:546  _ */\n    tag_23:\n        /* \"ballotV3.sol\":814:1184  function register(address toVoter) public validStage(Stage.Reg) {... */\n      pop\n      pop\n      jump\t// out\n        /* \"ballotV3.sol\":1630:2040  function winningProposal() public validStage(Stage.Done) view returns (uint8 _winningProposal)  {... */\n    tag_11:\n        /* \"ballotV3.sol\":1701:1723  uint8 _winningProposal */\n      0x0\n        /* \"ballotV3.sol\":1736:1760  uint256 winningVoteCount */\n      dup1\n        /* \"ballotV3.sol\":1780:1790  uint8 prop */\n      0x0\n        /* \"ballotV3.sol\":1675:1685  Stage.Done */\n      0x3\n        /* \"ballotV3.sol\":526:534  reqStage */\n      dup1\n        /* \"ballotV3.sol\":517:534  stage == reqStage */\n      0x3\n      dup2\n      gt\n      iszero\n      tag_29\n      jumpi\n      invalid\n    tag_29:\n        /* \"ballotV3.sol\":517:522  stage */\n      0x0\n      dup1\n      swap1\n      sload\n      swap1\n      0x100\n      exp\n      swap1\n      div\n      0xff\n      and\n        /* \"ballotV3.sol\":517:534  stage == reqStage */\n      0x3\n      dup2\n      gt\n      iszero\n      tag_30\n      jumpi\n      invalid\n    tag_30:\n      eq\n        /* \"ballotV3.sol\":509:535  require(stage == reqStage) */\n      iszero\n      iszero\n      tag_31\n      jumpi\n      0x0\n      dup1\n      revert\n    tag_31:\n        /* \"ballotV3.sol\":1763:1764  0 */\n      0x0\n        /* \"ballotV3.sol\":1736:1764  uint256 winningVoteCount = 0 */\n      swap3\n      pop\n        /* \"ballotV3.sol\":1793:1794  0 */\n      0x0\n        /* \"ballotV3.sol\":1780:1794  uint8 prop = 0 */\n      swap2\n      pop\n        /* \"ballotV3.sol\":1775:2009  for (uint8 prop = 0; prop < proposals.length; prop++)... */\n    tag_33:\n        /* \"ballotV3.sol\":1803:1812  proposals */\n      0x2\n        /* \"ballotV3.sol\":1803:1819  proposals.length */\n      dup1\n      sload\n      swap1\n      pop\n        /* \"ballotV3.sol\":1796:1800  prop */\n      dup3\n        /* \"ballotV3.sol\":1796:1819  prop < proposals.length */\n      0xff\n      and\n      lt\n        /* \"ballotV3.sol\":1775:2009  for (uint8 prop = 0; prop < proposals.length; prop++)... */\n      iszero\n      tag_34\n      jumpi\n        /* \"ballotV3.sol\":1873:1889  winningVoteCount */\n      dup3\n        /* \"ballotV3.sol\":1845:1854  proposals */\n      0x2\n        /* \"ballotV3.sol\":1855:1859  prop */\n      dup4\n        /* \"ballotV3.sol\":1845:1860  proposals[prop] */\n      0xff\n      and\n      dup2\n      sload\n      dup2\n      lt\n      iszero\n      iszero\n      tag_36\n      jumpi\n      invalid\n    tag_36:\n      swap1\n      0x0\n      mstore\n      keccak256(0x0, 0x20)\n      add\n        /* \"ballotV3.sol\":1845:1870  proposals[prop].voteCount */\n      0x0\n      add\n      sload\n        /* \"ballotV3.sol\":1845:1889  proposals[prop].voteCount > winningVoteCount */\n      gt\n        /* \"ballotV3.sol\":1841:2009  if (proposals[prop].voteCount > winningVoteCount) {... */\n      iszero\n      tag_38\n      jumpi\n        /* \"ballotV3.sol\":1928:1937  proposals */\n      0x2\n        /* \"ballotV3.sol\":1938:1942  prop */\n      dup3\n        /* \"ballotV3.sol\":1928:1943  proposals[prop] */\n      0xff\n      and\n      dup2\n      sload\n      dup2\n      lt\n      iszero\n      iszero\n      tag_39\n      jumpi\n      invalid\n    tag_39:\n      swap1\n      0x0\n      mstore\n      keccak256(0x0, 0x20)\n      add\n        /* \"ballotV3.sol\":1928:1953  proposals[prop].voteCount */\n      0x0\n      add\n      sload\n        /* \"ballotV3.sol\":1909:1953  winningVoteCount = proposals[prop].voteCount */\n      swap3\n      pop\n        /* \"ballotV3.sol\":1990:1994  prop */\n      dup2\n        /* \"ballotV3.sol\":1971:1994  _winningProposal = prop */\n      swap4\n      pop\n        /* \"ballotV3.sol\":1841:2009  if (proposals[prop].voteCount > winningVoteCount) {... */\n    tag_38:\n        /* \"ballotV3.sol\":1821:1827  prop++ */\n      dup2\n      dup1\n      0x1\n      add\n      swap3\n      pop\n      pop\n        /* \"ballotV3.sol\":1775:2009  for (uint8 prop = 0; prop < proposals.length; prop++)... */\n      jump(tag_33)\n    tag_34:\n        /* \"ballotV3.sol\":1630:2040  function winningProposal() public validStage(Stage.Done) view returns (uint8 _winningProposal)  {... */\n      pop\n      pop\n      pop\n      swap1\n      jump\t// out\n        /* \"ballotV3.sol\":1191:1623  function vote(uint8 toProposal) public validStage(Stage.Vote){... */\n    tag_14:\n        /* \"ballotV3.sol\":1262:1282  Voter storage sender */\n      0x0\n        /* \"ballotV3.sol\":1241:1251  Stage.Vote */\n      0x2\n        /* \"ballotV3.sol\":526:534  reqStage */\n      dup1\n        /* \"ballotV3.sol\":517:534  stage == reqStage */\n      0x3\n      dup2\n      gt\n      iszero\n      tag_42\n      jumpi\n      invalid\n    tag_42:\n        /* \"ballotV3.sol\":517:522  stage */\n      0x0\n      dup1\n      swap1\n      sload\n      swap1\n      0x100\n      exp\n      swap1\n      div\n      0xff\n      and\n        /* \"ballotV3.sol\":517:534  stage == reqStage */\n      0x3\n      dup2\n      gt\n      iszero\n      tag_43\n      jumpi\n      invalid\n    tag_43:\n      eq\n        /* \"ballotV3.sol\":509:535  require(stage == reqStage) */\n      iszero\n      iszero\n      tag_44\n      jumpi\n      0x0\n      dup1\n      revert\n    tag_44:\n        /* \"ballotV3.sol\":1285:1291  voters */\n      0x1\n        /* \"ballotV3.sol\":1285:1303  voters[msg.sender] */\n      0x0\n        /* \"ballotV3.sol\":1292:1302  msg.sender */\n      caller\n        /* \"ballotV3.sol\":1285:1303  voters[msg.sender] */\n      0xffffffffffffffffffffffffffffffffffffffff\n      and\n      0xffffffffffffffffffffffffffffffffffffffff\n      and\n      dup2\n      mstore\n      0x20\n      add\n      swap1\n      dup2\n      mstore\n      0x20\n      add\n      0x0\n      keccak256\n        /* \"ballotV3.sol\":1262:1303  Voter storage sender = voters[msg.sender] */\n      swap2\n      pop\n        /* \"ballotV3.sol\":1317:1323  sender */\n      dup2\n        /* \"ballotV3.sol\":1317:1329  sender.voted */\n      0x1\n      add\n      0x0\n      swap1\n      sload\n      swap1\n      0x100\n      exp\n      swap1\n      div\n      0xff\n      and\n        /* \"ballotV3.sol\":1317:1363  sender.voted || toProposal >= proposals.length */\n      dup1\n      tag_46\n      jumpi\n      pop\n        /* \"ballotV3.sol\":1347:1356  proposals */\n      0x2\n        /* \"ballotV3.sol\":1347:1363  proposals.length */\n      dup1\n      sload\n      swap1\n      pop\n        /* \"ballotV3.sol\":1333:1343  toProposal */\n      dup4\n        /* \"ballotV3.sol\":1333:1363  toProposal >= proposals.length */\n      0xff\n      and\n      lt\n      iszero\n        /* \"ballotV3.sol\":1317:1363  sender.voted || toProposal >= proposals.length */\n    tag_46:\n        /* \"ballotV3.sol\":1313:1385  if (sender.voted || toProposal >= proposals.length) ... */\n      iszero\n      tag_47\n      jumpi\n        /* \"ballotV3.sol\":1378:1385  return; */\n      jump(tag_45)\n        /* \"ballotV3.sol\":1313:1385  if (sender.voted || toProposal >= proposals.length) ... */\n    tag_47:\n        /* \"ballotV3.sol\":1410:1414  true */\n      0x1\n        /* \"ballotV3.sol\":1395:1401  sender */\n      dup3\n        /* \"ballotV3.sol\":1395:1407  sender.voted */\n      0x1\n      add\n      0x0\n        /* \"ballotV3.sol\":1395:1414  sender.voted = true */\n      0x100\n      exp\n      dup2\n      sload\n      dup2\n      0xff\n      mul\n      not\n      and\n      swap1\n      dup4\n      iszero\n      iszero\n      mul\n      or\n      swap1\n      sstore\n      pop\n        /* \"ballotV3.sol\":1438:1448  toProposal */\n      dup3\n        /* \"ballotV3.sol\":1424:1430  sender */\n      dup3\n        /* \"ballotV3.sol\":1424:1435  sender.vote */\n      0x1\n      add\n      0x1\n        /* \"ballotV3.sol\":1424:1448  sender.vote = toProposal */\n      0x100\n      exp\n      dup2\n      sload\n      dup2\n      0xff\n      mul\n      not\n      and\n      swap1\n      dup4\n      0xff\n      and\n      mul\n      or\n      swap1\n      sstore\n      pop\n        /* \"ballotV3.sol\":1496:1502  sender */\n      dup2\n        /* \"ballotV3.sol\":1496:1509  sender.weight */\n      0x0\n      add\n      sload\n        /* \"ballotV3.sol\":1461:1470  proposals */\n      0x2\n        /* \"ballotV3.sol\":1471:1481  toProposal */\n      dup5\n        /* \"ballotV3.sol\":1461:1482  proposals[toProposal] */\n      0xff\n      and\n      dup2\n      sload\n      dup2\n      lt\n      iszero\n      iszero\n      tag_48\n      jumpi\n      invalid\n    tag_48:\n      swap1\n      0x0\n      mstore\n      keccak256(0x0, 0x20)\n      add\n        /* \"ballotV3.sol\":1461:1492  proposals[toProposal].voteCount */\n      0x0\n      add\n      0x0\n        /* \"ballotV3.sol\":1461:1509  proposals[toProposal].voteCount += sender.weight */\n      dup3\n      dup3\n      sload\n      add\n      swap3\n      pop\n      pop\n      dup2\n      swap1\n      sstore\n      pop\n        /* \"ballotV3.sol\":1543:1553  60 seconds */\n      0x3c\n        /* \"ballotV3.sol\":1531:1540  startTime */\n      sload(0x3)\n        /* \"ballotV3.sol\":1531:1553  startTime + 60 seconds */\n      add\n        /* \"ballotV3.sol\":1524:1527  now */\n      timestamp\n        /* \"ballotV3.sol\":1524:1554  now > (startTime + 60 seconds) */\n      gt\n        /* \"ballotV3.sol\":1520:1586  if (now > (startTime + 60 seconds)) ... */\n      iszero\n      tag_50\n      jumpi\n        /* \"ballotV3.sol\":1576:1586  Stage.Done */\n      0x3\n        /* \"ballotV3.sol\":1568:1573  stage */\n      0x0\n      dup1\n        /* \"ballotV3.sol\":1568:1586  stage = Stage.Done */\n      0x100\n      exp\n      dup2\n      sload\n      dup2\n      0xff\n      mul\n      not\n      and\n      swap1\n      dup4\n      0x3\n      dup2\n      gt\n      iszero\n      tag_51\n      jumpi\n      invalid\n    tag_51:\n      mul\n      or\n      swap1\n      sstore\n      pop\n        /* \"ballotV3.sol\":1520:1586  if (now > (startTime + 60 seconds)) ... */\n    tag_50:\n        /* \"ballotV3.sol\":545:546  _ */\n    tag_45:\n        /* \"ballotV3.sol\":1191:1623  function vote(uint8 toProposal) public validStage(Stage.Vote){... */\n      pop\n      pop\n      pop\n      jump\t// out\n        /* \"ballotV3.sol\":299:330  Stage public stage = Stage.Init */\n    tag_17:\n      0x0\n      dup1\n      swap1\n      sload\n      swap1\n      0x100\n      exp\n      swap1\n      div\n      0xff\n      and\n      dup2\n      jump\t// out\n\n    auxdata: 0xa165627a7a72305820a173c4cbf7f66fa1871ac1fe8912e6b580bab39effa3ac94f57bf802296b7f5e0029\n}\n",
				"bytecode": {
					"linkReferences": {},
					"object": "608060405260008060006101000a81548160ff0219169083600381111561002257fe5b021790555034801561003357600080fd5b506040516020806106e68339810180604052810190808051906020019092919050505033600060016101000a81548173ffffffffffffffffffffffffffffffffffffffff021916908373ffffffffffffffffffffffffffffffffffffffff1602179055506002600160008060019054906101000a900473ffffffffffffffffffffffffffffffffffffffff1673ffffffffffffffffffffffffffffffffffffffff1673ffffffffffffffffffffffffffffffffffffffff168152602001908152602001600020600001819055508060ff166002816101119190610142565b5060016000806101000a81548160ff0219169083600381111561013057fe5b02179055504260038190555050610195565b81548183558181111561016957818360005260206000209182019101610168919061016e565b5b505050565b61019291905b8082111561018e5760008082016000905550600101610174565b5090565b90565b610542806101a46000396000f300608060405260043610610062576000357c0100000000000000000000000000000000000000000000000000000000900463ffffffff1680634420e48614610067578063609ff1bd146100aa578063b3f98adc146100db578063c040e6b81461010b575b600080fd5b34801561007357600080fd5b506100a8600480360381019080803573ffffffffffffffffffffffffffffffffffffffff169060200190929190505050610144565b005b3480156100b657600080fd5b506100bf61030a565b604051808260ff1660ff16815260200191505060405180910390f35b3480156100e757600080fd5b50610109600480360381019080803560ff1690602001909291905050506103bc565b005b34801561011757600080fd5b50610120610504565b6040518082600381111561013057fe5b60ff16815260200191505060405180910390f35b600180600381111561015257fe5b6000809054906101000a900460ff16600381111561016c57fe5b14151561017857600080fd5b600060019054906101000a900473ffffffffffffffffffffffffffffffffffffffff1673ffffffffffffffffffffffffffffffffffffffff163373ffffffffffffffffffffffffffffffffffffffff161415806102215750600160008373ffffffffffffffffffffffffffffffffffffffff1673ffffffffffffffffffffffffffffffffffffffff16815260200190815260200160002060010160009054906101000a900460ff165b1561022b57610306565b60018060008473ffffffffffffffffffffffffffffffffffffffff1673ffffffffffffffffffffffffffffffffffffffff168152602001908152602001600020600001819055506000600160008473ffffffffffffffffffffffffffffffffffffffff1673ffffffffffffffffffffffffffffffffffffffff16815260200190815260200160002060010160006101000a81548160ff021916908315150217905550600a600354014211156103055760026000806101000a81548160ff021916908360038111156102f857fe5b0217905550426003819055505b5b5050565b6000806000600380600381111561031d57fe5b6000809054906101000a900460ff16600381111561033757fe5b14151561034357600080fd5b60009250600091505b6002805490508260ff1610156103b6578260028360ff1681548110151561036f57fe5b906000526020600020016000015411156103a95760028260ff1681548110151561039557fe5b906000526020600020016000015492508193505b818060010192505061034c565b50505090565b600060028060038111156103cc57fe5b6000809054906101000a900460ff1660038111156103e657fe5b1415156103f257600080fd5b600160003373ffffffffffffffffffffffffffffffffffffffff1673ffffffffffffffffffffffffffffffffffffffff16815260200190815260200160002091508160010160009054906101000a900460ff168061045857506002805490508360ff1610155b15610462576104ff565b60018260010160006101000a81548160ff021916908315150217905550828260010160016101000a81548160ff021916908360ff160217905550816000015460028460ff168154811015156104b357fe5b9060005260206000200160000160008282540192505081905550603c600354014211156104fe5760036000806101000a81548160ff021916908360038111156104f857fe5b02179055505b5b505050565b6000809054906101000a900460ff16815600a165627a7a72305820a173c4cbf7f66fa1871ac1fe8912e6b580bab39effa3ac94f57bf802296b7f5e0029",
					"opcodes": "PUSH1 0x80 PUSH1 0x40 MSTORE PUSH1 0x0 DUP1 PUSH1 0x0 PUSH2 0x100 EXP DUP2 SLOAD DUP2 PUSH1 0xFF MUL NOT AND SWAP1 DUP4 PUSH1 0x3 DUP2 GT ISZERO PUSH2 0x22 JUMPI INVALID JUMPDEST MUL OR SWAP1 SSTORE POP CALLVALUE DUP1 ISZERO PUSH2 0x33 JUMPI PUSH1 0x0 DUP1 REVERT JUMPDEST POP PUSH1 0x40 MLOAD PUSH1 0x20 DUP1 PUSH2 0x6E6 DUP4 CODECOPY DUP2 ADD DUP1 PUSH1 0x40 MSTORE DUP2 ADD SWAP1 DUP1 DUP1 MLOAD SWAP1 PUSH1 0x20 ADD SWAP1 SWAP3 SWAP2 SWAP1 POP POP POP CALLER PUSH1 0x0 PUSH1 0x1 PUSH2 0x100 EXP DUP2 SLOAD DUP2 PUSH20 0xFFFFFFFFFFFFFFFFFFFFFFFFFFFFFFFFFFFFFFFF MUL NOT AND SWAP1 DUP4 PUSH20 0xFFFFFFFFFFFFFFFFFFFFFFFFFFFFFFFFFFFFFFFF AND MUL OR SWAP1 SSTORE POP PUSH1 0x2 PUSH1 0x1 PUSH1 0x0 DUP1 PUSH1 0x1 SWAP1 SLOAD SWAP1 PUSH2 0x100 EXP SWAP1 DIV PUSH20 0xFFFFFFFFFFFFFFFFFFFFFFFFFFFFFFFFFFFFFFFF AND PUSH20 0xFFFFFFFFFFFFFFFFFFFFFFFFFFFFFFFFFFFFFFFF AND PUSH20 0xFFFFFFFFFFFFFFFFFFFFFFFFFFFFFFFFFFFFFFFF AND DUP2 MSTORE PUSH1 0x20 ADD SWAP1 DUP2 MSTORE PUSH1 0x20 ADD PUSH1 0x0 KECCAK256 PUSH1 0x0 ADD DUP2 SWAP1 SSTORE POP DUP1 PUSH1 0xFF AND PUSH1 0x2 DUP2 PUSH2 0x111 SWAP2 SWAP1 PUSH2 0x142 JUMP JUMPDEST POP PUSH1 0x1 PUSH1 0x0 DUP1 PUSH2 0x100 EXP DUP2 SLOAD DUP2 PUSH1 0xFF MUL NOT AND SWAP1 DUP4 PUSH1 0x3 DUP2 GT ISZERO PUSH2 0x130 JUMPI INVALID JUMPDEST MUL OR SWAP1 SSTORE POP TIMESTAMP PUSH1 0x3 DUP2 SWAP1 SSTORE POP POP PUSH2 0x195 JUMP JUMPDEST DUP2 SLOAD DUP2 DUP4 SSTORE DUP2 DUP2 GT ISZERO PUSH2 0x169 JUMPI DUP2 DUP4 PUSH1 0x0 MSTORE PUSH1 0x20 PUSH1 0x0 KECCAK256 SWAP2 DUP3 ADD SWAP2 ADD PUSH2 0x168 SWAP2 SWAP1 PUSH2 0x16E JUMP JUMPDEST JUMPDEST POP POP POP JUMP JUMPDEST PUSH2 0x192 SWAP2 SWAP1 JUMPDEST DUP1 DUP3 GT ISZERO PUSH2 0x18E JUMPI PUSH1 0x0 DUP1 DUP3 ADD PUSH1 0x0 SWAP1 SSTORE POP PUSH1 0x1 ADD PUSH2 0x174 JUMP JUMPDEST POP SWAP1 JUMP JUMPDEST SWAP1 JUMP JUMPDEST PUSH2 0x542 DUP1 PUSH2 0x1A4 PUSH1 0x0 CODECOPY PUSH1 0x0 RETURN STOP PUSH1 0x80 PUSH1 0x40 MSTORE PUSH1 0x4 CALLDATASIZE LT PUSH2 0x62 JUMPI PUSH1 0x0 CALLDATALOAD PUSH29 0x100000000000000000000000000000000000000000000000000000000 SWAP1 DIV PUSH4 0xFFFFFFFF AND DUP1 PUSH4 0x4420E486 EQ PUSH2 0x67 JUMPI DUP1 PUSH4 0x609FF1BD EQ PUSH2 0xAA JUMPI DUP1 PUSH4 0xB3F98ADC EQ PUSH2 0xDB JUMPI DUP1 PUSH4 0xC040E6B8 EQ PUSH2 0x10B JUMPI JUMPDEST PUSH1 0x0 DUP1 REVERT JUMPDEST CALLVALUE DUP1 ISZERO PUSH2 0x73 JUMPI PUSH1 0x0 DUP1 REVERT JUMPDEST POP PUSH2 0xA8 PUSH1 0x4 DUP1 CALLDATASIZE SUB DUP2 ADD SWAP1 DUP1 DUP1 CALLDATALOAD PUSH20 0xFFFFFFFFFFFFFFFFFFFFFFFFFFFFFFFFFFFFFFFF AND SWAP1 PUSH1 0x20 ADD SWAP1 SWAP3 SWAP2 SWAP1 POP POP POP PUSH2 0x144 JUMP JUMPDEST STOP JUMPDEST CALLVALUE DUP1 ISZERO PUSH2 0xB6 JUMPI PUSH1 0x0 DUP1 REVERT JUMPDEST POP PUSH2 0xBF PUSH2 0x30A JUMP JUMPDEST PUSH1 0x40 MLOAD DUP1 DUP3 PUSH1 0xFF AND PUSH1 0xFF AND DUP2 MSTORE PUSH1 0x20 ADD SWAP2 POP POP PUSH1 0x40 MLOAD DUP1 SWAP2 SUB SWAP1 RETURN JUMPDEST CALLVALUE DUP1 ISZERO PUSH2 0xE7 JUMPI PUSH1 0x0 DUP1 REVERT JUMPDEST POP PUSH2 0x109 PUSH1 0x4 DUP1 CALLDATASIZE SUB DUP2 ADD SWAP1 DUP1 DUP1 CALLDATALOAD PUSH1 0xFF AND SWAP1 PUSH1 0x20 ADD SWAP1 SWAP3 SWAP2 SWAP1 POP POP POP PUSH2 0x3BC JUMP JUMPDEST STOP JUMPDEST CALLVALUE DUP1 ISZERO PUSH2 0x117 JUMPI PUSH1 0x0 DUP1 REVERT JUMPDEST POP PUSH2 0x120 PUSH2 0x504 JUMP JUMPDEST PUSH1 0x40 MLOAD DUP1 DUP3 PUSH1 0x3 DUP2 GT ISZERO PUSH2 0x130 JUMPI INVALID JUMPDEST PUSH1 0xFF AND DUP2 MSTORE PUSH1 0x20 ADD SWAP2 POP POP PUSH1 0x40 MLOAD DUP1 SWAP2 SUB SWAP1 RETURN JUMPDEST PUSH1 0x1 DUP1 PUSH1 0x3 DUP2 GT ISZERO PUSH2 0x152 JUMPI INVALID JUMPDEST PUSH1 0x0 DUP1 SWAP1 SLOAD SWAP1 PUSH2 0x100 EXP SWAP1 DIV PUSH1 0xFF AND PUSH1 0x3 DUP2 GT ISZERO PUSH2 0x16C JUMPI INVALID JUMPDEST EQ ISZERO ISZERO PUSH2 0x178 JUMPI PUSH1 0x0 DUP1 REVERT JUMPDEST PUSH1 0x0 PUSH1 0x1 SWAP1 SLOAD SWAP1 PUSH2 0x100 EXP SWAP1 DIV PUSH20 0xFFFFFFFFFFFFFFFFFFFFFFFFFFFFFFFFFFFFFFFF AND PUSH20 0xFFFFFFFFFFFFFFFFFFFFFFFFFFFFFFFFFFFFFFFF AND CALLER PUSH20 0xFFFFFFFFFFFFFFFFFFFFFFFFFFFFFFFFFFFFFFFF AND EQ ISZERO DUP1 PUSH2 0x221 JUMPI POP PUSH1 0x1 PUSH1 0x0 DUP4 PUSH20 0xFFFFFFFFFFFFFFFFFFFFFFFFFFFFFFFFFFFFFFFF AND PUSH20 0xFFFFFFFFFFFFFFFFFFFFFFFFFFFFFFFFFFFFFFFF AND DUP2 MSTORE PUSH1 0x20 ADD SWAP1 DUP2 MSTORE PUSH1 0x20 ADD PUSH1 0x0 KECCAK256 PUSH1 0x1 ADD PUSH1 0x0 SWAP1 SLOAD SWAP1 PUSH2 0x100 EXP SWAP1 DIV PUSH1 0xFF AND JUMPDEST ISZERO PUSH2 0x22B JUMPI PUSH2 0x306 JUMP JUMPDEST PUSH1 0x1 DUP1 PUSH1 0x0 DUP5 PUSH20 0xFFFFFFFFFFFFFFFFFFFFFFFFFFFFFFFFFFFFFFFF AND PUSH20 0xFFFFFFFFFFFFFFFFFFFFFFFFFFFFFFFFFFFFFFFF AND DUP2 MSTORE PUSH1 0x20 ADD SWAP1 DUP2 MSTORE PUSH1 0x20 ADD PUSH1 0x0 KECCAK256 PUSH1 0x0 ADD DUP2 SWAP1 SSTORE POP PUSH1 0x0 PUSH1 0x1 PUSH1 0x0 DUP5 PUSH20 0xFFFFFFFFFFFFFFFFFFFFFFFFFFFFFFFFFFFFFFFF AND PUSH20 0xFFFFFFFFFFFFFFFFFFFFFFFFFFFFFFFFFFFFFFFF AND DUP2 MSTORE PUSH1 0x20 ADD SWAP1 DUP2 MSTORE PUSH1 0x20 ADD PUSH1 0x0 KECCAK256 PUSH1 0x1 ADD PUSH1 0x0 PUSH2 0x100 EXP DUP2 SLOAD DUP2 PUSH1 0xFF MUL NOT AND SWAP1 DUP4 ISZERO ISZERO MUL OR SWAP1 SSTORE POP PUSH1 0xA PUSH1 0x3 SLOAD ADD TIMESTAMP GT ISZERO PUSH2 0x305 JUMPI PUSH1 0x2 PUSH1 0x0 DUP1 PUSH2 0x100 EXP DUP2 SLOAD DUP2 PUSH1 0xFF MUL NOT AND SWAP1 DUP4 PUSH1 0x3 DUP2 GT ISZERO PUSH2 0x2F8 JUMPI INVALID JUMPDEST MUL OR SWAP1 SSTORE POP TIMESTAMP PUSH1 0x3 DUP2 SWAP1 SSTORE POP JUMPDEST JUMPDEST POP POP JUMP JUMPDEST PUSH1 0x0 DUP1 PUSH1 0x0 PUSH1 0x3 DUP1 PUSH1 0x3 DUP2 GT ISZERO PUSH2 0x31D JUMPI INVALID JUMPDEST PUSH1 0x0 DUP1 SWAP1 SLOAD SWAP1 PUSH2 0x100 EXP SWAP1 DIV PUSH1 0xFF AND PUSH1 0x3 DUP2 GT ISZERO PUSH2 0x337 JUMPI INVALID JUMPDEST EQ ISZERO ISZERO PUSH2 0x343 JUMPI PUSH1 0x0 DUP1 REVERT JUMPDEST PUSH1 0x0 SWAP3 POP PUSH1 0x0 SWAP2 POP JUMPDEST PUSH1 0x2 DUP1 SLOAD SWAP1 POP DUP3 PUSH1 0xFF AND LT ISZERO PUSH2 0x3B6 JUMPI DUP3 PUSH1 0x2 DUP4 PUSH1 0xFF AND DUP2 SLOAD DUP2 LT ISZERO ISZERO PUSH2 0x36F JUMPI INVALID JUMPDEST SWAP1 PUSH1 0x0 MSTORE PUSH1 0x20 PUSH1 0x0 KECCAK256 ADD PUSH1 0x0 ADD SLOAD GT ISZERO PUSH2 0x3A9 JUMPI PUSH1 0x2 DUP3 PUSH1 0xFF AND DUP2 SLOAD DUP2 LT ISZERO ISZERO PUSH2 0x395 JUMPI INVALID JUMPDEST SWAP1 PUSH1 0x0 MSTORE PUSH1 0x20 PUSH1 0x0 KECCAK256 ADD PUSH1 0x0 ADD SLOAD SWAP3 POP DUP2 SWAP4 POP JUMPDEST DUP2 DUP1 PUSH1 0x1 ADD SWAP3 POP POP PUSH2 0x34C JUMP JUMPDEST POP POP POP SWAP1 JUMP JUMPDEST PUSH1 0x0 PUSH1 0x2 DUP1 PUSH1 0x3 DUP2 GT ISZERO PUSH2 0x3CC JUMPI INVALID JUMPDEST PUSH1 0x0 DUP1 SWAP1 SLOAD SWAP1 PUSH2 0x100 EXP SWAP1 DIV PUSH1 0xFF AND PUSH1 0x3 DUP2 GT ISZERO PUSH2 0x3E6 JUMPI INVALID JUMPDEST EQ ISZERO ISZERO PUSH2 0x3F2 JUMPI PUSH1 0x0 DUP1 REVERT JUMPDEST PUSH1 0x1 PUSH1 0x0 CALLER PUSH20 0xFFFFFFFFFFFFFFFFFFFFFFFFFFFFFFFFFFFFFFFF AND PUSH20 0xFFFFFFFFFFFFFFFFFFFFFFFFFFFFFFFFFFFFFFFF AND DUP2 MSTORE PUSH1 0x20 ADD SWAP1 DUP2 MSTORE PUSH1 0x20 ADD PUSH1 0x0 KECCAK256 SWAP2 POP DUP2 PUSH1 0x1 ADD PUSH1 0x0 SWAP1 SLOAD SWAP1 PUSH2 0x100 EXP SWAP1 DIV PUSH1 0xFF AND DUP1 PUSH2 0x458 JUMPI POP PUSH1 0x2 DUP1 SLOAD SWAP1 POP DUP4 PUSH1 0xFF AND LT ISZERO JUMPDEST ISZERO PUSH2 0x462 JUMPI PUSH2 0x4FF JUMP JUMPDEST PUSH1 0x1 DUP3 PUSH1 0x1 ADD PUSH1 0x0 PUSH2 0x100 EXP DUP2 SLOAD DUP2 PUSH1 0xFF MUL NOT AND SWAP1 DUP4 ISZERO ISZERO MUL OR SWAP1 SSTORE POP DUP3 DUP3 PUSH1 0x1 ADD PUSH1 0x1 PUSH2 0x100 EXP DUP2 SLOAD DUP2 PUSH1 0xFF MUL NOT AND SWAP1 DUP4 PUSH1 0xFF AND MUL OR SWAP1 SSTORE POP DUP2 PUSH1 0x0 ADD SLOAD PUSH1 0x2 DUP5 PUSH1 0xFF AND DUP2 SLOAD DUP2 LT ISZERO ISZERO PUSH2 0x4B3 JUMPI INVALID JUMPDEST SWAP1 PUSH1 0x0 MSTORE PUSH1 0x20 PUSH1 0x0 KECCAK256 ADD PUSH1 0x0 ADD PUSH1 0x0 DUP3 DUP3 SLOAD ADD SWAP3 POP POP DUP2 SWAP1 SSTORE POP PUSH1 0x3C PUSH1 0x3 SLOAD ADD TIMESTAMP GT ISZERO PUSH2 0x4FE JUMPI PUSH1 0x3 PUSH1 0x0 DUP1 PUSH2 0x100 EXP DUP2 SLOAD DUP2 PUSH1 0xFF MUL NOT AND SWAP1 DUP4 PUSH1 0x3 DUP2 GT ISZERO PUSH2 0x4F8 JUMPI INVALID JUMPDEST MUL OR SWAP1 SSTORE POP JUMPDEST JUMPDEST POP POP POP JUMP JUMPDEST PUSH1 0x0 DUP1 SWAP1 SLOAD SWAP1 PUSH2 0x100 EXP SWAP1 DIV PUSH1 0xFF AND DUP2 JUMP STOP LOG1 PUSH6 0x627A7A723058 KECCAK256 LOG1 PUSH20 0xC4CBF7F66FA1871AC1FE8912E6B580BAB39EFFA3 0xac SWAP5 0xf5 PUSH28 0xF802296B7F5E00290000000000000000000000000000000000000000 "
				},
				"gasEstimates": {
					"creation": {
						"codeDepositCost": "269200",
						"executionCost": "infinite",
						"totalCost": "infinite"
					},
					"external": {
						"register(address)": "82204",
						"stage()": "528",
						"vote(uint8)": "83024",
						"winningProposal()": "infinite"
					}
				},
				"methodIdentifiers": {
					"register(address)": "4420e486",
					"stage()": "c040e6b8",
					"vote(uint8)": "b3f98adc",
					"winningProposal()": "609ff1bd"
				}
			},
			"userdoc": {
				"methods": {}
			}
		}
	}
}