{
	"systemTimeRegistration.sol": {
		"Agent": {
			"abi": [
				{
					"constant": false,
					"inputs": [
						{
							"name": "authorized",
							"type": "address"
						}
					],
					"name": "register",
					"outputs": [],
					"payable": false,
					"stateMutability": "nonpayable",
					"type": "function"
				},
				{
					"constant": true,
					"inputs": [],
					"name": "logStatus",
					"outputs": [],
					"payable": false,
					"stateMutability": "view",
					"type": "function"
				},
				{
					"constant": false,
					"inputs": [
						{
							"name": "authorized",
							"type": "address[]"
						}
					],
					"name": "registerMultiple",
					"outputs": [],
					"payable": false,
					"stateMutability": "nonpayable",
					"type": "function"
				},
				{
					"constant": false,
					"inputs": [],
					"name": "start",
					"outputs": [],
					"payable": false,
					"stateMutability": "nonpayable",
					"type": "function"
				},
				{
					"constant": false,
					"inputs": [],
					"name": "exit",
					"outputs": [],
					"payable": false,
					"stateMutability": "nonpayable",
					"type": "function"
				},
				{
					"inputs": [],
					"payable": false,
					"stateMutability": "nonpayable",
					"type": "constructor"
				},
				{
					"anonymous": false,
					"inputs": [
						{
							"indexed": true,
							"name": "lastInvoker",
							"type": "address"
						},
						{
							"indexed": true,
							"name": "_id",
							"type": "address"
						},
						{
							"indexed": false,
							"name": "_success",
							"type": "bool"
						}
					],
					"name": "TrueFalse",
					"type": "event"
				}
			],
			"devdoc": {
				"methods": {}
			},
			"evm": {
				"assembly": "    /* \"systemTimeRegistration.sol\":57:1652  contract Agent {... */\n  mstore(0x40, 0x80)\n    /* \"systemTimeRegistration.sol\":288:350  constructor() public {... */\n  callvalue\n    /* \"--CODEGEN--\":8:17   */\n  dup1\n    /* \"--CODEGEN--\":5:7   */\n  iszero\n  tag_1\n  jumpi\n    /* \"--CODEGEN--\":30:31   */\n  0x0\n    /* \"--CODEGEN--\":27:28   */\n  dup1\n    /* \"--CODEGEN--\":20:32   */\n  revert\n    /* \"--CODEGEN--\":5:7   */\ntag_1:\n    /* \"systemTimeRegistration.sol\":288:350  constructor() public {... */\n  pop\n    /* \"systemTimeRegistration.sol\":333:343  msg.sender */\n  caller\n    /* \"systemTimeRegistration.sol\":319:330  coordinator */\n  0x0\n  dup1\n    /* \"systemTimeRegistration.sol\":319:343  coordinator = msg.sender */\n  0x100\n  exp\n  dup2\n  sload\n  dup2\n  0xffffffffffffffffffffffffffffffffffffffff\n  mul\n  not\n  and\n  swap1\n  dup4\n  0xffffffffffffffffffffffffffffffffffffffff\n  and\n  mul\n  or\n  swap1\n  sstore\n  pop\n    /* \"systemTimeRegistration.sol\":57:1652  contract Agent {... */\n  dataSize(sub_0)\n  dup1\n  dataOffset(sub_0)\n  0x0\n  codecopy\n  0x0\n  return\nstop\n\nsub_0: assembly {\n        /* \"systemTimeRegistration.sol\":57:1652  contract Agent {... */\n      mstore(0x40, 0x80)\n      jumpi(tag_1, lt(calldatasize, 0x4))\n      calldataload(0x0)\n      0x100000000000000000000000000000000000000000000000000000000\n      swap1\n      div\n      0xffffffff\n      and\n      dup1\n      0x4420e486\n      eq\n      tag_2\n      jumpi\n      dup1\n      0x71dd9322\n      eq\n      tag_3\n      jumpi\n      dup1\n      0xa3ba1116\n      eq\n      tag_4\n      jumpi\n      dup1\n      0xbe9a6555\n      eq\n      tag_5\n      jumpi\n      dup1\n      0xe9fad8ee\n      eq\n      tag_6\n      jumpi\n    tag_1:\n      0x0\n      dup1\n      revert\n        /* \"systemTimeRegistration.sol\":569:694  function register(address authorized) public onlyCoordinator {... */\n    tag_2:\n      callvalue\n        /* \"--CODEGEN--\":8:17   */\n      dup1\n        /* \"--CODEGEN--\":5:7   */\n      iszero\n      tag_7\n      jumpi\n        /* \"--CODEGEN--\":30:31   */\n      0x0\n        /* \"--CODEGEN--\":27:28   */\n      dup1\n        /* \"--CODEGEN--\":20:32   */\n      revert\n        /* \"--CODEGEN--\":5:7   */\n    tag_7:\n        /* \"systemTimeRegistration.sol\":569:694  function register(address authorized) public onlyCoordinator {... */\n      pop\n      tag_8\n      0x4\n      dup1\n      calldatasize\n      sub\n      dup2\n      add\n      swap1\n      dup1\n      dup1\n      calldataload\n      0xffffffffffffffffffffffffffffffffffffffff\n      and\n      swap1\n      0x20\n      add\n      swap1\n      swap3\n      swap2\n      swap1\n      pop\n      pop\n      pop\n      jump(tag_9)\n    tag_8:\n      stop\n        /* \"systemTimeRegistration.sol\":911:977  function logStatus() view public onlyCoordinator {... */\n    tag_3:\n      callvalue\n        /* \"--CODEGEN--\":8:17   */\n      dup1\n        /* \"--CODEGEN--\":5:7   */\n      iszero\n      tag_10\n      jumpi\n        /* \"--CODEGEN--\":30:31   */\n      0x0\n        /* \"--CODEGEN--\":27:28   */\n      dup1\n        /* \"--CODEGEN--\":20:32   */\n      revert\n        /* \"--CODEGEN--\":5:7   */\n    tag_10:\n        /* \"systemTimeRegistration.sol\":911:977  function logStatus() view public onlyCoordinator {... */\n      pop\n      tag_11\n      jump(tag_12)\n    tag_11:\n      stop\n        /* \"systemTimeRegistration.sol\":700:904  function registerMultiple(address[] authorized) public onlyCoordinator {... */\n    tag_4:\n      callvalue\n        /* \"--CODEGEN--\":8:17   */\n      dup1\n        /* \"--CODEGEN--\":5:7   */\n      iszero\n      tag_13\n      jumpi\n        /* \"--CODEGEN--\":30:31   */\n      0x0\n        /* \"--CODEGEN--\":27:28   */\n      dup1\n        /* \"--CODEGEN--\":20:32   */\n      revert\n        /* \"--CODEGEN--\":5:7   */\n    tag_13:\n        /* \"systemTimeRegistration.sol\":700:904  function registerMultiple(address[] authorized) public onlyCoordinator {... */\n      pop\n      tag_14\n      0x4\n      dup1\n      calldatasize\n      sub\n      dup2\n      add\n      swap1\n      dup1\n      dup1\n      calldataload\n      swap1\n      0x20\n      add\n      swap1\n      dup3\n      add\n      dup1\n      calldataload\n      swap1\n      0x20\n      add\n      swap1\n      dup1\n      dup1\n      0x20\n      mul\n      0x20\n      add\n      mload(0x40)\n      swap1\n      dup2\n      add\n      0x40\n      mstore\n      dup1\n      swap4\n      swap3\n      swap2\n      swap1\n      dup2\n      dup2\n      mstore\n      0x20\n      add\n      dup4\n      dup4\n      0x20\n      mul\n      dup1\n      dup3\n      dup5\n      calldatacopy\n      dup3\n      add\n      swap2\n      pop\n      pop\n      pop\n      pop\n      pop\n      pop\n      swap2\n      swap3\n      swap2\n      swap3\n      swap1\n      pop\n      pop\n      pop\n      jump(tag_15)\n    tag_14:\n      stop\n        /* \"systemTimeRegistration.sol\":1228:1370  function start() public {... */\n    tag_5:\n      callvalue\n        /* \"--CODEGEN--\":8:17   */\n      dup1\n        /* \"--CODEGEN--\":5:7   */\n      iszero\n      tag_16\n      jumpi\n        /* \"--CODEGEN--\":30:31   */\n      0x0\n        /* \"--CODEGEN--\":27:28   */\n      dup1\n        /* \"--CODEGEN--\":20:32   */\n      revert\n        /* \"--CODEGEN--\":5:7   */\n    tag_16:\n        /* \"systemTimeRegistration.sol\":1228:1370  function start() public {... */\n      pop\n      tag_17\n      jump(tag_18)\n    tag_17:\n      stop\n        /* \"systemTimeRegistration.sol\":1376:1648  function exit() public {... */\n    tag_6:\n      callvalue\n        /* \"--CODEGEN--\":8:17   */\n      dup1\n        /* \"--CODEGEN--\":5:7   */\n      iszero\n      tag_19\n      jumpi\n        /* \"--CODEGEN--\":30:31   */\n      0x0\n        /* \"--CODEGEN--\":27:28   */\n      dup1\n        /* \"--CODEGEN--\":20:32   */\n      revert\n        /* \"--CODEGEN--\":5:7   */\n    tag_19:\n        /* \"systemTimeRegistration.sol\":1376:1648  function exit() public {... */\n      pop\n      tag_20\n      jump(tag_21)\n    tag_20:\n      stop\n        /* \"systemTimeRegistration.sol\":569:694  function register(address authorized) public onlyCoordinator {... */\n    tag_9:\n        /* \"systemTimeRegistration.sol\":533:544  coordinator */\n      0x0\n      dup1\n      swap1\n      sload\n      swap1\n      0x100\n      exp\n      swap1\n      div\n      0xffffffffffffffffffffffffffffffffffffffff\n      and\n        /* \"systemTimeRegistration.sol\":519:544  msg.sender == coordinator */\n      0xffffffffffffffffffffffffffffffffffffffff\n      and\n        /* \"systemTimeRegistration.sol\":519:529  msg.sender */\n      caller\n        /* \"systemTimeRegistration.sol\":519:544  msg.sender == coordinator */\n      0xffffffffffffffffffffffffffffffffffffffff\n      and\n      eq\n        /* \"systemTimeRegistration.sol\":511:545  require(msg.sender == coordinator) */\n      iszero\n      iszero\n      tag_23\n      jumpi\n      0x0\n      dup1\n      revert\n    tag_23:\n        /* \"systemTimeRegistration.sol\":640:654  addrRegistered */\n      0x1\n        /* \"systemTimeRegistration.sol\":660:670  authorized */\n      dup2\n        /* \"systemTimeRegistration.sol\":640:671  addrRegistered.push(authorized) */\n      swap1\n      dup1\n        /* \"--CODEGEN--\":39:40   */\n      0x1\n        /* \"--CODEGEN--\":33:36   */\n      dup2\n        /* \"--CODEGEN--\":27:37   */\n      sload\n        /* \"--CODEGEN--\":23:41   */\n      add\n        /* \"--CODEGEN--\":57:67   */\n      dup1\n        /* \"--CODEGEN--\":52:55   */\n      dup3\n        /* \"--CODEGEN--\":45:68   */\n      sstore\n        /* \"--CODEGEN--\":79:89   */\n      dup1\n        /* \"--CODEGEN--\":72:89   */\n      swap2\n      pop\n        /* \"--CODEGEN--\":0:93   */\n      pop\n        /* \"systemTimeRegistration.sol\":640:671  addrRegistered.push(authorized) */\n      swap1\n      0x1\n      dup3\n      sub\n      swap1\n      0x0\n      mstore\n      keccak256(0x0, 0x20)\n      add\n      0x0\n      swap1\n      swap2\n      swap3\n      swap1\n      swap2\n      swap1\n      swap2\n      0x100\n      exp\n      dup2\n      sload\n      dup2\n      0xffffffffffffffffffffffffffffffffffffffff\n      mul\n      not\n      and\n      swap1\n      dup4\n      0xffffffffffffffffffffffffffffffffffffffff\n      and\n      mul\n      or\n      swap1\n      sstore\n      pop\n      pop\n        /* \"systemTimeRegistration.sol\":569:694  function register(address authorized) public onlyCoordinator {... */\n      pop\n      jump\t// out\n        /* \"systemTimeRegistration.sol\":911:977  function logStatus() view public onlyCoordinator {... */\n    tag_12:\n        /* \"systemTimeRegistration.sol\":533:544  coordinator */\n      0x0\n      dup1\n      swap1\n      sload\n      swap1\n      0x100\n      exp\n      swap1\n      div\n      0xffffffffffffffffffffffffffffffffffffffff\n      and\n        /* \"systemTimeRegistration.sol\":519:544  msg.sender == coordinator */\n      0xffffffffffffffffffffffffffffffffffffffff\n      and\n        /* \"systemTimeRegistration.sol\":519:529  msg.sender */\n      caller\n        /* \"systemTimeRegistration.sol\":519:544  msg.sender == coordinator */\n      0xffffffffffffffffffffffffffffffffffffffff\n      and\n      eq\n        /* \"systemTimeRegistration.sol\":511:545  require(msg.sender == coordinator) */\n      iszero\n      iszero\n      tag_27\n      jumpi\n      0x0\n      dup1\n      revert\n    tag_27:\n        /* \"systemTimeRegistration.sol\":911:977  function logStatus() view public onlyCoordinator {... */\n      jump\t// out\n        /* \"systemTimeRegistration.sol\":700:904  function registerMultiple(address[] authorized) public onlyCoordinator {... */\n    tag_15:\n        /* \"systemTimeRegistration.sol\":785:791  uint i */\n      0x0\n        /* \"systemTimeRegistration.sol\":533:544  coordinator */\n      dup1\n      0x0\n      swap1\n      sload\n      swap1\n      0x100\n      exp\n      swap1\n      div\n      0xffffffffffffffffffffffffffffffffffffffff\n      and\n        /* \"systemTimeRegistration.sol\":519:544  msg.sender == coordinator */\n      0xffffffffffffffffffffffffffffffffffffffff\n      and\n        /* \"systemTimeRegistration.sol\":519:529  msg.sender */\n      caller\n        /* \"systemTimeRegistration.sol\":519:544  msg.sender == coordinator */\n      0xffffffffffffffffffffffffffffffffffffffff\n      and\n      eq\n        /* \"systemTimeRegistration.sol\":511:545  require(msg.sender == coordinator) */\n      iszero\n      iszero\n      tag_30\n      jumpi\n      0x0\n      dup1\n      revert\n    tag_30:\n        /* \"systemTimeRegistration.sol\":794:795  0 */\n      0x0\n        /* \"systemTimeRegistration.sol\":785:795  uint i = 0 */\n      swap1\n      pop\n        /* \"systemTimeRegistration.sol\":781:872  for(uint i = 0; i <  authorized.length; i++)... */\n    tag_32:\n        /* \"systemTimeRegistration.sol\":802:812  authorized */\n      dup2\n        /* \"systemTimeRegistration.sol\":802:819  authorized.length */\n      mload\n        /* \"systemTimeRegistration.sol\":797:798  i */\n      dup2\n        /* \"systemTimeRegistration.sol\":797:819  i <  authorized.length */\n      lt\n        /* \"systemTimeRegistration.sol\":781:872  for(uint i = 0; i <  authorized.length; i++)... */\n      iszero\n      tag_33\n      jumpi\n        /* \"systemTimeRegistration.sol\":838:852  addrRegistered */\n      0x1\n        /* \"systemTimeRegistration.sol\":858:868  authorized */\n      dup3\n        /* \"systemTimeRegistration.sol\":869:870  i */\n      dup3\n        /* \"systemTimeRegistration.sol\":858:871  authorized[i] */\n      dup2\n      mload\n      dup2\n      lt\n      iszero\n      iszero\n      tag_35\n      jumpi\n      invalid\n    tag_35:\n      swap1\n      0x20\n      add\n      swap1\n      0x20\n      mul\n      add\n      mload\n        /* \"systemTimeRegistration.sol\":838:872  addrRegistered.push(authorized[i]) */\n      swap1\n      dup1\n        /* \"--CODEGEN--\":39:40   */\n      0x1\n        /* \"--CODEGEN--\":33:36   */\n      dup2\n        /* \"--CODEGEN--\":27:37   */\n      sload\n        /* \"--CODEGEN--\":23:41   */\n      add\n        /* \"--CODEGEN--\":57:67   */\n      dup1\n        /* \"--CODEGEN--\":52:55   */\n      dup3\n        /* \"--CODEGEN--\":45:68   */\n      sstore\n        /* \"--CODEGEN--\":79:89   */\n      dup1\n        /* \"--CODEGEN--\":72:89   */\n      swap2\n      pop\n        /* \"--CODEGEN--\":0:93   */\n      pop\n        /* \"systemTimeRegistration.sol\":838:872  addrRegistered.push(authorized[i]) */\n      swap1\n      0x1\n      dup3\n      sub\n      swap1\n      0x0\n      mstore\n      keccak256(0x0, 0x20)\n      add\n      0x0\n      swap1\n      swap2\n      swap3\n      swap1\n      swap2\n      swap1\n      swap2\n      0x100\n      exp\n      dup2\n      sload\n      dup2\n      0xffffffffffffffffffffffffffffffffffffffff\n      mul\n      not\n      and\n      swap1\n      dup4\n      0xffffffffffffffffffffffffffffffffffffffff\n      and\n      mul\n      or\n      swap1\n      sstore\n      pop\n      pop\n        /* \"systemTimeRegistration.sol\":821:824  i++ */\n      dup1\n      dup1\n      0x1\n      add\n      swap2\n      pop\n      pop\n        /* \"systemTimeRegistration.sol\":781:872  for(uint i = 0; i <  authorized.length; i++)... */\n      jump(tag_32)\n    tag_33:\n        /* \"systemTimeRegistration.sol\":700:904  function registerMultiple(address[] authorized) public onlyCoordinator {... */\n      pop\n      pop\n      jump\t// out\n        /* \"systemTimeRegistration.sol\":1228:1370  function start() public {... */\n    tag_18:\n        /* \"systemTimeRegistration.sol\":1293:1298  false */\n      0x0\n        /* \"systemTimeRegistration.sol\":1265:1298  isAuthorized(msg.sender) == false */\n      iszero\n      iszero\n        /* \"systemTimeRegistration.sol\":1265:1289  isAuthorized(msg.sender) */\n      tag_38\n        /* \"systemTimeRegistration.sol\":1278:1288  msg.sender */\n      caller\n        /* \"systemTimeRegistration.sol\":1265:1277  isAuthorized */\n      tag_39\n        /* \"systemTimeRegistration.sol\":1265:1289  isAuthorized(msg.sender) */\n      jump\t// in\n    tag_38:\n        /* \"systemTimeRegistration.sol\":1265:1298  isAuthorized(msg.sender) == false */\n      iszero\n      iszero\n      eq\n        /* \"systemTimeRegistration.sol\":1262:1319  if(isAuthorized(msg.sender) == false)... */\n      iszero\n      tag_40\n      jumpi\n        /* \"systemTimeRegistration.sol\":1312:1319  return; */\n      jump(tag_37)\n        /* \"systemTimeRegistration.sol\":1262:1319  if(isAuthorized(msg.sender) == false)... */\n    tag_40:\n        /* \"systemTimeRegistration.sol\":1360:1363  now */\n      timestamp\n        /* \"systemTimeRegistration.sol\":1329:1335  agents */\n      0x2\n        /* \"systemTimeRegistration.sol\":1329:1347  agents[msg.sender] */\n      0x0\n        /* \"systemTimeRegistration.sol\":1336:1346  msg.sender */\n      caller\n        /* \"systemTimeRegistration.sol\":1329:1347  agents[msg.sender] */\n      0xffffffffffffffffffffffffffffffffffffffff\n      and\n      0xffffffffffffffffffffffffffffffffffffffff\n      and\n      dup2\n      mstore\n      0x20\n      add\n      swap1\n      dup2\n      mstore\n      0x20\n      add\n      0x0\n      keccak256\n        /* \"systemTimeRegistration.sol\":1329:1357  agents[msg.sender].enterDate */\n      0x0\n      add\n        /* \"systemTimeRegistration.sol\":1329:1363  agents[msg.sender].enterDate = now */\n      dup2\n      swap1\n      sstore\n      pop\n        /* \"systemTimeRegistration.sol\":1228:1370  function start() public {... */\n    tag_37:\n      jump\t// out\n        /* \"systemTimeRegistration.sol\":1376:1648  function exit() public {... */\n    tag_21:\n        /* \"systemTimeRegistration.sol\":1440:1445  false */\n      0x0\n        /* \"systemTimeRegistration.sol\":1412:1445  isAuthorized(msg.sender) == false */\n      iszero\n      iszero\n        /* \"systemTimeRegistration.sol\":1412:1436  isAuthorized(msg.sender) */\n      tag_42\n        /* \"systemTimeRegistration.sol\":1425:1435  msg.sender */\n      caller\n        /* \"systemTimeRegistration.sol\":1412:1424  isAuthorized */\n      tag_39\n        /* \"systemTimeRegistration.sol\":1412:1436  isAuthorized(msg.sender) */\n      jump\t// in\n    tag_42:\n        /* \"systemTimeRegistration.sol\":1412:1445  isAuthorized(msg.sender) == false */\n      iszero\n      iszero\n      eq\n        /* \"systemTimeRegistration.sol\":1409:1466  if(isAuthorized(msg.sender) == false)... */\n      iszero\n      tag_43\n      jumpi\n        /* \"systemTimeRegistration.sol\":1459:1466  return; */\n      jump(tag_41)\n        /* \"systemTimeRegistration.sol\":1409:1466  if(isAuthorized(msg.sender) == false)... */\n    tag_43:\n        /* \"systemTimeRegistration.sol\":1506:1511  false */\n      0x0\n        /* \"systemTimeRegistration.sol\":1479:1511  agents[msg.sender].isIn == false */\n      iszero\n      iszero\n        /* \"systemTimeRegistration.sol\":1479:1485  agents */\n      0x2\n        /* \"systemTimeRegistration.sol\":1479:1497  agents[msg.sender] */\n      0x0\n        /* \"systemTimeRegistration.sol\":1486:1496  msg.sender */\n      caller\n        /* \"systemTimeRegistration.sol\":1479:1497  agents[msg.sender] */\n      0xffffffffffffffffffffffffffffffffffffffff\n      and\n      0xffffffffffffffffffffffffffffffffffffffff\n      and\n      dup2\n      mstore\n      0x20\n      add\n      swap1\n      dup2\n      mstore\n      0x20\n      add\n      0x0\n      keccak256\n        /* \"systemTimeRegistration.sol\":1479:1502  agents[msg.sender].isIn */\n      0x2\n      add\n      0x0\n      swap1\n      sload\n      swap1\n      0x100\n      exp\n      swap1\n      div\n      0xff\n      and\n        /* \"systemTimeRegistration.sol\":1479:1511  agents[msg.sender].isIn == false */\n      iszero\n      iszero\n      eq\n        /* \"systemTimeRegistration.sol\":1476:1532  if(agents[msg.sender].isIn == false)... */\n      iszero\n      tag_44\n      jumpi\n        /* \"systemTimeRegistration.sol\":1525:1532  return; */\n      jump(tag_41)\n        /* \"systemTimeRegistration.sol\":1476:1532  if(agents[msg.sender].isIn == false)... */\n    tag_44:\n        /* \"systemTimeRegistration.sol\":1580:1583  now */\n      timestamp\n        /* \"systemTimeRegistration.sol\":1550:1556  agents */\n      0x2\n        /* \"systemTimeRegistration.sol\":1550:1568  agents[msg.sender] */\n      0x0\n        /* \"systemTimeRegistration.sol\":1557:1567  msg.sender */\n      caller\n        /* \"systemTimeRegistration.sol\":1550:1568  agents[msg.sender] */\n      0xffffffffffffffffffffffffffffffffffffffff\n      and\n      0xffffffffffffffffffffffffffffffffffffffff\n      and\n      dup2\n      mstore\n      0x20\n      add\n      swap1\n      dup2\n      mstore\n      0x20\n      add\n      0x0\n      keccak256\n        /* \"systemTimeRegistration.sol\":1550:1577  agents[msg.sender].exitDate */\n      0x1\n      add\n        /* \"systemTimeRegistration.sol\":1550:1583  agents[msg.sender].exitDate = now */\n      dup2\n      swap1\n      sstore\n      pop\n        /* \"systemTimeRegistration.sol\":1619:1624  false */\n      0x0\n        /* \"systemTimeRegistration.sol\":1593:1599  agents */\n      0x2\n        /* \"systemTimeRegistration.sol\":1593:1611  agents[msg.sender] */\n      0x0\n        /* \"systemTimeRegistration.sol\":1600:1610  msg.sender */\n      caller\n        /* \"systemTimeRegistration.sol\":1593:1611  agents[msg.sender] */\n      0xffffffffffffffffffffffffffffffffffffffff\n      and\n      0xffffffffffffffffffffffffffffffffffffffff\n      and\n      dup2\n      mstore\n      0x20\n      add\n      swap1\n      dup2\n      mstore\n      0x20\n      add\n      0x0\n      keccak256\n        /* \"systemTimeRegistration.sol\":1593:1616  agents[msg.sender].isIn */\n      0x2\n      add\n      0x0\n        /* \"systemTimeRegistration.sol\":1593:1624  agents[msg.sender].isIn = false */\n      0x100\n      exp\n      dup2\n      sload\n      dup2\n      0xff\n      mul\n      not\n      and\n      swap1\n      dup4\n      iszero\n      iszero\n      mul\n      or\n      swap1\n      sstore\n      pop\n        /* \"systemTimeRegistration.sol\":1376:1648  function exit() public {... */\n    tag_41:\n      jump\t// out\n        /* \"systemTimeRegistration.sol\":984:1221  function isAuthorized(address caller) view private returns (bool _bool){... */\n    tag_39:\n        /* \"systemTimeRegistration.sol\":1044:1054  bool _bool */\n      0x0\n        /* \"systemTimeRegistration.sol\":1065:1071  uint i */\n      dup1\n        /* \"systemTimeRegistration.sol\":1074:1075  0 */\n      0x0\n        /* \"systemTimeRegistration.sol\":1065:1075  uint i = 0 */\n      swap1\n      pop\n        /* \"systemTimeRegistration.sol\":1086:1191  while(i < addrRegistered.length)... */\n    tag_46:\n        /* \"systemTimeRegistration.sol\":1096:1110  addrRegistered */\n      0x1\n        /* \"systemTimeRegistration.sol\":1096:1117  addrRegistered.length */\n      dup1\n      sload\n      swap1\n      pop\n        /* \"systemTimeRegistration.sol\":1092:1093  i */\n      dup2\n        /* \"systemTimeRegistration.sol\":1092:1117  i < addrRegistered.length */\n      lt\n        /* \"systemTimeRegistration.sol\":1086:1191  while(i < addrRegistered.length)... */\n      iszero\n      tag_47\n      jumpi\n        /* \"systemTimeRegistration.sol\":1155:1161  caller */\n      dup3\n        /* \"systemTimeRegistration.sol\":1134:1161  addrRegistered[i] == caller */\n      0xffffffffffffffffffffffffffffffffffffffff\n      and\n        /* \"systemTimeRegistration.sol\":1134:1148  addrRegistered */\n      0x1\n        /* \"systemTimeRegistration.sol\":1149:1150  i */\n      dup3\n        /* \"systemTimeRegistration.sol\":1134:1151  addrRegistered[i] */\n      dup2\n      sload\n      dup2\n      lt\n      iszero\n      iszero\n      tag_48\n      jumpi\n      invalid\n    tag_48:\n      swap1\n      0x0\n      mstore\n      keccak256(0x0, 0x20)\n      add\n      0x0\n      swap1\n      sload\n      swap1\n      0x100\n      exp\n      swap1\n      div\n      0xffffffffffffffffffffffffffffffffffffffff\n      and\n        /* \"systemTimeRegistration.sol\":1134:1161  addrRegistered[i] == caller */\n      0xffffffffffffffffffffffffffffffffffffffff\n      and\n      eq\n        /* \"systemTimeRegistration.sol\":1131:1191  if(addrRegistered[i] == caller)... */\n      iszero\n      tag_50\n      jumpi\n        /* \"systemTimeRegistration.sol\":1187:1191  true */\n      0x1\n        /* \"systemTimeRegistration.sol\":1179:1191  _bool = true */\n      swap2\n      pop\n        /* \"systemTimeRegistration.sol\":1131:1191  if(addrRegistered[i] == caller)... */\n    tag_50:\n        /* \"systemTimeRegistration.sol\":1086:1191  while(i < addrRegistered.length)... */\n      jump(tag_46)\n    tag_47:\n        /* \"systemTimeRegistration.sol\":1209:1214  _bool */\n      dup2\n        /* \"systemTimeRegistration.sol\":1202:1214  return _bool */\n      swap2\n      pop\n        /* \"systemTimeRegistration.sol\":984:1221  function isAuthorized(address caller) view private returns (bool _bool){... */\n      pop\n      swap2\n      swap1\n      pop\n      jump\t// out\n\n    auxdata: 0xa165627a7a7230582069e22ac2ac81c9f16d576bcd2aaf1450b1897c0ab3d6b62041bb5d6772c16f4f0029\n}\n",
				"bytecode": {
					"linkReferences": {},
					"object": "608060405234801561001057600080fd5b50336000806101000a81548173ffffffffffffffffffffffffffffffffffffffff021916908373ffffffffffffffffffffffffffffffffffffffff1602179055506105bf806100606000396000f30060806040526004361061006d576000357c0100000000000000000000000000000000000000000000000000000000900463ffffffff1680634420e4861461007257806371dd9322146100b5578063a3ba1116146100cc578063be9a655514610132578063e9fad8ee14610149575b600080fd5b34801561007e57600080fd5b506100b3600480360381019080803573ffffffffffffffffffffffffffffffffffffffff169060200190929190505050610160565b005b3480156100c157600080fd5b506100ca610224565b005b3480156100d857600080fd5b5061013060048036038101908080359060200190820180359060200190808060200260200160405190810160405280939291908181526020018383602002808284378201915050505050509192919290505050610281565b005b34801561013e57600080fd5b5061014761037a565b005b34801561015557600080fd5b5061015e6103de565b005b6000809054906101000a900473ffffffffffffffffffffffffffffffffffffffff1673ffffffffffffffffffffffffffffffffffffffff163373ffffffffffffffffffffffffffffffffffffffff161415156101bb57600080fd5b60018190806001815401808255809150509060018203906000526020600020016000909192909190916101000a81548173ffffffffffffffffffffffffffffffffffffffff021916908373ffffffffffffffffffffffffffffffffffffffff1602179055505050565b6000809054906101000a900473ffffffffffffffffffffffffffffffffffffffff1673ffffffffffffffffffffffffffffffffffffffff163373ffffffffffffffffffffffffffffffffffffffff1614151561027f57600080fd5b565b60008060009054906101000a900473ffffffffffffffffffffffffffffffffffffffff1673ffffffffffffffffffffffffffffffffffffffff163373ffffffffffffffffffffffffffffffffffffffff161415156102de57600080fd5b600090505b815181101561037657600182828151811015156102fc57fe5b9060200190602002015190806001815401808255809150509060018203906000526020600020016000909192909190916101000a81548173ffffffffffffffffffffffffffffffffffffffff021916908373ffffffffffffffffffffffffffffffffffffffff1602179055505080806001019150506102e3565b5050565b60001515610387336104fe565b15151415610394576103dc565b42600260003373ffffffffffffffffffffffffffffffffffffffff1673ffffffffffffffffffffffffffffffffffffffff168152602001908152602001600020600001819055505b565b600015156103eb336104fe565b151514156103f8576104fc565b60001515600260003373ffffffffffffffffffffffffffffffffffffffff1673ffffffffffffffffffffffffffffffffffffffff16815260200190815260200160002060020160009054906101000a900460ff1615151415610459576104fc565b42600260003373ffffffffffffffffffffffffffffffffffffffff1673ffffffffffffffffffffffffffffffffffffffff168152602001908152602001600020600101819055506000600260003373ffffffffffffffffffffffffffffffffffffffff1673ffffffffffffffffffffffffffffffffffffffff16815260200190815260200160002060020160006101000a81548160ff0219169083151502179055505b565b600080600090505b60018054905081101561058a578273ffffffffffffffffffffffffffffffffffffffff1660018281548110151561053957fe5b9060005260206000200160009054906101000a900473ffffffffffffffffffffffffffffffffffffffff1673ffffffffffffffffffffffffffffffffffffffff16141561058557600191505b610506565b819150509190505600a165627a7a7230582069e22ac2ac81c9f16d576bcd2aaf1450b1897c0ab3d6b62041bb5d6772c16f4f0029",
					"opcodes": "PUSH1 0x80 PUSH1 0x40 MSTORE CALLVALUE DUP1 ISZERO PUSH2 0x10 JUMPI PUSH1 0x0 DUP1 REVERT JUMPDEST POP CALLER PUSH1 0x0 DUP1 PUSH2 0x100 EXP DUP2 SLOAD DUP2 PUSH20 0xFFFFFFFFFFFFFFFFFFFFFFFFFFFFFFFFFFFFFFFF MUL NOT AND SWAP1 DUP4 PUSH20 0xFFFFFFFFFFFFFFFFFFFFFFFFFFFFFFFFFFFFFFFF AND MUL OR SWAP1 SSTORE POP PUSH2 0x5BF DUP1 PUSH2 0x60 PUSH1 0x0 CODECOPY PUSH1 0x0 RETURN STOP PUSH1 0x80 PUSH1 0x40 MSTORE PUSH1 0x4 CALLDATASIZE LT PUSH2 0x6D JUMPI PUSH1 0x0 CALLDATALOAD PUSH29 0x100000000000000000000000000000000000000000000000000000000 SWAP1 DIV PUSH4 0xFFFFFFFF AND DUP1 PUSH4 0x4420E486 EQ PUSH2 0x72 JUMPI DUP1 PUSH4 0x71DD9322 EQ PUSH2 0xB5 JUMPI DUP1 PUSH4 0xA3BA1116 EQ PUSH2 0xCC JUMPI DUP1 PUSH4 0xBE9A6555 EQ PUSH2 0x132 JUMPI DUP1 PUSH4 0xE9FAD8EE EQ PUSH2 0x149 JUMPI JUMPDEST PUSH1 0x0 DUP1 REVERT JUMPDEST CALLVALUE DUP1 ISZERO PUSH2 0x7E JUMPI PUSH1 0x0 DUP1 REVERT JUMPDEST POP PUSH2 0xB3 PUSH1 0x4 DUP1 CALLDATASIZE SUB DUP2 ADD SWAP1 DUP1 DUP1 CALLDATALOAD PUSH20 0xFFFFFFFFFFFFFFFFFFFFFFFFFFFFFFFFFFFFFFFF AND SWAP1 PUSH1 0x20 ADD SWAP1 SWAP3 SWAP2 SWAP1 POP POP POP PUSH2 0x160 JUMP JUMPDEST STOP JUMPDEST CALLVALUE DUP1 ISZERO PUSH2 0xC1 JUMPI PUSH1 0x0 DUP1 REVERT JUMPDEST POP PUSH2 0xCA PUSH2 0x224 JUMP JUMPDEST STOP JUMPDEST CALLVALUE DUP1 ISZERO PUSH2 0xD8 JUMPI PUSH1 0x0 DUP1 REVERT JUMPDEST POP PUSH2 0x130 PUSH1 0x4 DUP1 CALLDATASIZE SUB DUP2 ADD SWAP1 DUP1 DUP1 CALLDATALOAD SWAP1 PUSH1 0x20 ADD SWAP1 DUP3 ADD DUP1 CALLDATALOAD SWAP1 PUSH1 0x20 ADD SWAP1 DUP1 DUP1 PUSH1 0x20 MUL PUSH1 0x20 ADD PUSH1 0x40 MLOAD SWAP1 DUP2 ADD PUSH1 0x40 MSTORE DUP1 SWAP4 SWAP3 SWAP2 SWAP1 DUP2 DUP2 MSTORE PUSH1 0x20 ADD DUP4 DUP4 PUSH1 0x20 MUL DUP1 DUP3 DUP5 CALLDATACOPY DUP3 ADD SWAP2 POP POP POP POP POP POP SWAP2 SWAP3 SWAP2 SWAP3 SWAP1 POP POP POP PUSH2 0x281 JUMP JUMPDEST STOP JUMPDEST CALLVALUE DUP1 ISZERO PUSH2 0x13E JUMPI PUSH1 0x0 DUP1 REVERT JUMPDEST POP PUSH2 0x147 PUSH2 0x37A JUMP JUMPDEST STOP JUMPDEST CALLVALUE DUP1 ISZERO PUSH2 0x155 JUMPI PUSH1 0x0 DUP1 REVERT JUMPDEST POP PUSH2 0x15E PUSH2 0x3DE JUMP JUMPDEST STOP JUMPDEST PUSH1 0x0 DUP1 SWAP1 SLOAD SWAP1 PUSH2 0x100 EXP SWAP1 DIV PUSH20 0xFFFFFFFFFFFFFFFFFFFFFFFFFFFFFFFFFFFFFFFF AND PUSH20 0xFFFFFFFFFFFFFFFFFFFFFFFFFFFFFFFFFFFFFFFF AND CALLER PUSH20 0xFFFFFFFFFFFFFFFFFFFFFFFFFFFFFFFFFFFFFFFF AND EQ ISZERO ISZERO PUSH2 0x1BB JUMPI PUSH1 0x0 DUP1 REVERT JUMPDEST PUSH1 0x1 DUP2 SWAP1 DUP1 PUSH1 0x1 DUP2 SLOAD ADD DUP1 DUP3 SSTORE DUP1 SWAP2 POP POP SWAP1 PUSH1 0x1 DUP3 SUB SWAP1 PUSH1 0x0 MSTORE PUSH1 0x20 PUSH1 0x0 KECCAK256 ADD PUSH1 0x0 SWAP1 SWAP2 SWAP3 SWAP1 SWAP2 SWAP1 SWAP2 PUSH2 0x100 EXP DUP2 SLOAD DUP2 PUSH20 0xFFFFFFFFFFFFFFFFFFFFFFFFFFFFFFFFFFFFFFFF MUL NOT AND SWAP1 DUP4 PUSH20 0xFFFFFFFFFFFFFFFFFFFFFFFFFFFFFFFFFFFFFFFF AND MUL OR SWAP1 SSTORE POP POP POP JUMP JUMPDEST PUSH1 0x0 DUP1 SWAP1 SLOAD SWAP1 PUSH2 0x100 EXP SWAP1 DIV PUSH20 0xFFFFFFFFFFFFFFFFFFFFFFFFFFFFFFFFFFFFFFFF AND PUSH20 0xFFFFFFFFFFFFFFFFFFFFFFFFFFFFFFFFFFFFFFFF AND CALLER PUSH20 0xFFFFFFFFFFFFFFFFFFFFFFFFFFFFFFFFFFFFFFFF AND EQ ISZERO ISZERO PUSH2 0x27F JUMPI PUSH1 0x0 DUP1 REVERT JUMPDEST JUMP JUMPDEST PUSH1 0x0 DUP1 PUSH1 0x0 SWAP1 SLOAD SWAP1 PUSH2 0x100 EXP SWAP1 DIV PUSH20 0xFFFFFFFFFFFFFFFFFFFFFFFFFFFFFFFFFFFFFFFF AND PUSH20 0xFFFFFFFFFFFFFFFFFFFFFFFFFFFFFFFFFFFFFFFF AND CALLER PUSH20 0xFFFFFFFFFFFFFFFFFFFFFFFFFFFFFFFFFFFFFFFF AND EQ ISZERO ISZERO PUSH2 0x2DE JUMPI PUSH1 0x0 DUP1 REVERT JUMPDEST PUSH1 0x0 SWAP1 POP JUMPDEST DUP2 MLOAD DUP2 LT ISZERO PUSH2 0x376 JUMPI PUSH1 0x1 DUP3 DUP3 DUP2 MLOAD DUP2 LT ISZERO ISZERO PUSH2 0x2FC JUMPI INVALID JUMPDEST SWAP1 PUSH1 0x20 ADD SWAP1 PUSH1 0x20 MUL ADD MLOAD SWAP1 DUP1 PUSH1 0x1 DUP2 SLOAD ADD DUP1 DUP3 SSTORE DUP1 SWAP2 POP POP SWAP1 PUSH1 0x1 DUP3 SUB SWAP1 PUSH1 0x0 MSTORE PUSH1 0x20 PUSH1 0x0 KECCAK256 ADD PUSH1 0x0 SWAP1 SWAP2 SWAP3 SWAP1 SWAP2 SWAP1 SWAP2 PUSH2 0x100 EXP DUP2 SLOAD DUP2 PUSH20 0xFFFFFFFFFFFFFFFFFFFFFFFFFFFFFFFFFFFFFFFF MUL NOT AND SWAP1 DUP4 PUSH20 0xFFFFFFFFFFFFFFFFFFFFFFFFFFFFFFFFFFFFFFFF AND MUL OR SWAP1 SSTORE POP POP DUP1 DUP1 PUSH1 0x1 ADD SWAP2 POP POP PUSH2 0x2E3 JUMP JUMPDEST POP POP JUMP JUMPDEST PUSH1 0x0 ISZERO ISZERO PUSH2 0x387 CALLER PUSH2 0x4FE JUMP JUMPDEST ISZERO ISZERO EQ ISZERO PUSH2 0x394 JUMPI PUSH2 0x3DC JUMP JUMPDEST TIMESTAMP PUSH1 0x2 PUSH1 0x0 CALLER PUSH20 0xFFFFFFFFFFFFFFFFFFFFFFFFFFFFFFFFFFFFFFFF AND PUSH20 0xFFFFFFFFFFFFFFFFFFFFFFFFFFFFFFFFFFFFFFFF AND DUP2 MSTORE PUSH1 0x20 ADD SWAP1 DUP2 MSTORE PUSH1 0x20 ADD PUSH1 0x0 KECCAK256 PUSH1 0x0 ADD DUP2 SWAP1 SSTORE POP JUMPDEST JUMP JUMPDEST PUSH1 0x0 ISZERO ISZERO PUSH2 0x3EB CALLER PUSH2 0x4FE JUMP JUMPDEST ISZERO ISZERO EQ ISZERO PUSH2 0x3F8 JUMPI PUSH2 0x4FC JUMP JUMPDEST PUSH1 0x0 ISZERO ISZERO PUSH1 0x2 PUSH1 0x0 CALLER PUSH20 0xFFFFFFFFFFFFFFFFFFFFFFFFFFFFFFFFFFFFFFFF AND PUSH20 0xFFFFFFFFFFFFFFFFFFFFFFFFFFFFFFFFFFFFFFFF AND DUP2 MSTORE PUSH1 0x20 ADD SWAP1 DUP2 MSTORE PUSH1 0x20 ADD PUSH1 0x0 KECCAK256 PUSH1 0x2 ADD PUSH1 0x0 SWAP1 SLOAD SWAP1 PUSH2 0x100 EXP SWAP1 DIV PUSH1 0xFF AND ISZERO ISZERO EQ ISZERO PUSH2 0x459 JUMPI PUSH2 0x4FC JUMP JUMPDEST TIMESTAMP PUSH1 0x2 PUSH1 0x0 CALLER PUSH20 0xFFFFFFFFFFFFFFFFFFFFFFFFFFFFFFFFFFFFFFFF AND PUSH20 0xFFFFFFFFFFFFFFFFFFFFFFFFFFFFFFFFFFFFFFFF AND DUP2 MSTORE PUSH1 0x20 ADD SWAP1 DUP2 MSTORE PUSH1 0x20 ADD PUSH1 0x0 KECCAK256 PUSH1 0x1 ADD DUP2 SWAP1 SSTORE POP PUSH1 0x0 PUSH1 0x2 PUSH1 0x0 CALLER PUSH20 0xFFFFFFFFFFFFFFFFFFFFFFFFFFFFFFFFFFFFFFFF AND PUSH20 0xFFFFFFFFFFFFFFFFFFFFFFFFFFFFFFFFFFFFFFFF AND DUP2 MSTORE PUSH1 0x20 ADD SWAP1 DUP2 MSTORE PUSH1 0x20 ADD PUSH1 0x0 KECCAK256 PUSH1 0x2 ADD PUSH1 0x0 PUSH2 0x100 EXP DUP2 SLOAD DUP2 PUSH1 0xFF MUL NOT AND SWAP1 DUP4 ISZERO ISZERO MUL OR SWAP1 SSTORE POP JUMPDEST JUMP JUMPDEST PUSH1 0x0 DUP1 PUSH1 0x0 SWAP1 POP JUMPDEST PUSH1 0x1 DUP1 SLOAD SWAP1 POP DUP2 LT ISZERO PUSH2 0x58A JUMPI DUP3 PUSH20 0xFFFFFFFFFFFFFFFFFFFFFFFFFFFFFFFFFFFFFFFF AND PUSH1 0x1 DUP3 DUP2 SLOAD DUP2 LT ISZERO ISZERO PUSH2 0x539 JUMPI INVALID JUMPDEST SWAP1 PUSH1 0x0 MSTORE PUSH1 0x20 PUSH1 0x0 KECCAK256 ADD PUSH1 0x0 SWAP1 SLOAD SWAP1 PUSH2 0x100 EXP SWAP1 DIV PUSH20 0xFFFFFFFFFFFFFFFFFFFFFFFFFFFFFFFFFFFFFFFF AND PUSH20 0xFFFFFFFFFFFFFFFFFFFFFFFFFFFFFFFFFFFFFFFF AND EQ ISZERO PUSH2 0x585 JUMPI PUSH1 0x1 SWAP2 POP JUMPDEST PUSH2 0x506 JUMP JUMPDEST DUP2 SWAP2 POP POP SWAP2 SWAP1 POP JUMP STOP LOG1 PUSH6 0x627A7A723058 KECCAK256 PUSH10 0xE22AC2AC81C9F16D576B 0xcd 0x2a 0xaf EQ POP 0xb1 DUP10 PUSH29 0xAB3D6B62041BB5D6772C16F4F00290000000000000000000000000000 "
				},
				"gasEstimates": {
					"creation": {
						"codeDepositCost": "294200",
						"executionCost": "20597",
						"totalCost": "314797"
					},
					"external": {
						"exit()": "infinite",
						"logStatus()": "431",
						"register(address)": "41060",
						"registerMultiple(address[])": "infinite",
						"start()": "infinite"
					},
					"internal": {
						"isAuthorized(address)": "infinite"
					}
				},
				"methodIdentifiers": {
					"exit()": "e9fad8ee",
					"logStatus()": "71dd9322",
					"register(address)": "4420e486",
					"registerMultiple(address[])": "a3ba1116",
					"start()": "be9a6555"
				}
			},
			"userdoc": {
				"methods": {}
			}
		}
	}
}