{
	"learningExamples/simpleStorage.sol": {
		"integerStorage": {
			"abi": [
				{
					"constant": true,
					"inputs": [],
					"name": "storedData",
					"outputs": [
						{
							"name": "",
							"type": "uint256"
						}
					],
					"payable": false,
					"stateMutability": "view",
					"type": "function"
				},
				{
					"constant": false,
					"inputs": [
						{
							"name": "n",
							"type": "uint256"
						}
					],
					"name": "decrement",
					"outputs": [],
					"payable": false,
					"stateMutability": "nonpayable",
					"type": "function"
				},
				{
					"constant": false,
					"inputs": [
						{
							"name": "x",
							"type": "uint256"
						}
					],
					"name": "set",
					"outputs": [],
					"payable": false,
					"stateMutability": "nonpayable",
					"type": "function"
				},
				{
					"constant": true,
					"inputs": [],
					"name": "get",
					"outputs": [
						{
							"name": "",
							"type": "uint256"
						}
					],
					"payable": false,
					"stateMutability": "view",
					"type": "function"
				},
				{
					"constant": false,
					"inputs": [
						{
							"name": "n",
							"type": "uint256"
						}
					],
					"name": "increment",
					"outputs": [],
					"payable": false,
					"stateMutability": "nonpayable",
					"type": "function"
				}
			],
			"devdoc": {
				"methods": {}
			},
			"evm": {
				"assembly": "    /* \"learningExamples/simpleStorage.sol\":25:570  contract integerStorage {... */\n  mstore(0x40, 0x80)\n  callvalue\n    /* \"--CODEGEN--\":8:17   */\n  dup1\n    /* \"--CODEGEN--\":5:7   */\n  iszero\n  tag_1\n  jumpi\n    /* \"--CODEGEN--\":30:31   */\n  0x0\n    /* \"--CODEGEN--\":27:28   */\n  dup1\n    /* \"--CODEGEN--\":20:32   */\n  revert\n    /* \"--CODEGEN--\":5:7   */\ntag_1:\n    /* \"learningExamples/simpleStorage.sol\":25:570  contract integerStorage {... */\n  pop\n  dataSize(sub_0)\n  dup1\n  dataOffset(sub_0)\n  0x0\n  codecopy\n  0x0\n  return\nstop\n\nsub_0: assembly {\n        /* \"learningExamples/simpleStorage.sol\":25:570  contract integerStorage {... */\n      mstore(0x40, 0x80)\n      jumpi(tag_1, lt(calldatasize, 0x4))\n      calldataload(0x0)\n      0x100000000000000000000000000000000000000000000000000000000\n      swap1\n      div\n      0xffffffff\n      and\n      dup1\n      0x2a1afcd9\n      eq\n      tag_2\n      jumpi\n      dup1\n      0x3a9ebefd\n      eq\n      tag_3\n      jumpi\n      dup1\n      0x60fe47b1\n      eq\n      tag_4\n      jumpi\n      dup1\n      0x6d4ce63c\n      eq\n      tag_5\n      jumpi\n      dup1\n      0x7cf5dab0\n      eq\n      tag_6\n      jumpi\n    tag_1:\n      0x0\n      dup1\n      revert\n        /* \"learningExamples/simpleStorage.sol\":78:100  uint public storedData */\n    tag_2:\n      callvalue\n        /* \"--CODEGEN--\":8:17   */\n      dup1\n        /* \"--CODEGEN--\":5:7   */\n      iszero\n      tag_7\n      jumpi\n        /* \"--CODEGEN--\":30:31   */\n      0x0\n        /* \"--CODEGEN--\":27:28   */\n      dup1\n        /* \"--CODEGEN--\":20:32   */\n      revert\n        /* \"--CODEGEN--\":5:7   */\n    tag_7:\n        /* \"learningExamples/simpleStorage.sol\":78:100  uint public storedData */\n      pop\n      tag_8\n      jump(tag_9)\n    tag_8:\n      mload(0x40)\n      dup1\n      dup3\n      dup2\n      mstore\n      0x20\n      add\n      swap2\n      pop\n      pop\n      mload(0x40)\n      dup1\n      swap2\n      sub\n      swap1\n      return\n        /* \"learningExamples/simpleStorage.sol\":490:568  function decrement(uint n) public {... */\n    tag_3:\n      callvalue\n        /* \"--CODEGEN--\":8:17   */\n      dup1\n        /* \"--CODEGEN--\":5:7   */\n      iszero\n      tag_10\n      jumpi\n        /* \"--CODEGEN--\":30:31   */\n      0x0\n        /* \"--CODEGEN--\":27:28   */\n      dup1\n        /* \"--CODEGEN--\":20:32   */\n      revert\n        /* \"--CODEGEN--\":5:7   */\n    tag_10:\n        /* \"learningExamples/simpleStorage.sol\":490:568  function decrement(uint n) public {... */\n      pop\n      tag_11\n      0x4\n      dup1\n      calldatasize\n      sub\n      dup2\n      add\n      swap1\n      dup1\n      dup1\n      calldataload\n      swap1\n      0x20\n      add\n      swap1\n      swap3\n      swap2\n      swap1\n      pop\n      pop\n      pop\n      jump(tag_12)\n    tag_11:\n      stop\n        /* \"learningExamples/simpleStorage.sol\":163:221  function set(uint x) public{... */\n    tag_4:\n      callvalue\n        /* \"--CODEGEN--\":8:17   */\n      dup1\n        /* \"--CODEGEN--\":5:7   */\n      iszero\n      tag_13\n      jumpi\n        /* \"--CODEGEN--\":30:31   */\n      0x0\n        /* \"--CODEGEN--\":27:28   */\n      dup1\n        /* \"--CODEGEN--\":20:32   */\n      revert\n        /* \"--CODEGEN--\":5:7   */\n    tag_13:\n        /* \"learningExamples/simpleStorage.sol\":163:221  function set(uint x) public{... */\n      pop\n      tag_14\n      0x4\n      dup1\n      calldatasize\n      sub\n      dup2\n      add\n      swap1\n      dup1\n      dup1\n      calldataload\n      swap1\n      0x20\n      add\n      swap1\n      swap3\n      swap2\n      swap1\n      pop\n      pop\n      pop\n      jump(tag_15)\n    tag_14:\n      stop\n        /* \"learningExamples/simpleStorage.sol\":256:335  function get() constant public returns (uint){... */\n    tag_5:\n      callvalue\n        /* \"--CODEGEN--\":8:17   */\n      dup1\n        /* \"--CODEGEN--\":5:7   */\n      iszero\n      tag_16\n      jumpi\n        /* \"--CODEGEN--\":30:31   */\n      0x0\n        /* \"--CODEGEN--\":27:28   */\n      dup1\n        /* \"--CODEGEN--\":20:32   */\n      revert\n        /* \"--CODEGEN--\":5:7   */\n    tag_16:\n        /* \"learningExamples/simpleStorage.sol\":256:335  function get() constant public returns (uint){... */\n      pop\n      tag_17\n      jump(tag_18)\n    tag_17:\n      mload(0x40)\n      dup1\n      dup3\n      dup2\n      mstore\n      0x20\n      add\n      swap2\n      pop\n      pop\n      mload(0x40)\n      dup1\n      swap2\n      sub\n      swap1\n      return\n        /* \"learningExamples/simpleStorage.sol\":374:452  function increment(uint n) public {... */\n    tag_6:\n      callvalue\n        /* \"--CODEGEN--\":8:17   */\n      dup1\n        /* \"--CODEGEN--\":5:7   */\n      iszero\n      tag_19\n      jumpi\n        /* \"--CODEGEN--\":30:31   */\n      0x0\n        /* \"--CODEGEN--\":27:28   */\n      dup1\n        /* \"--CODEGEN--\":20:32   */\n      revert\n        /* \"--CODEGEN--\":5:7   */\n    tag_19:\n        /* \"learningExamples/simpleStorage.sol\":374:452  function increment(uint n) public {... */\n      pop\n      tag_20\n      0x4\n      dup1\n      calldatasize\n      sub\n      dup2\n      add\n      swap1\n      dup1\n      dup1\n      calldataload\n      swap1\n      0x20\n      add\n      swap1\n      swap3\n      swap2\n      swap1\n      pop\n      pop\n      pop\n      jump(tag_21)\n    tag_20:\n      stop\n        /* \"learningExamples/simpleStorage.sol\":78:100  uint public storedData */\n    tag_9:\n      sload(0x0)\n      dup2\n      jump\t// out\n        /* \"learningExamples/simpleStorage.sol\":490:568  function decrement(uint n) public {... */\n    tag_12:\n        /* \"learningExamples/simpleStorage.sol\":560:561  n */\n      dup1\n        /* \"learningExamples/simpleStorage.sol\":547:557  storedData */\n      sload(0x0)\n        /* \"learningExamples/simpleStorage.sol\":547:561  storedData - n */\n      sub\n        /* \"learningExamples/simpleStorage.sol\":534:544  storedData */\n      0x0\n        /* \"learningExamples/simpleStorage.sol\":534:561  storedData = storedData - n */\n      dup2\n      swap1\n      sstore\n      pop\n        /* \"learningExamples/simpleStorage.sol\":490:568  function decrement(uint n) public {... */\n      pop\n      jump\t// out\n        /* \"learningExamples/simpleStorage.sol\":163:221  function set(uint x) public{... */\n    tag_15:\n        /* \"learningExamples/simpleStorage.sol\":213:214  x */\n      dup1\n        /* \"learningExamples/simpleStorage.sol\":200:210  storedData */\n      0x0\n        /* \"learningExamples/simpleStorage.sol\":200:214  storedData = x */\n      dup2\n      swap1\n      sstore\n      pop\n        /* \"learningExamples/simpleStorage.sol\":163:221  function set(uint x) public{... */\n      pop\n      jump\t// out\n        /* \"learningExamples/simpleStorage.sol\":256:335  function get() constant public returns (uint){... */\n    tag_18:\n        /* \"learningExamples/simpleStorage.sol\":296:300  uint */\n      0x0\n        /* \"learningExamples/simpleStorage.sol\":318:328  storedData */\n      dup1\n      sload\n        /* \"learningExamples/simpleStorage.sol\":311:328  return storedData */\n      swap1\n      pop\n        /* \"learningExamples/simpleStorage.sol\":256:335  function get() constant public returns (uint){... */\n      swap1\n      jump\t// out\n        /* \"learningExamples/simpleStorage.sol\":374:452  function increment(uint n) public {... */\n    tag_21:\n        /* \"learningExamples/simpleStorage.sol\":444:445  n */\n      dup1\n        /* \"learningExamples/simpleStorage.sol\":431:441  storedData */\n      sload(0x0)\n        /* \"learningExamples/simpleStorage.sol\":431:445  storedData + n */\n      add\n        /* \"learningExamples/simpleStorage.sol\":418:428  storedData */\n      0x0\n        /* \"learningExamples/simpleStorage.sol\":418:445  storedData = storedData + n */\n      dup2\n      swap1\n      sstore\n      pop\n        /* \"learningExamples/simpleStorage.sol\":374:452  function increment(uint n) public {... */\n      pop\n      jump\t// out\n\n    auxdata: 0xa165627a7a723058203dd8a18f7380506cc40e3cbb04b699835c4e9ae256a83befa720859943619f830029\n}\n",
				"bytecode": {
					"linkReferences": {},
					"object": "608060405234801561001057600080fd5b506101b0806100206000396000f30060806040526004361061006d576000357c0100000000000000000000000000000000000000000000000000000000900463ffffffff1680632a1afcd9146100725780633a9ebefd1461009d57806360fe47b1146100ca5780636d4ce63c146100f75780637cf5dab014610122575b600080fd5b34801561007e57600080fd5b5061008761014f565b6040518082815260200191505060405180910390f35b3480156100a957600080fd5b506100c860048036038101908080359060200190929190505050610155565b005b3480156100d657600080fd5b506100f560048036038101908080359060200190929190505050610163565b005b34801561010357600080fd5b5061010c61016d565b6040518082815260200191505060405180910390f35b34801561012e57600080fd5b5061014d60048036038101908080359060200190929190505050610176565b005b60005481565b806000540360008190555050565b8060008190555050565b60008054905090565b8060005401600081905550505600a165627a7a723058203dd8a18f7380506cc40e3cbb04b699835c4e9ae256a83befa720859943619f830029",
					"opcodes": "PUSH1 0x80 PUSH1 0x40 MSTORE CALLVALUE DUP1 ISZERO PUSH2 0x10 JUMPI PUSH1 0x0 DUP1 REVERT JUMPDEST POP PUSH2 0x1B0 DUP1 PUSH2 0x20 PUSH1 0x0 CODECOPY PUSH1 0x0 RETURN STOP PUSH1 0x80 PUSH1 0x40 MSTORE PUSH1 0x4 CALLDATASIZE LT PUSH2 0x6D JUMPI PUSH1 0x0 CALLDATALOAD PUSH29 0x100000000000000000000000000000000000000000000000000000000 SWAP1 DIV PUSH4 0xFFFFFFFF AND DUP1 PUSH4 0x2A1AFCD9 EQ PUSH2 0x72 JUMPI DUP1 PUSH4 0x3A9EBEFD EQ PUSH2 0x9D JUMPI DUP1 PUSH4 0x60FE47B1 EQ PUSH2 0xCA JUMPI DUP1 PUSH4 0x6D4CE63C EQ PUSH2 0xF7 JUMPI DUP1 PUSH4 0x7CF5DAB0 EQ PUSH2 0x122 JUMPI JUMPDEST PUSH1 0x0 DUP1 REVERT JUMPDEST CALLVALUE DUP1 ISZERO PUSH2 0x7E JUMPI PUSH1 0x0 DUP1 REVERT JUMPDEST POP PUSH2 0x87 PUSH2 0x14F JUMP JUMPDEST PUSH1 0x40 MLOAD DUP1 DUP3 DUP2 MSTORE PUSH1 0x20 ADD SWAP2 POP POP PUSH1 0x40 MLOAD DUP1 SWAP2 SUB SWAP1 RETURN JUMPDEST CALLVALUE DUP1 ISZERO PUSH2 0xA9 JUMPI PUSH1 0x0 DUP1 REVERT JUMPDEST POP PUSH2 0xC8 PUSH1 0x4 DUP1 CALLDATASIZE SUB DUP2 ADD SWAP1 DUP1 DUP1 CALLDATALOAD SWAP1 PUSH1 0x20 ADD SWAP1 SWAP3 SWAP2 SWAP1 POP POP POP PUSH2 0x155 JUMP JUMPDEST STOP JUMPDEST CALLVALUE DUP1 ISZERO PUSH2 0xD6 JUMPI PUSH1 0x0 DUP1 REVERT JUMPDEST POP PUSH2 0xF5 PUSH1 0x4 DUP1 CALLDATASIZE SUB DUP2 ADD SWAP1 DUP1 DUP1 CALLDATALOAD SWAP1 PUSH1 0x20 ADD SWAP1 SWAP3 SWAP2 SWAP1 POP POP POP PUSH2 0x163 JUMP JUMPDEST STOP JUMPDEST CALLVALUE DUP1 ISZERO PUSH2 0x103 JUMPI PUSH1 0x0 DUP1 REVERT JUMPDEST POP PUSH2 0x10C PUSH2 0x16D JUMP JUMPDEST PUSH1 0x40 MLOAD DUP1 DUP3 DUP2 MSTORE PUSH1 0x20 ADD SWAP2 POP POP PUSH1 0x40 MLOAD DUP1 SWAP2 SUB SWAP1 RETURN JUMPDEST CALLVALUE DUP1 ISZERO PUSH2 0x12E JUMPI PUSH1 0x0 DUP1 REVERT JUMPDEST POP PUSH2 0x14D PUSH1 0x4 DUP1 CALLDATASIZE SUB DUP2 ADD SWAP1 DUP1 DUP1 CALLDATALOAD SWAP1 PUSH1 0x20 ADD SWAP1 SWAP3 SWAP2 SWAP1 POP POP POP PUSH2 0x176 JUMP JUMPDEST STOP JUMPDEST PUSH1 0x0 SLOAD DUP2 JUMP JUMPDEST DUP1 PUSH1 0x0 SLOAD SUB PUSH1 0x0 DUP2 SWAP1 SSTORE POP POP JUMP JUMPDEST DUP1 PUSH1 0x0 DUP2 SWAP1 SSTORE POP POP JUMP JUMPDEST PUSH1 0x0 DUP1 SLOAD SWAP1 POP SWAP1 JUMP JUMPDEST DUP1 PUSH1 0x0 SLOAD ADD PUSH1 0x0 DUP2 SWAP1 SSTORE POP POP JUMP STOP LOG1 PUSH6 0x627A7A723058 KECCAK256 RETURNDATASIZE 0xd8 LOG1 DUP16 PUSH20 0x80506CC40E3CBB04B699835C4E9AE256A83BEFA7 KECCAK256 DUP6 SWAP10 NUMBER PUSH2 0x9F83 STOP 0x29 "
				},
				"gasEstimates": {
					"creation": {
						"codeDepositCost": "86400",
						"executionCost": "135",
						"totalCost": "86535"
					},
					"external": {
						"decrement(uint256)": "20433",
						"get()": "468",
						"increment(uint256)": "20499",
						"set(uint256)": "20249",
						"storedData()": "394"
					}
				},
				"methodIdentifiers": {
					"decrement(uint256)": "3a9ebefd",
					"get()": "6d4ce63c",
					"increment(uint256)": "7cf5dab0",
					"set(uint256)": "60fe47b1",
					"storedData()": "2a1afcd9"
				}
			},
			"userdoc": {
				"methods": {}
			}
		}
	}
}