{
	"learningExamples/simpleStorage.sol": {
		"integerStorage": {
			"abi": [
				{
					"constant": false,
					"inputs": [
						{
							"name": "n",
							"type": "uint256"
						}
					],
					"name": "decrement",
					"outputs": [],
					"payable": false,
					"stateMutability": "nonpayable",
					"type": "function"
				},
				{
					"constant": false,
					"inputs": [
						{
							"name": "x",
							"type": "uint256"
						}
					],
					"name": "set",
					"outputs": [],
					"payable": false,
					"stateMutability": "nonpayable",
					"type": "function"
				},
				{
					"constant": true,
					"inputs": [],
					"name": "get",
					"outputs": [
						{
							"name": "",
							"type": "uint256"
						}
					],
					"payable": false,
					"stateMutability": "view",
					"type": "function"
				},
				{
					"constant": false,
					"inputs": [
						{
							"name": "n",
							"type": "uint256"
						}
					],
					"name": "increment",
					"outputs": [],
					"payable": false,
					"stateMutability": "nonpayable",
					"type": "function"
				}
			],
			"devdoc": {
				"methods": {}
			},
			"evm": {
				"assembly": "    /* \"learningExamples/simpleStorage.sol\":25:556  contract integerStorage {... */\n  mstore(0x40, 0x80)\n  callvalue\n    /* \"--CODEGEN--\":8:17   */\n  dup1\n    /* \"--CODEGEN--\":5:7   */\n  iszero\n  tag_1\n  jumpi\n    /* \"--CODEGEN--\":30:31   */\n  0x0\n    /* \"--CODEGEN--\":27:28   */\n  dup1\n    /* \"--CODEGEN--\":20:32   */\n  revert\n    /* \"--CODEGEN--\":5:7   */\ntag_1:\n    /* \"learningExamples/simpleStorage.sol\":25:556  contract integerStorage {... */\n  pop\n  dataSize(sub_0)\n  dup1\n  dataOffset(sub_0)\n  0x0\n  codecopy\n  0x0\n  return\nstop\n\nsub_0: assembly {\n        /* \"learningExamples/simpleStorage.sol\":25:556  contract integerStorage {... */\n      mstore(0x40, 0x80)\n      jumpi(tag_1, lt(calldatasize, 0x4))\n      calldataload(0x0)\n      0x100000000000000000000000000000000000000000000000000000000\n      swap1\n      div\n      0xffffffff\n      and\n      dup1\n      0x3a9ebefd\n      eq\n      tag_2\n      jumpi\n      dup1\n      0x60fe47b1\n      eq\n      tag_3\n      jumpi\n      dup1\n      0x6d4ce63c\n      eq\n      tag_4\n      jumpi\n      dup1\n      0x7cf5dab0\n      eq\n      tag_5\n      jumpi\n    tag_1:\n      0x0\n      dup1\n      revert\n        /* \"learningExamples/simpleStorage.sol\":476:554  function decrement(uint n) public {... */\n    tag_2:\n      callvalue\n        /* \"--CODEGEN--\":8:17   */\n      dup1\n        /* \"--CODEGEN--\":5:7   */\n      iszero\n      tag_6\n      jumpi\n        /* \"--CODEGEN--\":30:31   */\n      0x0\n        /* \"--CODEGEN--\":27:28   */\n      dup1\n        /* \"--CODEGEN--\":20:32   */\n      revert\n        /* \"--CODEGEN--\":5:7   */\n    tag_6:\n        /* \"learningExamples/simpleStorage.sol\":476:554  function decrement(uint n) public {... */\n      pop\n      tag_7\n      0x4\n      dup1\n      calldatasize\n      sub\n      dup2\n      add\n      swap1\n      dup1\n      dup1\n      calldataload\n      swap1\n      0x20\n      add\n      swap1\n      swap3\n      swap2\n      swap1\n      pop\n      pop\n      pop\n      jump(tag_8)\n    tag_7:\n      stop\n        /* \"learningExamples/simpleStorage.sol\":156:207  function set(uint x){... */\n    tag_3:\n      callvalue\n        /* \"--CODEGEN--\":8:17   */\n      dup1\n        /* \"--CODEGEN--\":5:7   */\n      iszero\n      tag_9\n      jumpi\n        /* \"--CODEGEN--\":30:31   */\n      0x0\n        /* \"--CODEGEN--\":27:28   */\n      dup1\n        /* \"--CODEGEN--\":20:32   */\n      revert\n        /* \"--CODEGEN--\":5:7   */\n    tag_9:\n        /* \"learningExamples/simpleStorage.sol\":156:207  function set(uint x){... */\n      pop\n      tag_10\n      0x4\n      dup1\n      calldatasize\n      sub\n      dup2\n      add\n      swap1\n      dup1\n      dup1\n      calldataload\n      swap1\n      0x20\n      add\n      swap1\n      swap3\n      swap2\n      swap1\n      pop\n      pop\n      pop\n      jump(tag_11)\n    tag_10:\n      stop\n        /* \"learningExamples/simpleStorage.sol\":242:321  function get() constant public returns (uint){... */\n    tag_4:\n      callvalue\n        /* \"--CODEGEN--\":8:17   */\n      dup1\n        /* \"--CODEGEN--\":5:7   */\n      iszero\n      tag_12\n      jumpi\n        /* \"--CODEGEN--\":30:31   */\n      0x0\n        /* \"--CODEGEN--\":27:28   */\n      dup1\n        /* \"--CODEGEN--\":20:32   */\n      revert\n        /* \"--CODEGEN--\":5:7   */\n    tag_12:\n        /* \"learningExamples/simpleStorage.sol\":242:321  function get() constant public returns (uint){... */\n      pop\n      tag_13\n      jump(tag_14)\n    tag_13:\n      mload(0x40)\n      dup1\n      dup3\n      dup2\n      mstore\n      0x20\n      add\n      swap2\n      pop\n      pop\n      mload(0x40)\n      dup1\n      swap2\n      sub\n      swap1\n      return\n        /* \"learningExamples/simpleStorage.sol\":360:438  function increment(uint n) public {... */\n    tag_5:\n      callvalue\n        /* \"--CODEGEN--\":8:17   */\n      dup1\n        /* \"--CODEGEN--\":5:7   */\n      iszero\n      tag_15\n      jumpi\n        /* \"--CODEGEN--\":30:31   */\n      0x0\n        /* \"--CODEGEN--\":27:28   */\n      dup1\n        /* \"--CODEGEN--\":20:32   */\n      revert\n        /* \"--CODEGEN--\":5:7   */\n    tag_15:\n        /* \"learningExamples/simpleStorage.sol\":360:438  function increment(uint n) public {... */\n      pop\n      tag_16\n      0x4\n      dup1\n      calldatasize\n      sub\n      dup2\n      add\n      swap1\n      dup1\n      dup1\n      calldataload\n      swap1\n      0x20\n      add\n      swap1\n      swap3\n      swap2\n      swap1\n      pop\n      pop\n      pop\n      jump(tag_17)\n    tag_16:\n      stop\n        /* \"learningExamples/simpleStorage.sol\":476:554  function decrement(uint n) public {... */\n    tag_8:\n        /* \"learningExamples/simpleStorage.sol\":546:547  n */\n      dup1\n        /* \"learningExamples/simpleStorage.sol\":533:543  storedData */\n      sload(0x0)\n        /* \"learningExamples/simpleStorage.sol\":533:547  storedData - n */\n      sub\n        /* \"learningExamples/simpleStorage.sol\":520:530  storedData */\n      0x0\n        /* \"learningExamples/simpleStorage.sol\":520:547  storedData = storedData - n */\n      dup2\n      swap1\n      sstore\n      pop\n        /* \"learningExamples/simpleStorage.sol\":476:554  function decrement(uint n) public {... */\n      pop\n      jump\t// out\n        /* \"learningExamples/simpleStorage.sol\":156:207  function set(uint x){... */\n    tag_11:\n        /* \"learningExamples/simpleStorage.sol\":199:200  x */\n      dup1\n        /* \"learningExamples/simpleStorage.sol\":186:196  storedData */\n      0x0\n        /* \"learningExamples/simpleStorage.sol\":186:200  storedData = x */\n      dup2\n      swap1\n      sstore\n      pop\n        /* \"learningExamples/simpleStorage.sol\":156:207  function set(uint x){... */\n      pop\n      jump\t// out\n        /* \"learningExamples/simpleStorage.sol\":242:321  function get() constant public returns (uint){... */\n    tag_14:\n        /* \"learningExamples/simpleStorage.sol\":282:286  uint */\n      0x0\n        /* \"learningExamples/simpleStorage.sol\":304:314  storedData */\n      dup1\n      sload\n        /* \"learningExamples/simpleStorage.sol\":297:314  return storedData */\n      swap1\n      pop\n        /* \"learningExamples/simpleStorage.sol\":242:321  function get() constant public returns (uint){... */\n      swap1\n      jump\t// out\n        /* \"learningExamples/simpleStorage.sol\":360:438  function increment(uint n) public {... */\n    tag_17:\n        /* \"learningExamples/simpleStorage.sol\":430:431  n */\n      dup1\n        /* \"learningExamples/simpleStorage.sol\":417:427  storedData */\n      sload(0x0)\n        /* \"learningExamples/simpleStorage.sol\":417:431  storedData + n */\n      add\n        /* \"learningExamples/simpleStorage.sol\":404:414  storedData */\n      0x0\n        /* \"learningExamples/simpleStorage.sol\":404:431  storedData = storedData + n */\n      dup2\n      swap1\n      sstore\n      pop\n        /* \"learningExamples/simpleStorage.sol\":360:438  function increment(uint n) public {... */\n      pop\n      jump\t// out\n\n    auxdata: 0xa165627a7a7230582003dd07a8c8833cdd9973d44ffc47b599819abb35ba0de5fdec1ced19d37080a40029\n}\n",
				"bytecode": {
					"linkReferences": {},
					"object": "608060405234801561001057600080fd5b50610174806100206000396000f300608060405260043610610062576000357c0100000000000000000000000000000000000000000000000000000000900463ffffffff1680633a9ebefd1461006757806360fe47b1146100945780636d4ce63c146100c15780637cf5dab0146100ec575b600080fd5b34801561007357600080fd5b5061009260048036038101908080359060200190929190505050610119565b005b3480156100a057600080fd5b506100bf60048036038101908080359060200190929190505050610127565b005b3480156100cd57600080fd5b506100d6610131565b6040518082815260200191505060405180910390f35b3480156100f857600080fd5b506101176004803603810190808035906020019092919050505061013a565b005b806000540360008190555050565b8060008190555050565b60008054905090565b8060005401600081905550505600a165627a7a7230582003dd07a8c8833cdd9973d44ffc47b599819abb35ba0de5fdec1ced19d37080a40029",
					"opcodes": "PUSH1 0x80 PUSH1 0x40 MSTORE CALLVALUE DUP1 ISZERO PUSH2 0x10 JUMPI PUSH1 0x0 DUP1 REVERT JUMPDEST POP PUSH2 0x174 DUP1 PUSH2 0x20 PUSH1 0x0 CODECOPY PUSH1 0x0 RETURN STOP PUSH1 0x80 PUSH1 0x40 MSTORE PUSH1 0x4 CALLDATASIZE LT PUSH2 0x62 JUMPI PUSH1 0x0 CALLDATALOAD PUSH29 0x100000000000000000000000000000000000000000000000000000000 SWAP1 DIV PUSH4 0xFFFFFFFF AND DUP1 PUSH4 0x3A9EBEFD EQ PUSH2 0x67 JUMPI DUP1 PUSH4 0x60FE47B1 EQ PUSH2 0x94 JUMPI DUP1 PUSH4 0x6D4CE63C EQ PUSH2 0xC1 JUMPI DUP1 PUSH4 0x7CF5DAB0 EQ PUSH2 0xEC JUMPI JUMPDEST PUSH1 0x0 DUP1 REVERT JUMPDEST CALLVALUE DUP1 ISZERO PUSH2 0x73 JUMPI PUSH1 0x0 DUP1 REVERT JUMPDEST POP PUSH2 0x92 PUSH1 0x4 DUP1 CALLDATASIZE SUB DUP2 ADD SWAP1 DUP1 DUP1 CALLDATALOAD SWAP1 PUSH1 0x20 ADD SWAP1 SWAP3 SWAP2 SWAP1 POP POP POP PUSH2 0x119 JUMP JUMPDEST STOP JUMPDEST CALLVALUE DUP1 ISZERO PUSH2 0xA0 JUMPI PUSH1 0x0 DUP1 REVERT JUMPDEST POP PUSH2 0xBF PUSH1 0x4 DUP1 CALLDATASIZE SUB DUP2 ADD SWAP1 DUP1 DUP1 CALLDATALOAD SWAP1 PUSH1 0x20 ADD SWAP1 SWAP3 SWAP2 SWAP1 POP POP POP PUSH2 0x127 JUMP JUMPDEST STOP JUMPDEST CALLVALUE DUP1 ISZERO PUSH2 0xCD JUMPI PUSH1 0x0 DUP1 REVERT JUMPDEST POP PUSH2 0xD6 PUSH2 0x131 JUMP JUMPDEST PUSH1 0x40 MLOAD DUP1 DUP3 DUP2 MSTORE PUSH1 0x20 ADD SWAP2 POP POP PUSH1 0x40 MLOAD DUP1 SWAP2 SUB SWAP1 RETURN JUMPDEST CALLVALUE DUP1 ISZERO PUSH2 0xF8 JUMPI PUSH1 0x0 DUP1 REVERT JUMPDEST POP PUSH2 0x117 PUSH1 0x4 DUP1 CALLDATASIZE SUB DUP2 ADD SWAP1 DUP1 DUP1 CALLDATALOAD SWAP1 PUSH1 0x20 ADD SWAP1 SWAP3 SWAP2 SWAP1 POP POP POP PUSH2 0x13A JUMP JUMPDEST STOP JUMPDEST DUP1 PUSH1 0x0 SLOAD SUB PUSH1 0x0 DUP2 SWAP1 SSTORE POP POP JUMP JUMPDEST DUP1 PUSH1 0x0 DUP2 SWAP1 SSTORE POP POP JUMP JUMPDEST PUSH1 0x0 DUP1 SLOAD SWAP1 POP SWAP1 JUMP JUMPDEST DUP1 PUSH1 0x0 SLOAD ADD PUSH1 0x0 DUP2 SWAP1 SSTORE POP POP JUMP STOP LOG1 PUSH6 0x627A7A723058 KECCAK256 SUB 0xdd SMOD 0xa8 0xc8 DUP4 EXTCODECOPY 0xdd SWAP10 PUSH20 0xD44FFC47B599819ABB35BA0DE5FDEC1CED19D370 DUP1 LOG4 STOP 0x29 "
				},
				"gasEstimates": {
					"creation": {
						"codeDepositCost": "74400",
						"executionCost": "123",
						"totalCost": "74523"
					},
					"external": {
						"decrement(uint256)": "20411",
						"get()": "446",
						"increment(uint256)": "20477",
						"set(uint256)": "20227"
					}
				},
				"methodIdentifiers": {
					"decrement(uint256)": "3a9ebefd",
					"get()": "6d4ce63c",
					"increment(uint256)": "7cf5dab0",
					"set(uint256)": "60fe47b1"
				}
			},
			"userdoc": {
				"methods": {}
			}
		}
	}
}