{
	"learningExamples/ballotV1.sol": {
		"Ballot": {
			"abi": [
				{
					"constant": false,
					"inputs": [
						{
							"name": "toVoter",
							"type": "address"
						}
					],
					"name": "register",
					"outputs": [],
					"payable": false,
					"stateMutability": "nonpayable",
					"type": "function"
				},
				{
					"constant": true,
					"inputs": [],
					"name": "winningProposal",
					"outputs": [
						{
							"name": "_winningProposal",
							"type": "uint8"
						}
					],
					"payable": false,
					"stateMutability": "view",
					"type": "function"
				},
				{
					"constant": false,
					"inputs": [
						{
							"name": "toProposal",
							"type": "uint8"
						}
					],
					"name": "vote",
					"outputs": [],
					"payable": false,
					"stateMutability": "nonpayable",
					"type": "function"
				},
				{
					"inputs": [
						{
							"name": "_numProposals",
							"type": "uint8"
						}
					],
					"payable": false,
					"stateMutability": "nonpayable",
					"type": "constructor"
				}
			],
			"devdoc": {
				"methods": {}
			},
			"evm": {
				"assembly": "    /* \"learningExamples/ballotV1.sol\":57:1704  contract Ballot {... */\n  mstore(0x40, 0x80)\n    /* \"learningExamples/ballotV1.sol\":489:652  constructor(uint8 _numProposals) public {... */\n  callvalue\n    /* \"--CODEGEN--\":8:17   */\n  dup1\n    /* \"--CODEGEN--\":5:7   */\n  iszero\n  tag_1\n  jumpi\n    /* \"--CODEGEN--\":30:31   */\n  0x0\n    /* \"--CODEGEN--\":27:28   */\n  dup1\n    /* \"--CODEGEN--\":20:32   */\n  revert\n    /* \"--CODEGEN--\":5:7   */\ntag_1:\n    /* \"learningExamples/ballotV1.sol\":489:652  constructor(uint8 _numProposals) public {... */\n  pop\n  mload(0x40)\n  0x20\n  dup1\n  bytecodeSize\n  dup4\n  codecopy\n  dup2\n  add\n  dup1\n  0x40\n  mstore\n  dup2\n  add\n  swap1\n  dup1\n  dup1\n  mload\n  swap1\n  0x20\n  add\n  swap1\n  swap3\n  swap2\n  swap1\n  pop\n  pop\n  pop\n    /* \"learningExamples/ballotV1.sol\":553:563  msg.sender */\n  caller\n    /* \"learningExamples/ballotV1.sol\":539:550  chairperson */\n  0x0\n  dup1\n    /* \"learningExamples/ballotV1.sol\":539:563  chairperson = msg.sender */\n  0x100\n  exp\n  dup2\n  sload\n  dup2\n  0xffffffffffffffffffffffffffffffffffffffff\n  mul\n  not\n  and\n  swap1\n  dup4\n  0xffffffffffffffffffffffffffffffffffffffff\n  and\n  mul\n  or\n  swap1\n  sstore\n  pop\n    /* \"learningExamples/ballotV1.sol\":602:603  2 */\n  0x2\n    /* \"learningExamples/ballotV1.sol\":573:579  voters */\n  0x1\n    /* \"learningExamples/ballotV1.sol\":573:592  voters[chairperson] */\n  0x0\n    /* \"learningExamples/ballotV1.sol\":580:591  chairperson */\n  dup1\n  0x0\n  swap1\n  sload\n  swap1\n  0x100\n  exp\n  swap1\n  div\n  0xffffffffffffffffffffffffffffffffffffffff\n  and\n    /* \"learningExamples/ballotV1.sol\":573:592  voters[chairperson] */\n  0xffffffffffffffffffffffffffffffffffffffff\n  and\n  0xffffffffffffffffffffffffffffffffffffffff\n  and\n  dup2\n  mstore\n  0x20\n  add\n  swap1\n  dup2\n  mstore\n  0x20\n  add\n  0x0\n  keccak256\n    /* \"learningExamples/ballotV1.sol\":573:599  voters[chairperson].weight */\n  0x0\n  add\n    /* \"learningExamples/ballotV1.sol\":573:603  voters[chairperson].weight = 2 */\n  dup2\n  swap1\n  sstore\n  pop\n    /* \"learningExamples/ballotV1.sol\":632:645  _numProposals */\n  dup1\n    /* \"learningExamples/ballotV1.sol\":613:645  proposals.length = _numProposals */\n  0xff\n  and\n    /* \"learningExamples/ballotV1.sol\":613:622  proposals */\n  0x2\n    /* \"learningExamples/ballotV1.sol\":613:645  proposals.length = _numProposals */\n  dup2\n  tag_4\n  swap2\n  swap1\n  jump\t// in(tag_5)\ntag_4:\n  pop\n    /* \"learningExamples/ballotV1.sol\":489:652  constructor(uint8 _numProposals) public {... */\n  pop\n    /* \"learningExamples/ballotV1.sol\":57:1704  contract Ballot {... */\n  jump(tag_6)\ntag_5:\n  dup2\n  sload\n  dup2\n  dup4\n  sstore\n  dup2\n  dup2\n  gt\n  iszero\n  tag_7\n  jumpi\n  dup2\n  dup4\n  0x0\n  mstore\n  keccak256(0x0, 0x20)\n  swap2\n  dup3\n  add\n  swap2\n  add\n  tag_8\n  swap2\n  swap1\n  jump\t// in(tag_9)\ntag_8:\ntag_7:\n  pop\n  pop\n  pop\n  jump\t// out\ntag_9:\n  tag_10\n  swap2\n  swap1\ntag_11:\n  dup1\n  dup3\n  gt\n  iszero\n  tag_12\n  jumpi\n  0x0\n  dup1\n  dup3\n  add\n  0x0\n  swap1\n  sstore\n  pop\n  0x1\n  add\n  jump(tag_11)\ntag_12:\n  pop\n  swap1\n  jump\ntag_10:\n  swap1\n  jump\t// out\ntag_6:\n  dataSize(sub_0)\n  dup1\n  dataOffset(sub_0)\n  0x0\n  codecopy\n  0x0\n  return\nstop\n\nsub_0: assembly {\n        /* \"learningExamples/ballotV1.sol\":57:1704  contract Ballot {... */\n      mstore(0x40, 0x80)\n      jumpi(tag_1, lt(calldatasize, 0x4))\n      calldataload(0x0)\n      0x100000000000000000000000000000000000000000000000000000000\n      swap1\n      div\n      0xffffffff\n      and\n      dup1\n      0x4420e486\n      eq\n      tag_2\n      jumpi\n      dup1\n      0x609ff1bd\n      eq\n      tag_3\n      jumpi\n      dup1\n      0xb3f98adc\n      eq\n      tag_4\n      jumpi\n    tag_1:\n      0x0\n      dup1\n      revert\n        /* \"learningExamples/ballotV1.sol\":694:922  function register(address toVoter) public {... */\n    tag_2:\n      callvalue\n        /* \"--CODEGEN--\":8:17   */\n      dup1\n        /* \"--CODEGEN--\":5:7   */\n      iszero\n      tag_5\n      jumpi\n        /* \"--CODEGEN--\":30:31   */\n      0x0\n        /* \"--CODEGEN--\":27:28   */\n      dup1\n        /* \"--CODEGEN--\":20:32   */\n      revert\n        /* \"--CODEGEN--\":5:7   */\n    tag_5:\n        /* \"learningExamples/ballotV1.sol\":694:922  function register(address toVoter) public {... */\n      pop\n      tag_6\n      0x4\n      dup1\n      calldatasize\n      sub\n      dup2\n      add\n      swap1\n      dup1\n      dup1\n      calldataload\n      0xffffffffffffffffffffffffffffffffffffffff\n      and\n      swap1\n      0x20\n      add\n      swap1\n      swap3\n      swap2\n      swap1\n      pop\n      pop\n      pop\n      jump(tag_7)\n    tag_6:\n      stop\n        /* \"learningExamples/ballotV1.sol\":1269:1702  function winningProposal() public constant returns (uint8 _winningProposal) {... */\n    tag_3:\n      callvalue\n        /* \"--CODEGEN--\":8:17   */\n      dup1\n        /* \"--CODEGEN--\":5:7   */\n      iszero\n      tag_8\n      jumpi\n        /* \"--CODEGEN--\":30:31   */\n      0x0\n        /* \"--CODEGEN--\":27:28   */\n      dup1\n        /* \"--CODEGEN--\":20:32   */\n      revert\n        /* \"--CODEGEN--\":5:7   */\n    tag_8:\n        /* \"learningExamples/ballotV1.sol\":1269:1702  function winningProposal() public constant returns (uint8 _winningProposal) {... */\n      pop\n      tag_9\n      jump(tag_10)\n    tag_9:\n      mload(0x40)\n      dup1\n      dup3\n      0xff\n      and\n      0xff\n      and\n      dup2\n      mstore\n      0x20\n      add\n      swap2\n      pop\n      pop\n      mload(0x40)\n      dup1\n      swap2\n      sub\n      swap1\n      return\n        /* \"learningExamples/ballotV1.sol\":965:1262  function vote(uint8 toProposal) public {... */\n    tag_4:\n      callvalue\n        /* \"--CODEGEN--\":8:17   */\n      dup1\n        /* \"--CODEGEN--\":5:7   */\n      iszero\n      tag_11\n      jumpi\n        /* \"--CODEGEN--\":30:31   */\n      0x0\n        /* \"--CODEGEN--\":27:28   */\n      dup1\n        /* \"--CODEGEN--\":20:32   */\n      revert\n        /* \"--CODEGEN--\":5:7   */\n    tag_11:\n        /* \"learningExamples/ballotV1.sol\":965:1262  function vote(uint8 toProposal) public {... */\n      pop\n      tag_12\n      0x4\n      dup1\n      calldatasize\n      sub\n      dup2\n      add\n      swap1\n      dup1\n      dup1\n      calldataload\n      0xff\n      and\n      swap1\n      0x20\n      add\n      swap1\n      swap3\n      swap2\n      swap1\n      pop\n      pop\n      pop\n      jump(tag_13)\n    tag_12:\n      stop\n        /* \"learningExamples/ballotV1.sol\":694:922  function register(address toVoter) public {... */\n    tag_7:\n        /* \"learningExamples/ballotV1.sol\":763:774  chairperson */\n      0x0\n      dup1\n      swap1\n      sload\n      swap1\n      0x100\n      exp\n      swap1\n      div\n      0xffffffffffffffffffffffffffffffffffffffff\n      and\n        /* \"learningExamples/ballotV1.sol\":749:774  msg.sender != chairperson */\n      0xffffffffffffffffffffffffffffffffffffffff\n      and\n        /* \"learningExamples/ballotV1.sol\":749:759  msg.sender */\n      caller\n        /* \"learningExamples/ballotV1.sol\":749:774  msg.sender != chairperson */\n      0xffffffffffffffffffffffffffffffffffffffff\n      and\n      eq\n      iszero\n        /* \"learningExamples/ballotV1.sol\":749:799  msg.sender != chairperson || voters[toVoter].voted */\n      dup1\n      tag_15\n      jumpi\n      pop\n        /* \"learningExamples/ballotV1.sol\":778:784  voters */\n      0x1\n        /* \"learningExamples/ballotV1.sol\":778:793  voters[toVoter] */\n      0x0\n        /* \"learningExamples/ballotV1.sol\":785:792  toVoter */\n      dup3\n        /* \"learningExamples/ballotV1.sol\":778:793  voters[toVoter] */\n      0xffffffffffffffffffffffffffffffffffffffff\n      and\n      0xffffffffffffffffffffffffffffffffffffffff\n      and\n      dup2\n      mstore\n      0x20\n      add\n      swap1\n      dup2\n      mstore\n      0x20\n      add\n      0x0\n      keccak256\n        /* \"learningExamples/ballotV1.sol\":778:799  voters[toVoter].voted */\n      0x1\n      add\n      0x0\n      swap1\n      sload\n      swap1\n      0x100\n      exp\n      swap1\n      div\n      0xff\n      and\n        /* \"learningExamples/ballotV1.sol\":749:799  msg.sender != chairperson || voters[toVoter].voted */\n    tag_15:\n        /* \"learningExamples/ballotV1.sol\":746:841  if(msg.sender != chairperson || voters[toVoter].voted) //   Only chairman!!... */\n      iszero\n      tag_16\n      jumpi\n        /* \"learningExamples/ballotV1.sol\":834:841  return; */\n      jump(tag_14)\n        /* \"learningExamples/ballotV1.sol\":746:841  if(msg.sender != chairperson || voters[toVoter].voted) //   Only chairman!!... */\n    tag_16:\n        /* \"learningExamples/ballotV1.sol\":875:876  1 */\n      0x1\n        /* \"learningExamples/ballotV1.sol\":850:856  voters */\n      dup1\n        /* \"learningExamples/ballotV1.sol\":850:865  voters[toVoter] */\n      0x0\n        /* \"learningExamples/ballotV1.sol\":857:864  toVoter */\n      dup4\n        /* \"learningExamples/ballotV1.sol\":850:865  voters[toVoter] */\n      0xffffffffffffffffffffffffffffffffffffffff\n      and\n      0xffffffffffffffffffffffffffffffffffffffff\n      and\n      dup2\n      mstore\n      0x20\n      add\n      swap1\n      dup2\n      mstore\n      0x20\n      add\n      0x0\n      keccak256\n        /* \"learningExamples/ballotV1.sol\":850:872  voters[toVoter].weight */\n      0x0\n      add\n        /* \"learningExamples/ballotV1.sol\":850:876  voters[toVoter].weight = 1 */\n      dup2\n      swap1\n      sstore\n      pop\n        /* \"learningExamples/ballotV1.sol\":910:915  false */\n      0x0\n        /* \"learningExamples/ballotV1.sol\":886:892  voters */\n      0x1\n        /* \"learningExamples/ballotV1.sol\":886:901  voters[toVoter] */\n      0x0\n        /* \"learningExamples/ballotV1.sol\":893:900  toVoter */\n      dup4\n        /* \"learningExamples/ballotV1.sol\":886:901  voters[toVoter] */\n      0xffffffffffffffffffffffffffffffffffffffff\n      and\n      0xffffffffffffffffffffffffffffffffffffffff\n      and\n      dup2\n      mstore\n      0x20\n      add\n      swap1\n      dup2\n      mstore\n      0x20\n      add\n      0x0\n      keccak256\n        /* \"learningExamples/ballotV1.sol\":886:907  voters[toVoter].voted */\n      0x1\n      add\n      0x0\n        /* \"learningExamples/ballotV1.sol\":886:915  voters[toVoter].voted = false */\n      0x100\n      exp\n      dup2\n      sload\n      dup2\n      0xff\n      mul\n      not\n      and\n      swap1\n      dup4\n      iszero\n      iszero\n      mul\n      or\n      swap1\n      sstore\n      pop\n        /* \"learningExamples/ballotV1.sol\":694:922  function register(address toVoter) public {... */\n    tag_14:\n      pop\n      jump\t// out\n        /* \"learningExamples/ballotV1.sol\":1269:1702  function winningProposal() public constant returns (uint8 _winningProposal) {... */\n    tag_10:\n        /* \"learningExamples/ballotV1.sol\":1321:1343  uint8 _winningProposal */\n      0x0\n        /* \"learningExamples/ballotV1.sol\":1355:1379  uint256 winningVoteCount */\n      dup1\n        /* \"learningExamples/ballotV1.sol\":1401:1411  uint8 prop */\n      0x0\n        /* \"learningExamples/ballotV1.sol\":1382:1383  0 */\n      dup1\n        /* \"learningExamples/ballotV1.sol\":1355:1383  uint256 winningVoteCount = 0 */\n      swap2\n      pop\n        /* \"learningExamples/ballotV1.sol\":1414:1415  0 */\n      0x0\n        /* \"learningExamples/ballotV1.sol\":1401:1415  uint8 prop = 0 */\n      swap1\n      pop\n        /* \"learningExamples/ballotV1.sol\":1397:1663  for(uint8 prop = 0; prop < proposals.length; prop++){... */\n    tag_18:\n        /* \"learningExamples/ballotV1.sol\":1424:1433  proposals */\n      0x2\n        /* \"learningExamples/ballotV1.sol\":1424:1440  proposals.length */\n      dup1\n      sload\n      swap1\n      pop\n        /* \"learningExamples/ballotV1.sol\":1417:1421  prop */\n      dup2\n        /* \"learningExamples/ballotV1.sol\":1417:1440  prop < proposals.length */\n      0xff\n      and\n      lt\n        /* \"learningExamples/ballotV1.sol\":1397:1663  for(uint8 prop = 0; prop < proposals.length; prop++){... */\n      iszero\n      tag_19\n      jumpi\n        /* \"learningExamples/ballotV1.sol\":1498:1514  winningVoteCount */\n      dup2\n        /* \"learningExamples/ballotV1.sol\":1470:1479  proposals */\n      0x2\n        /* \"learningExamples/ballotV1.sol\":1480:1484  prop */\n      dup3\n        /* \"learningExamples/ballotV1.sol\":1470:1485  proposals[prop] */\n      0xff\n      and\n      dup2\n      sload\n      dup2\n      lt\n      iszero\n      iszero\n      tag_21\n      jumpi\n      invalid\n    tag_21:\n      swap1\n      0x0\n      mstore\n      keccak256(0x0, 0x20)\n      add\n        /* \"learningExamples/ballotV1.sol\":1470:1495  proposals[prop].voteCount */\n      0x0\n      add\n      sload\n        /* \"learningExamples/ballotV1.sol\":1470:1514  proposals[prop].voteCount > winningVoteCount */\n      gt\n        /* \"learningExamples/ballotV1.sol\":1467:1647  if(proposals[prop].voteCount > winningVoteCount){... */\n      iszero\n      tag_23\n      jumpi\n        /* \"learningExamples/ballotV1.sol\":1556:1565  proposals */\n      0x2\n        /* \"learningExamples/ballotV1.sol\":1566:1570  prop */\n      dup2\n        /* \"learningExamples/ballotV1.sol\":1556:1571  proposals[prop] */\n      0xff\n      and\n      dup2\n      sload\n      dup2\n      lt\n      iszero\n      iszero\n      tag_24\n      jumpi\n      invalid\n    tag_24:\n      swap1\n      0x0\n      mstore\n      keccak256(0x0, 0x20)\n      add\n        /* \"learningExamples/ballotV1.sol\":1556:1581  proposals[prop].voteCount */\n      0x0\n      add\n      sload\n        /* \"learningExamples/ballotV1.sol\":1537:1581  winningVoteCount = proposals[prop].voteCount */\n      swap2\n      pop\n        /* \"learningExamples/ballotV1.sol\":1624:1628  prop */\n      dup1\n        /* \"learningExamples/ballotV1.sol\":1605:1628  _winningProposal = prop */\n      swap3\n      pop\n        /* \"learningExamples/ballotV1.sol\":1467:1647  if(proposals[prop].voteCount > winningVoteCount){... */\n    tag_23:\n        /* \"learningExamples/ballotV1.sol\":1442:1448  prop++ */\n      dup1\n      dup1\n      0x1\n      add\n      swap2\n      pop\n      pop\n        /* \"learningExamples/ballotV1.sol\":1397:1663  for(uint8 prop = 0; prop < proposals.length; prop++){... */\n      jump(tag_18)\n    tag_19:\n        /* \"learningExamples/ballotV1.sol\":1679:1695  _winningProposal */\n      dup3\n        /* \"learningExamples/ballotV1.sol\":1672:1695  return _winningProposal */\n      swap3\n      pop\n        /* \"learningExamples/ballotV1.sol\":1269:1702  function winningProposal() public constant returns (uint8 _winningProposal) {... */\n      pop\n      pop\n      swap1\n      jump\t// out\n        /* \"learningExamples/ballotV1.sol\":965:1262  function vote(uint8 toProposal) public {... */\n    tag_13:\n        /* \"learningExamples/ballotV1.sol\":1014:1034  Voter storage sender */\n      0x0\n        /* \"learningExamples/ballotV1.sol\":1037:1043  voters */\n      0x1\n        /* \"learningExamples/ballotV1.sol\":1037:1055  voters[msg.sender] */\n      0x0\n        /* \"learningExamples/ballotV1.sol\":1044:1054  msg.sender */\n      caller\n        /* \"learningExamples/ballotV1.sol\":1037:1055  voters[msg.sender] */\n      0xffffffffffffffffffffffffffffffffffffffff\n      and\n      0xffffffffffffffffffffffffffffffffffffffff\n      and\n      dup2\n      mstore\n      0x20\n      add\n      swap1\n      dup2\n      mstore\n      0x20\n      add\n      0x0\n      keccak256\n        /* \"learningExamples/ballotV1.sol\":1014:1055  Voter storage sender = voters[msg.sender] */\n      swap1\n      pop\n        /* \"learningExamples/ballotV1.sol\":1068:1074  sender */\n      dup1\n        /* \"learningExamples/ballotV1.sol\":1068:1080  sender.voted */\n      0x1\n      add\n      0x0\n      swap1\n      sload\n      swap1\n      0x100\n      exp\n      swap1\n      div\n      0xff\n      and\n        /* \"learningExamples/ballotV1.sol\":1068:1114  sender.voted || toProposal >= proposals.length */\n      dup1\n      tag_27\n      jumpi\n      pop\n        /* \"learningExamples/ballotV1.sol\":1098:1107  proposals */\n      0x2\n        /* \"learningExamples/ballotV1.sol\":1098:1114  proposals.length */\n      dup1\n      sload\n      swap1\n      pop\n        /* \"learningExamples/ballotV1.sol\":1084:1094  toProposal */\n      dup3\n        /* \"learningExamples/ballotV1.sol\":1084:1114  toProposal >= proposals.length */\n      0xff\n      and\n      lt\n      iszero\n        /* \"learningExamples/ballotV1.sol\":1068:1114  sender.voted || toProposal >= proposals.length */\n    tag_27:\n        /* \"learningExamples/ballotV1.sol\":1065:1135  if(sender.voted || toProposal >= proposals.length)... */\n      iszero\n      tag_28\n      jumpi\n        /* \"learningExamples/ballotV1.sol\":1128:1135  return; */\n      jump(tag_26)\n        /* \"learningExamples/ballotV1.sol\":1065:1135  if(sender.voted || toProposal >= proposals.length)... */\n    tag_28:\n        /* \"learningExamples/ballotV1.sol\":1159:1163  true */\n      0x1\n        /* \"learningExamples/ballotV1.sol\":1144:1150  sender */\n      dup2\n        /* \"learningExamples/ballotV1.sol\":1144:1156  sender.voted */\n      0x1\n      add\n      0x0\n        /* \"learningExamples/ballotV1.sol\":1144:1163  sender.voted = true */\n      0x100\n      exp\n      dup2\n      sload\n      dup2\n      0xff\n      mul\n      not\n      and\n      swap1\n      dup4\n      iszero\n      iszero\n      mul\n      or\n      swap1\n      sstore\n      pop\n        /* \"learningExamples/ballotV1.sol\":1187:1197  toProposal */\n      dup2\n        /* \"learningExamples/ballotV1.sol\":1173:1179  sender */\n      dup2\n        /* \"learningExamples/ballotV1.sol\":1173:1184  sender.vote */\n      0x1\n      add\n      0x1\n        /* \"learningExamples/ballotV1.sol\":1173:1197  sender.vote = toProposal */\n      0x100\n      exp\n      dup2\n      sload\n      dup2\n      0xff\n      mul\n      not\n      and\n      swap1\n      dup4\n      0xff\n      and\n      mul\n      or\n      swap1\n      sstore\n      pop\n        /* \"learningExamples/ballotV1.sol\":1242:1248  sender */\n      dup1\n        /* \"learningExamples/ballotV1.sol\":1242:1255  sender.weight */\n      0x0\n      add\n      sload\n        /* \"learningExamples/ballotV1.sol\":1207:1216  proposals */\n      0x2\n        /* \"learningExamples/ballotV1.sol\":1217:1227  toProposal */\n      dup4\n        /* \"learningExamples/ballotV1.sol\":1207:1228  proposals[toProposal] */\n      0xff\n      and\n      dup2\n      sload\n      dup2\n      lt\n      iszero\n      iszero\n      tag_29\n      jumpi\n      invalid\n    tag_29:\n      swap1\n      0x0\n      mstore\n      keccak256(0x0, 0x20)\n      add\n        /* \"learningExamples/ballotV1.sol\":1207:1238  proposals[toProposal].voteCount */\n      0x0\n      add\n      0x0\n        /* \"learningExamples/ballotV1.sol\":1207:1255  proposals[toProposal].voteCount += sender.weight */\n      dup3\n      dup3\n      sload\n      add\n      swap3\n      pop\n      pop\n      dup2\n      swap1\n      sstore\n      pop\n        /* \"learningExamples/ballotV1.sol\":965:1262  function vote(uint8 toProposal) public {... */\n    tag_26:\n      pop\n      pop\n      jump\t// out\n\n    auxdata: 0xa165627a7a723058201d1b0c643d6f0575acbf091f18eebad0e93e089e7afd7103a07fa292649f7ff00029\n}\n",
				"bytecode": {
					"linkReferences": {},
					"object": "608060405234801561001057600080fd5b5060405160208061053b83398101806040528101908080519060200190929190505050336000806101000a81548173ffffffffffffffffffffffffffffffffffffffff021916908373ffffffffffffffffffffffffffffffffffffffff1602179055506002600160008060009054906101000a900473ffffffffffffffffffffffffffffffffffffffff1673ffffffffffffffffffffffffffffffffffffffff1673ffffffffffffffffffffffffffffffffffffffff168152602001908152602001600020600001819055508060ff166002816100ed91906100f4565b5050610147565b81548183558181111561011b5781836000526020600020918201910161011a9190610120565b5b505050565b61014491905b808211156101405760008082016000905550600101610126565b5090565b90565b6103e5806101566000396000f300608060405260043610610057576000357c0100000000000000000000000000000000000000000000000000000000900463ffffffff1680634420e4861461005c578063609ff1bd1461009f578063b3f98adc146100d0575b600080fd5b34801561006857600080fd5b5061009d600480360381019080803573ffffffffffffffffffffffffffffffffffffffff169060200190929190505050610100565b005b3480156100ab57600080fd5b506100b4610258565b604051808260ff1660ff16815260200191505060405180910390f35b3480156100dc57600080fd5b506100fe600480360381019080803560ff1690602001909291905050506102d7565b005b6000809054906101000a900473ffffffffffffffffffffffffffffffffffffffff1673ffffffffffffffffffffffffffffffffffffffff163373ffffffffffffffffffffffffffffffffffffffff161415806101a85750600160008273ffffffffffffffffffffffffffffffffffffffff1673ffffffffffffffffffffffffffffffffffffffff16815260200190815260200160002060010160009054906101000a900460ff165b156101b257610255565b60018060008373ffffffffffffffffffffffffffffffffffffffff1673ffffffffffffffffffffffffffffffffffffffff168152602001908152602001600020600001819055506000600160008373ffffffffffffffffffffffffffffffffffffffff1673ffffffffffffffffffffffffffffffffffffffff16815260200190815260200160002060010160006101000a81548160ff0219169083151502179055505b50565b6000806000809150600090505b6002805490508160ff1610156102cf578160028260ff1681548110151561028857fe5b906000526020600020016000015411156102c25760028160ff168154811015156102ae57fe5b906000526020600020016000015491508092505b8080600101915050610265565b829250505090565b6000600160003373ffffffffffffffffffffffffffffffffffffffff1673ffffffffffffffffffffffffffffffffffffffff16815260200190815260200160002090508060010160009054906101000a900460ff168061033f57506002805490508260ff1610155b15610349576103b5565b60018160010160006101000a81548160ff021916908315150217905550818160010160016101000a81548160ff021916908360ff160217905550806000015460028360ff1681548110151561039a57fe5b90600052602060002001600001600082825401925050819055505b50505600a165627a7a723058201d1b0c643d6f0575acbf091f18eebad0e93e089e7afd7103a07fa292649f7ff00029",
					"opcodes": "PUSH1 0x80 PUSH1 0x40 MSTORE CALLVALUE DUP1 ISZERO PUSH2 0x10 JUMPI PUSH1 0x0 DUP1 REVERT JUMPDEST POP PUSH1 0x40 MLOAD PUSH1 0x20 DUP1 PUSH2 0x53B DUP4 CODECOPY DUP2 ADD DUP1 PUSH1 0x40 MSTORE DUP2 ADD SWAP1 DUP1 DUP1 MLOAD SWAP1 PUSH1 0x20 ADD SWAP1 SWAP3 SWAP2 SWAP1 POP POP POP CALLER PUSH1 0x0 DUP1 PUSH2 0x100 EXP DUP2 SLOAD DUP2 PUSH20 0xFFFFFFFFFFFFFFFFFFFFFFFFFFFFFFFFFFFFFFFF MUL NOT AND SWAP1 DUP4 PUSH20 0xFFFFFFFFFFFFFFFFFFFFFFFFFFFFFFFFFFFFFFFF AND MUL OR SWAP1 SSTORE POP PUSH1 0x2 PUSH1 0x1 PUSH1 0x0 DUP1 PUSH1 0x0 SWAP1 SLOAD SWAP1 PUSH2 0x100 EXP SWAP1 DIV PUSH20 0xFFFFFFFFFFFFFFFFFFFFFFFFFFFFFFFFFFFFFFFF AND PUSH20 0xFFFFFFFFFFFFFFFFFFFFFFFFFFFFFFFFFFFFFFFF AND PUSH20 0xFFFFFFFFFFFFFFFFFFFFFFFFFFFFFFFFFFFFFFFF AND DUP2 MSTORE PUSH1 0x20 ADD SWAP1 DUP2 MSTORE PUSH1 0x20 ADD PUSH1 0x0 KECCAK256 PUSH1 0x0 ADD DUP2 SWAP1 SSTORE POP DUP1 PUSH1 0xFF AND PUSH1 0x2 DUP2 PUSH2 0xED SWAP2 SWAP1 PUSH2 0xF4 JUMP JUMPDEST POP POP PUSH2 0x147 JUMP JUMPDEST DUP2 SLOAD DUP2 DUP4 SSTORE DUP2 DUP2 GT ISZERO PUSH2 0x11B JUMPI DUP2 DUP4 PUSH1 0x0 MSTORE PUSH1 0x20 PUSH1 0x0 KECCAK256 SWAP2 DUP3 ADD SWAP2 ADD PUSH2 0x11A SWAP2 SWAP1 PUSH2 0x120 JUMP JUMPDEST JUMPDEST POP POP POP JUMP JUMPDEST PUSH2 0x144 SWAP2 SWAP1 JUMPDEST DUP1 DUP3 GT ISZERO PUSH2 0x140 JUMPI PUSH1 0x0 DUP1 DUP3 ADD PUSH1 0x0 SWAP1 SSTORE POP PUSH1 0x1 ADD PUSH2 0x126 JUMP JUMPDEST POP SWAP1 JUMP JUMPDEST SWAP1 JUMP JUMPDEST PUSH2 0x3E5 DUP1 PUSH2 0x156 PUSH1 0x0 CODECOPY PUSH1 0x0 RETURN STOP PUSH1 0x80 PUSH1 0x40 MSTORE PUSH1 0x4 CALLDATASIZE LT PUSH2 0x57 JUMPI PUSH1 0x0 CALLDATALOAD PUSH29 0x100000000000000000000000000000000000000000000000000000000 SWAP1 DIV PUSH4 0xFFFFFFFF AND DUP1 PUSH4 0x4420E486 EQ PUSH2 0x5C JUMPI DUP1 PUSH4 0x609FF1BD EQ PUSH2 0x9F JUMPI DUP1 PUSH4 0xB3F98ADC EQ PUSH2 0xD0 JUMPI JUMPDEST PUSH1 0x0 DUP1 REVERT JUMPDEST CALLVALUE DUP1 ISZERO PUSH2 0x68 JUMPI PUSH1 0x0 DUP1 REVERT JUMPDEST POP PUSH2 0x9D PUSH1 0x4 DUP1 CALLDATASIZE SUB DUP2 ADD SWAP1 DUP1 DUP1 CALLDATALOAD PUSH20 0xFFFFFFFFFFFFFFFFFFFFFFFFFFFFFFFFFFFFFFFF AND SWAP1 PUSH1 0x20 ADD SWAP1 SWAP3 SWAP2 SWAP1 POP POP POP PUSH2 0x100 JUMP JUMPDEST STOP JUMPDEST CALLVALUE DUP1 ISZERO PUSH2 0xAB JUMPI PUSH1 0x0 DUP1 REVERT JUMPDEST POP PUSH2 0xB4 PUSH2 0x258 JUMP JUMPDEST PUSH1 0x40 MLOAD DUP1 DUP3 PUSH1 0xFF AND PUSH1 0xFF AND DUP2 MSTORE PUSH1 0x20 ADD SWAP2 POP POP PUSH1 0x40 MLOAD DUP1 SWAP2 SUB SWAP1 RETURN JUMPDEST CALLVALUE DUP1 ISZERO PUSH2 0xDC JUMPI PUSH1 0x0 DUP1 REVERT JUMPDEST POP PUSH2 0xFE PUSH1 0x4 DUP1 CALLDATASIZE SUB DUP2 ADD SWAP1 DUP1 DUP1 CALLDATALOAD PUSH1 0xFF AND SWAP1 PUSH1 0x20 ADD SWAP1 SWAP3 SWAP2 SWAP1 POP POP POP PUSH2 0x2D7 JUMP JUMPDEST STOP JUMPDEST PUSH1 0x0 DUP1 SWAP1 SLOAD SWAP1 PUSH2 0x100 EXP SWAP1 DIV PUSH20 0xFFFFFFFFFFFFFFFFFFFFFFFFFFFFFFFFFFFFFFFF AND PUSH20 0xFFFFFFFFFFFFFFFFFFFFFFFFFFFFFFFFFFFFFFFF AND CALLER PUSH20 0xFFFFFFFFFFFFFFFFFFFFFFFFFFFFFFFFFFFFFFFF AND EQ ISZERO DUP1 PUSH2 0x1A8 JUMPI POP PUSH1 0x1 PUSH1 0x0 DUP3 PUSH20 0xFFFFFFFFFFFFFFFFFFFFFFFFFFFFFFFFFFFFFFFF AND PUSH20 0xFFFFFFFFFFFFFFFFFFFFFFFFFFFFFFFFFFFFFFFF AND DUP2 MSTORE PUSH1 0x20 ADD SWAP1 DUP2 MSTORE PUSH1 0x20 ADD PUSH1 0x0 KECCAK256 PUSH1 0x1 ADD PUSH1 0x0 SWAP1 SLOAD SWAP1 PUSH2 0x100 EXP SWAP1 DIV PUSH1 0xFF AND JUMPDEST ISZERO PUSH2 0x1B2 JUMPI PUSH2 0x255 JUMP JUMPDEST PUSH1 0x1 DUP1 PUSH1 0x0 DUP4 PUSH20 0xFFFFFFFFFFFFFFFFFFFFFFFFFFFFFFFFFFFFFFFF AND PUSH20 0xFFFFFFFFFFFFFFFFFFFFFFFFFFFFFFFFFFFFFFFF AND DUP2 MSTORE PUSH1 0x20 ADD SWAP1 DUP2 MSTORE PUSH1 0x20 ADD PUSH1 0x0 KECCAK256 PUSH1 0x0 ADD DUP2 SWAP1 SSTORE POP PUSH1 0x0 PUSH1 0x1 PUSH1 0x0 DUP4 PUSH20 0xFFFFFFFFFFFFFFFFFFFFFFFFFFFFFFFFFFFFFFFF AND PUSH20 0xFFFFFFFFFFFFFFFFFFFFFFFFFFFFFFFFFFFFFFFF AND DUP2 MSTORE PUSH1 0x20 ADD SWAP1 DUP2 MSTORE PUSH1 0x20 ADD PUSH1 0x0 KECCAK256 PUSH1 0x1 ADD PUSH1 0x0 PUSH2 0x100 EXP DUP2 SLOAD DUP2 PUSH1 0xFF MUL NOT AND SWAP1 DUP4 ISZERO ISZERO MUL OR SWAP1 SSTORE POP JUMPDEST POP JUMP JUMPDEST PUSH1 0x0 DUP1 PUSH1 0x0 DUP1 SWAP2 POP PUSH1 0x0 SWAP1 POP JUMPDEST PUSH1 0x2 DUP1 SLOAD SWAP1 POP DUP2 PUSH1 0xFF AND LT ISZERO PUSH2 0x2CF JUMPI DUP2 PUSH1 0x2 DUP3 PUSH1 0xFF AND DUP2 SLOAD DUP2 LT ISZERO ISZERO PUSH2 0x288 JUMPI INVALID JUMPDEST SWAP1 PUSH1 0x0 MSTORE PUSH1 0x20 PUSH1 0x0 KECCAK256 ADD PUSH1 0x0 ADD SLOAD GT ISZERO PUSH2 0x2C2 JUMPI PUSH1 0x2 DUP2 PUSH1 0xFF AND DUP2 SLOAD DUP2 LT ISZERO ISZERO PUSH2 0x2AE JUMPI INVALID JUMPDEST SWAP1 PUSH1 0x0 MSTORE PUSH1 0x20 PUSH1 0x0 KECCAK256 ADD PUSH1 0x0 ADD SLOAD SWAP2 POP DUP1 SWAP3 POP JUMPDEST DUP1 DUP1 PUSH1 0x1 ADD SWAP2 POP POP PUSH2 0x265 JUMP JUMPDEST DUP3 SWAP3 POP POP POP SWAP1 JUMP JUMPDEST PUSH1 0x0 PUSH1 0x1 PUSH1 0x0 CALLER PUSH20 0xFFFFFFFFFFFFFFFFFFFFFFFFFFFFFFFFFFFFFFFF AND PUSH20 0xFFFFFFFFFFFFFFFFFFFFFFFFFFFFFFFFFFFFFFFF AND DUP2 MSTORE PUSH1 0x20 ADD SWAP1 DUP2 MSTORE PUSH1 0x20 ADD PUSH1 0x0 KECCAK256 SWAP1 POP DUP1 PUSH1 0x1 ADD PUSH1 0x0 SWAP1 SLOAD SWAP1 PUSH2 0x100 EXP SWAP1 DIV PUSH1 0xFF AND DUP1 PUSH2 0x33F JUMPI POP PUSH1 0x2 DUP1 SLOAD SWAP1 POP DUP3 PUSH1 0xFF AND LT ISZERO JUMPDEST ISZERO PUSH2 0x349 JUMPI PUSH2 0x3B5 JUMP JUMPDEST PUSH1 0x1 DUP2 PUSH1 0x1 ADD PUSH1 0x0 PUSH2 0x100 EXP DUP2 SLOAD DUP2 PUSH1 0xFF MUL NOT AND SWAP1 DUP4 ISZERO ISZERO MUL OR SWAP1 SSTORE POP DUP2 DUP2 PUSH1 0x1 ADD PUSH1 0x1 PUSH2 0x100 EXP DUP2 SLOAD DUP2 PUSH1 0xFF MUL NOT AND SWAP1 DUP4 PUSH1 0xFF AND MUL OR SWAP1 SSTORE POP DUP1 PUSH1 0x0 ADD SLOAD PUSH1 0x2 DUP4 PUSH1 0xFF AND DUP2 SLOAD DUP2 LT ISZERO ISZERO PUSH2 0x39A JUMPI INVALID JUMPDEST SWAP1 PUSH1 0x0 MSTORE PUSH1 0x20 PUSH1 0x0 KECCAK256 ADD PUSH1 0x0 ADD PUSH1 0x0 DUP3 DUP3 SLOAD ADD SWAP3 POP POP DUP2 SWAP1 SSTORE POP JUMPDEST POP POP JUMP STOP LOG1 PUSH6 0x627A7A723058 KECCAK256 SAR SHL 0xc PUSH5 0x3D6F0575AC 0xbf MULMOD 0x1f XOR 0xee 0xba 0xd0 0xe9 RETURNDATACOPY ADDMOD SWAP15 PUSH27 0xFD7103A07FA292649F7FF000290000000000000000000000000000 "
				},
				"gasEstimates": {
					"creation": {
						"codeDepositCost": "199400",
						"executionCost": "infinite",
						"totalCost": "infinite"
					},
					"external": {
						"register(address)": "41301",
						"vote(uint8)": "62184",
						"winningProposal()": "infinite"
					}
				},
				"methodIdentifiers": {
					"register(address)": "4420e486",
					"vote(uint8)": "b3f98adc",
					"winningProposal()": "609ff1bd"
				}
			},
			"userdoc": {
				"methods": {}
			}
		}
	}
}