{
	"learningExamples/ballotV1.sol": {
		"Ballot": {
			"abi": [
				{
					"constant": false,
					"inputs": [
						{
							"name": "toVoter",
							"type": "address"
						}
					],
					"name": "register",
					"outputs": [],
					"payable": false,
					"stateMutability": "nonpayable",
					"type": "function"
				},
				{
					"constant": true,
					"inputs": [],
					"name": "winningProposal",
					"outputs": [
						{
							"name": "_winningProposal",
							"type": "uint8"
						}
					],
					"payable": false,
					"stateMutability": "view",
					"type": "function"
				},
				{
					"constant": false,
					"inputs": [
						{
							"name": "toProposal",
							"type": "uint8"
						}
					],
					"name": "vote",
					"outputs": [],
					"payable": false,
					"stateMutability": "nonpayable",
					"type": "function"
				},
				{
					"inputs": [
						{
							"name": "_numProposals",
							"type": "uint8"
						}
					],
					"payable": false,
					"stateMutability": "nonpayable",
					"type": "constructor"
				}
			],
			"devdoc": {
				"methods": {}
			},
			"evm": {
				"assembly": "    /* \"learningExamples/ballotV1.sol\":26:1673  contract Ballot {... */\n  mstore(0x40, 0x80)\n    /* \"learningExamples/ballotV1.sol\":458:621  constructor(uint8 _numProposals) public {... */\n  callvalue\n    /* \"--CODEGEN--\":8:17   */\n  dup1\n    /* \"--CODEGEN--\":5:7   */\n  iszero\n  tag_1\n  jumpi\n    /* \"--CODEGEN--\":30:31   */\n  0x0\n    /* \"--CODEGEN--\":27:28   */\n  dup1\n    /* \"--CODEGEN--\":20:32   */\n  revert\n    /* \"--CODEGEN--\":5:7   */\ntag_1:\n    /* \"learningExamples/ballotV1.sol\":458:621  constructor(uint8 _numProposals) public {... */\n  pop\n  mload(0x40)\n  0x20\n  dup1\n  bytecodeSize\n  dup4\n  codecopy\n  dup2\n  add\n  dup1\n  0x40\n  mstore\n  dup2\n  add\n  swap1\n  dup1\n  dup1\n  mload\n  swap1\n  0x20\n  add\n  swap1\n  swap3\n  swap2\n  swap1\n  pop\n  pop\n  pop\n    /* \"learningExamples/ballotV1.sol\":522:532  msg.sender */\n  caller\n    /* \"learningExamples/ballotV1.sol\":508:519  chairperson */\n  0x0\n  dup1\n    /* \"learningExamples/ballotV1.sol\":508:532  chairperson = msg.sender */\n  0x100\n  exp\n  dup2\n  sload\n  dup2\n  0xffffffffffffffffffffffffffffffffffffffff\n  mul\n  not\n  and\n  swap1\n  dup4\n  0xffffffffffffffffffffffffffffffffffffffff\n  and\n  mul\n  or\n  swap1\n  sstore\n  pop\n    /* \"learningExamples/ballotV1.sol\":571:572  2 */\n  0x2\n    /* \"learningExamples/ballotV1.sol\":542:548  voters */\n  0x1\n    /* \"learningExamples/ballotV1.sol\":542:561  voters[chairperson] */\n  0x0\n    /* \"learningExamples/ballotV1.sol\":549:560  chairperson */\n  dup1\n  0x0\n  swap1\n  sload\n  swap1\n  0x100\n  exp\n  swap1\n  div\n  0xffffffffffffffffffffffffffffffffffffffff\n  and\n    /* \"learningExamples/ballotV1.sol\":542:561  voters[chairperson] */\n  0xffffffffffffffffffffffffffffffffffffffff\n  and\n  0xffffffffffffffffffffffffffffffffffffffff\n  and\n  dup2\n  mstore\n  0x20\n  add\n  swap1\n  dup2\n  mstore\n  0x20\n  add\n  0x0\n  keccak256\n    /* \"learningExamples/ballotV1.sol\":542:568  voters[chairperson].weight */\n  0x0\n  add\n    /* \"learningExamples/ballotV1.sol\":542:572  voters[chairperson].weight = 2 */\n  dup2\n  swap1\n  sstore\n  pop\n    /* \"learningExamples/ballotV1.sol\":601:614  _numProposals */\n  dup1\n    /* \"learningExamples/ballotV1.sol\":582:614  proposals.length = _numProposals */\n  0xff\n  and\n    /* \"learningExamples/ballotV1.sol\":582:591  proposals */\n  0x2\n    /* \"learningExamples/ballotV1.sol\":582:614  proposals.length = _numProposals */\n  dup2\n  tag_4\n  swap2\n  swap1\n  jump\t// in(tag_5)\ntag_4:\n  pop\n    /* \"learningExamples/ballotV1.sol\":458:621  constructor(uint8 _numProposals) public {... */\n  pop\n    /* \"learningExamples/ballotV1.sol\":26:1673  contract Ballot {... */\n  jump(tag_6)\ntag_5:\n  dup2\n  sload\n  dup2\n  dup4\n  sstore\n  dup2\n  dup2\n  gt\n  iszero\n  tag_7\n  jumpi\n  dup2\n  dup4\n  0x0\n  mstore\n  keccak256(0x0, 0x20)\n  swap2\n  dup3\n  add\n  swap2\n  add\n  tag_8\n  swap2\n  swap1\n  jump\t// in(tag_9)\ntag_8:\ntag_7:\n  pop\n  pop\n  pop\n  jump\t// out\ntag_9:\n  tag_10\n  swap2\n  swap1\ntag_11:\n  dup1\n  dup3\n  gt\n  iszero\n  tag_12\n  jumpi\n  0x0\n  dup1\n  dup3\n  add\n  0x0\n  swap1\n  sstore\n  pop\n  0x1\n  add\n  jump(tag_11)\ntag_12:\n  pop\n  swap1\n  jump\ntag_10:\n  swap1\n  jump\t// out\ntag_6:\n  dataSize(sub_0)\n  dup1\n  dataOffset(sub_0)\n  0x0\n  codecopy\n  0x0\n  return\nstop\n\nsub_0: assembly {\n        /* \"learningExamples/ballotV1.sol\":26:1673  contract Ballot {... */\n      mstore(0x40, 0x80)\n      jumpi(tag_1, lt(calldatasize, 0x4))\n      calldataload(0x0)\n      0x100000000000000000000000000000000000000000000000000000000\n      swap1\n      div\n      0xffffffff\n      and\n      dup1\n      0x4420e486\n      eq\n      tag_2\n      jumpi\n      dup1\n      0x609ff1bd\n      eq\n      tag_3\n      jumpi\n      dup1\n      0xb3f98adc\n      eq\n      tag_4\n      jumpi\n    tag_1:\n      0x0\n      dup1\n      revert\n        /* \"learningExamples/ballotV1.sol\":663:891  function register(address toVoter) public {... */\n    tag_2:\n      callvalue\n        /* \"--CODEGEN--\":8:17   */\n      dup1\n        /* \"--CODEGEN--\":5:7   */\n      iszero\n      tag_5\n      jumpi\n        /* \"--CODEGEN--\":30:31   */\n      0x0\n        /* \"--CODEGEN--\":27:28   */\n      dup1\n        /* \"--CODEGEN--\":20:32   */\n      revert\n        /* \"--CODEGEN--\":5:7   */\n    tag_5:\n        /* \"learningExamples/ballotV1.sol\":663:891  function register(address toVoter) public {... */\n      pop\n      tag_6\n      0x4\n      dup1\n      calldatasize\n      sub\n      dup2\n      add\n      swap1\n      dup1\n      dup1\n      calldataload\n      0xffffffffffffffffffffffffffffffffffffffff\n      and\n      swap1\n      0x20\n      add\n      swap1\n      swap3\n      swap2\n      swap1\n      pop\n      pop\n      pop\n      jump(tag_7)\n    tag_6:\n      stop\n        /* \"learningExamples/ballotV1.sol\":1238:1671  function winningProposal() public constant returns (uint8 _winningProposal) {... */\n    tag_3:\n      callvalue\n        /* \"--CODEGEN--\":8:17   */\n      dup1\n        /* \"--CODEGEN--\":5:7   */\n      iszero\n      tag_8\n      jumpi\n        /* \"--CODEGEN--\":30:31   */\n      0x0\n        /* \"--CODEGEN--\":27:28   */\n      dup1\n        /* \"--CODEGEN--\":20:32   */\n      revert\n        /* \"--CODEGEN--\":5:7   */\n    tag_8:\n        /* \"learningExamples/ballotV1.sol\":1238:1671  function winningProposal() public constant returns (uint8 _winningProposal) {... */\n      pop\n      tag_9\n      jump(tag_10)\n    tag_9:\n      mload(0x40)\n      dup1\n      dup3\n      0xff\n      and\n      0xff\n      and\n      dup2\n      mstore\n      0x20\n      add\n      swap2\n      pop\n      pop\n      mload(0x40)\n      dup1\n      swap2\n      sub\n      swap1\n      return\n        /* \"learningExamples/ballotV1.sol\":934:1231  function vote(uint8 toProposal) public {... */\n    tag_4:\n      callvalue\n        /* \"--CODEGEN--\":8:17   */\n      dup1\n        /* \"--CODEGEN--\":5:7   */\n      iszero\n      tag_11\n      jumpi\n        /* \"--CODEGEN--\":30:31   */\n      0x0\n        /* \"--CODEGEN--\":27:28   */\n      dup1\n        /* \"--CODEGEN--\":20:32   */\n      revert\n        /* \"--CODEGEN--\":5:7   */\n    tag_11:\n        /* \"learningExamples/ballotV1.sol\":934:1231  function vote(uint8 toProposal) public {... */\n      pop\n      tag_12\n      0x4\n      dup1\n      calldatasize\n      sub\n      dup2\n      add\n      swap1\n      dup1\n      dup1\n      calldataload\n      0xff\n      and\n      swap1\n      0x20\n      add\n      swap1\n      swap3\n      swap2\n      swap1\n      pop\n      pop\n      pop\n      jump(tag_13)\n    tag_12:\n      stop\n        /* \"learningExamples/ballotV1.sol\":663:891  function register(address toVoter) public {... */\n    tag_7:\n        /* \"learningExamples/ballotV1.sol\":732:743  chairperson */\n      0x0\n      dup1\n      swap1\n      sload\n      swap1\n      0x100\n      exp\n      swap1\n      div\n      0xffffffffffffffffffffffffffffffffffffffff\n      and\n        /* \"learningExamples/ballotV1.sol\":718:743  msg.sender != chairperson */\n      0xffffffffffffffffffffffffffffffffffffffff\n      and\n        /* \"learningExamples/ballotV1.sol\":718:728  msg.sender */\n      caller\n        /* \"learningExamples/ballotV1.sol\":718:743  msg.sender != chairperson */\n      0xffffffffffffffffffffffffffffffffffffffff\n      and\n      eq\n      iszero\n        /* \"learningExamples/ballotV1.sol\":718:768  msg.sender != chairperson || voters[toVoter].voted */\n      dup1\n      tag_15\n      jumpi\n      pop\n        /* \"learningExamples/ballotV1.sol\":747:753  voters */\n      0x1\n        /* \"learningExamples/ballotV1.sol\":747:762  voters[toVoter] */\n      0x0\n        /* \"learningExamples/ballotV1.sol\":754:761  toVoter */\n      dup3\n        /* \"learningExamples/ballotV1.sol\":747:762  voters[toVoter] */\n      0xffffffffffffffffffffffffffffffffffffffff\n      and\n      0xffffffffffffffffffffffffffffffffffffffff\n      and\n      dup2\n      mstore\n      0x20\n      add\n      swap1\n      dup2\n      mstore\n      0x20\n      add\n      0x0\n      keccak256\n        /* \"learningExamples/ballotV1.sol\":747:768  voters[toVoter].voted */\n      0x1\n      add\n      0x0\n      swap1\n      sload\n      swap1\n      0x100\n      exp\n      swap1\n      div\n      0xff\n      and\n        /* \"learningExamples/ballotV1.sol\":718:768  msg.sender != chairperson || voters[toVoter].voted */\n    tag_15:\n        /* \"learningExamples/ballotV1.sol\":715:810  if(msg.sender != chairperson || voters[toVoter].voted) //   Only chairman!!... */\n      iszero\n      tag_16\n      jumpi\n        /* \"learningExamples/ballotV1.sol\":803:810  return; */\n      jump(tag_14)\n        /* \"learningExamples/ballotV1.sol\":715:810  if(msg.sender != chairperson || voters[toVoter].voted) //   Only chairman!!... */\n    tag_16:\n        /* \"learningExamples/ballotV1.sol\":844:845  1 */\n      0x1\n        /* \"learningExamples/ballotV1.sol\":819:825  voters */\n      dup1\n        /* \"learningExamples/ballotV1.sol\":819:834  voters[toVoter] */\n      0x0\n        /* \"learningExamples/ballotV1.sol\":826:833  toVoter */\n      dup4\n        /* \"learningExamples/ballotV1.sol\":819:834  voters[toVoter] */\n      0xffffffffffffffffffffffffffffffffffffffff\n      and\n      0xffffffffffffffffffffffffffffffffffffffff\n      and\n      dup2\n      mstore\n      0x20\n      add\n      swap1\n      dup2\n      mstore\n      0x20\n      add\n      0x0\n      keccak256\n        /* \"learningExamples/ballotV1.sol\":819:841  voters[toVoter].weight */\n      0x0\n      add\n        /* \"learningExamples/ballotV1.sol\":819:845  voters[toVoter].weight = 1 */\n      dup2\n      swap1\n      sstore\n      pop\n        /* \"learningExamples/ballotV1.sol\":879:884  false */\n      0x0\n        /* \"learningExamples/ballotV1.sol\":855:861  voters */\n      0x1\n        /* \"learningExamples/ballotV1.sol\":855:870  voters[toVoter] */\n      0x0\n        /* \"learningExamples/ballotV1.sol\":862:869  toVoter */\n      dup4\n        /* \"learningExamples/ballotV1.sol\":855:870  voters[toVoter] */\n      0xffffffffffffffffffffffffffffffffffffffff\n      and\n      0xffffffffffffffffffffffffffffffffffffffff\n      and\n      dup2\n      mstore\n      0x20\n      add\n      swap1\n      dup2\n      mstore\n      0x20\n      add\n      0x0\n      keccak256\n        /* \"learningExamples/ballotV1.sol\":855:876  voters[toVoter].voted */\n      0x1\n      add\n      0x0\n        /* \"learningExamples/ballotV1.sol\":855:884  voters[toVoter].voted = false */\n      0x100\n      exp\n      dup2\n      sload\n      dup2\n      0xff\n      mul\n      not\n      and\n      swap1\n      dup4\n      iszero\n      iszero\n      mul\n      or\n      swap1\n      sstore\n      pop\n        /* \"learningExamples/ballotV1.sol\":663:891  function register(address toVoter) public {... */\n    tag_14:\n      pop\n      jump\t// out\n        /* \"learningExamples/ballotV1.sol\":1238:1671  function winningProposal() public constant returns (uint8 _winningProposal) {... */\n    tag_10:\n        /* \"learningExamples/ballotV1.sol\":1290:1312  uint8 _winningProposal */\n      0x0\n        /* \"learningExamples/ballotV1.sol\":1324:1348  uint256 winningVoteCount */\n      dup1\n        /* \"learningExamples/ballotV1.sol\":1370:1380  uint8 prop */\n      0x0\n        /* \"learningExamples/ballotV1.sol\":1351:1352  0 */\n      dup1\n        /* \"learningExamples/ballotV1.sol\":1324:1352  uint256 winningVoteCount = 0 */\n      swap2\n      pop\n        /* \"learningExamples/ballotV1.sol\":1383:1384  0 */\n      0x0\n        /* \"learningExamples/ballotV1.sol\":1370:1384  uint8 prop = 0 */\n      swap1\n      pop\n        /* \"learningExamples/ballotV1.sol\":1366:1632  for(uint8 prop = 0; prop < proposals.length; prop++){... */\n    tag_18:\n        /* \"learningExamples/ballotV1.sol\":1393:1402  proposals */\n      0x2\n        /* \"learningExamples/ballotV1.sol\":1393:1409  proposals.length */\n      dup1\n      sload\n      swap1\n      pop\n        /* \"learningExamples/ballotV1.sol\":1386:1390  prop */\n      dup2\n        /* \"learningExamples/ballotV1.sol\":1386:1409  prop < proposals.length */\n      0xff\n      and\n      lt\n        /* \"learningExamples/ballotV1.sol\":1366:1632  for(uint8 prop = 0; prop < proposals.length; prop++){... */\n      iszero\n      tag_19\n      jumpi\n        /* \"learningExamples/ballotV1.sol\":1467:1483  winningVoteCount */\n      dup2\n        /* \"learningExamples/ballotV1.sol\":1439:1448  proposals */\n      0x2\n        /* \"learningExamples/ballotV1.sol\":1449:1453  prop */\n      dup3\n        /* \"learningExamples/ballotV1.sol\":1439:1454  proposals[prop] */\n      0xff\n      and\n      dup2\n      sload\n      dup2\n      lt\n      iszero\n      iszero\n      tag_21\n      jumpi\n      invalid\n    tag_21:\n      swap1\n      0x0\n      mstore\n      keccak256(0x0, 0x20)\n      add\n        /* \"learningExamples/ballotV1.sol\":1439:1464  proposals[prop].voteCount */\n      0x0\n      add\n      sload\n        /* \"learningExamples/ballotV1.sol\":1439:1483  proposals[prop].voteCount > winningVoteCount */\n      gt\n        /* \"learningExamples/ballotV1.sol\":1436:1616  if(proposals[prop].voteCount > winningVoteCount){... */\n      iszero\n      tag_23\n      jumpi\n        /* \"learningExamples/ballotV1.sol\":1525:1534  proposals */\n      0x2\n        /* \"learningExamples/ballotV1.sol\":1535:1539  prop */\n      dup2\n        /* \"learningExamples/ballotV1.sol\":1525:1540  proposals[prop] */\n      0xff\n      and\n      dup2\n      sload\n      dup2\n      lt\n      iszero\n      iszero\n      tag_24\n      jumpi\n      invalid\n    tag_24:\n      swap1\n      0x0\n      mstore\n      keccak256(0x0, 0x20)\n      add\n        /* \"learningExamples/ballotV1.sol\":1525:1550  proposals[prop].voteCount */\n      0x0\n      add\n      sload\n        /* \"learningExamples/ballotV1.sol\":1506:1550  winningVoteCount = proposals[prop].voteCount */\n      swap2\n      pop\n        /* \"learningExamples/ballotV1.sol\":1593:1597  prop */\n      dup1\n        /* \"learningExamples/ballotV1.sol\":1574:1597  _winningProposal = prop */\n      swap3\n      pop\n        /* \"learningExamples/ballotV1.sol\":1436:1616  if(proposals[prop].voteCount > winningVoteCount){... */\n    tag_23:\n        /* \"learningExamples/ballotV1.sol\":1411:1417  prop++ */\n      dup1\n      dup1\n      0x1\n      add\n      swap2\n      pop\n      pop\n        /* \"learningExamples/ballotV1.sol\":1366:1632  for(uint8 prop = 0; prop < proposals.length; prop++){... */\n      jump(tag_18)\n    tag_19:\n        /* \"learningExamples/ballotV1.sol\":1648:1664  _winningProposal */\n      dup3\n        /* \"learningExamples/ballotV1.sol\":1641:1664  return _winningProposal */\n      swap3\n      pop\n        /* \"learningExamples/ballotV1.sol\":1238:1671  function winningProposal() public constant returns (uint8 _winningProposal) {... */\n      pop\n      pop\n      swap1\n      jump\t// out\n        /* \"learningExamples/ballotV1.sol\":934:1231  function vote(uint8 toProposal) public {... */\n    tag_13:\n        /* \"learningExamples/ballotV1.sol\":983:1003  Voter storage sender */\n      0x0\n        /* \"learningExamples/ballotV1.sol\":1006:1012  voters */\n      0x1\n        /* \"learningExamples/ballotV1.sol\":1006:1024  voters[msg.sender] */\n      0x0\n        /* \"learningExamples/ballotV1.sol\":1013:1023  msg.sender */\n      caller\n        /* \"learningExamples/ballotV1.sol\":1006:1024  voters[msg.sender] */\n      0xffffffffffffffffffffffffffffffffffffffff\n      and\n      0xffffffffffffffffffffffffffffffffffffffff\n      and\n      dup2\n      mstore\n      0x20\n      add\n      swap1\n      dup2\n      mstore\n      0x20\n      add\n      0x0\n      keccak256\n        /* \"learningExamples/ballotV1.sol\":983:1024  Voter storage sender = voters[msg.sender] */\n      swap1\n      pop\n        /* \"learningExamples/ballotV1.sol\":1037:1043  sender */\n      dup1\n        /* \"learningExamples/ballotV1.sol\":1037:1049  sender.voted */\n      0x1\n      add\n      0x0\n      swap1\n      sload\n      swap1\n      0x100\n      exp\n      swap1\n      div\n      0xff\n      and\n        /* \"learningExamples/ballotV1.sol\":1037:1083  sender.voted || toProposal >= proposals.length */\n      dup1\n      tag_27\n      jumpi\n      pop\n        /* \"learningExamples/ballotV1.sol\":1067:1076  proposals */\n      0x2\n        /* \"learningExamples/ballotV1.sol\":1067:1083  proposals.length */\n      dup1\n      sload\n      swap1\n      pop\n        /* \"learningExamples/ballotV1.sol\":1053:1063  toProposal */\n      dup3\n        /* \"learningExamples/ballotV1.sol\":1053:1083  toProposal >= proposals.length */\n      0xff\n      and\n      lt\n      iszero\n        /* \"learningExamples/ballotV1.sol\":1037:1083  sender.voted || toProposal >= proposals.length */\n    tag_27:\n        /* \"learningExamples/ballotV1.sol\":1034:1104  if(sender.voted || toProposal >= proposals.length)... */\n      iszero\n      tag_28\n      jumpi\n        /* \"learningExamples/ballotV1.sol\":1097:1104  return; */\n      jump(tag_26)\n        /* \"learningExamples/ballotV1.sol\":1034:1104  if(sender.voted || toProposal >= proposals.length)... */\n    tag_28:\n        /* \"learningExamples/ballotV1.sol\":1128:1132  true */\n      0x1\n        /* \"learningExamples/ballotV1.sol\":1113:1119  sender */\n      dup2\n        /* \"learningExamples/ballotV1.sol\":1113:1125  sender.voted */\n      0x1\n      add\n      0x0\n        /* \"learningExamples/ballotV1.sol\":1113:1132  sender.voted = true */\n      0x100\n      exp\n      dup2\n      sload\n      dup2\n      0xff\n      mul\n      not\n      and\n      swap1\n      dup4\n      iszero\n      iszero\n      mul\n      or\n      swap1\n      sstore\n      pop\n        /* \"learningExamples/ballotV1.sol\":1156:1166  toProposal */\n      dup2\n        /* \"learningExamples/ballotV1.sol\":1142:1148  sender */\n      dup2\n        /* \"learningExamples/ballotV1.sol\":1142:1153  sender.vote */\n      0x1\n      add\n      0x1\n        /* \"learningExamples/ballotV1.sol\":1142:1166  sender.vote = toProposal */\n      0x100\n      exp\n      dup2\n      sload\n      dup2\n      0xff\n      mul\n      not\n      and\n      swap1\n      dup4\n      0xff\n      and\n      mul\n      or\n      swap1\n      sstore\n      pop\n        /* \"learningExamples/ballotV1.sol\":1211:1217  sender */\n      dup1\n        /* \"learningExamples/ballotV1.sol\":1211:1224  sender.weight */\n      0x0\n      add\n      sload\n        /* \"learningExamples/ballotV1.sol\":1176:1185  proposals */\n      0x2\n        /* \"learningExamples/ballotV1.sol\":1186:1196  toProposal */\n      dup4\n        /* \"learningExamples/ballotV1.sol\":1176:1197  proposals[toProposal] */\n      0xff\n      and\n      dup2\n      sload\n      dup2\n      lt\n      iszero\n      iszero\n      tag_29\n      jumpi\n      invalid\n    tag_29:\n      swap1\n      0x0\n      mstore\n      keccak256(0x0, 0x20)\n      add\n        /* \"learningExamples/ballotV1.sol\":1176:1207  proposals[toProposal].voteCount */\n      0x0\n      add\n      0x0\n        /* \"learningExamples/ballotV1.sol\":1176:1224  proposals[toProposal].voteCount += sender.weight */\n      dup3\n      dup3\n      sload\n      add\n      swap3\n      pop\n      pop\n      dup2\n      swap1\n      sstore\n      pop\n        /* \"learningExamples/ballotV1.sol\":934:1231  function vote(uint8 toProposal) public {... */\n    tag_26:\n      pop\n      pop\n      jump\t// out\n\n    auxdata: 0xa165627a7a72305820a680d58b12f37cbc9ee610bce07e89a462c18126e6ab2eff3383a3bedd569b1c0029\n}\n",
				"bytecode": {
					"linkReferences": {},
					"object": "608060405234801561001057600080fd5b5060405160208061053b83398101806040528101908080519060200190929190505050336000806101000a81548173ffffffffffffffffffffffffffffffffffffffff021916908373ffffffffffffffffffffffffffffffffffffffff1602179055506002600160008060009054906101000a900473ffffffffffffffffffffffffffffffffffffffff1673ffffffffffffffffffffffffffffffffffffffff1673ffffffffffffffffffffffffffffffffffffffff168152602001908152602001600020600001819055508060ff166002816100ed91906100f4565b5050610147565b81548183558181111561011b5781836000526020600020918201910161011a9190610120565b5b505050565b61014491905b808211156101405760008082016000905550600101610126565b5090565b90565b6103e5806101566000396000f300608060405260043610610057576000357c0100000000000000000000000000000000000000000000000000000000900463ffffffff1680634420e4861461005c578063609ff1bd1461009f578063b3f98adc146100d0575b600080fd5b34801561006857600080fd5b5061009d600480360381019080803573ffffffffffffffffffffffffffffffffffffffff169060200190929190505050610100565b005b3480156100ab57600080fd5b506100b4610258565b604051808260ff1660ff16815260200191505060405180910390f35b3480156100dc57600080fd5b506100fe600480360381019080803560ff1690602001909291905050506102d7565b005b6000809054906101000a900473ffffffffffffffffffffffffffffffffffffffff1673ffffffffffffffffffffffffffffffffffffffff163373ffffffffffffffffffffffffffffffffffffffff161415806101a85750600160008273ffffffffffffffffffffffffffffffffffffffff1673ffffffffffffffffffffffffffffffffffffffff16815260200190815260200160002060010160009054906101000a900460ff165b156101b257610255565b60018060008373ffffffffffffffffffffffffffffffffffffffff1673ffffffffffffffffffffffffffffffffffffffff168152602001908152602001600020600001819055506000600160008373ffffffffffffffffffffffffffffffffffffffff1673ffffffffffffffffffffffffffffffffffffffff16815260200190815260200160002060010160006101000a81548160ff0219169083151502179055505b50565b6000806000809150600090505b6002805490508160ff1610156102cf578160028260ff1681548110151561028857fe5b906000526020600020016000015411156102c25760028160ff168154811015156102ae57fe5b906000526020600020016000015491508092505b8080600101915050610265565b829250505090565b6000600160003373ffffffffffffffffffffffffffffffffffffffff1673ffffffffffffffffffffffffffffffffffffffff16815260200190815260200160002090508060010160009054906101000a900460ff168061033f57506002805490508260ff1610155b15610349576103b5565b60018160010160006101000a81548160ff021916908315150217905550818160010160016101000a81548160ff021916908360ff160217905550806000015460028360ff1681548110151561039a57fe5b90600052602060002001600001600082825401925050819055505b50505600a165627a7a72305820a680d58b12f37cbc9ee610bce07e89a462c18126e6ab2eff3383a3bedd569b1c0029",
					"opcodes": "PUSH1 0x80 PUSH1 0x40 MSTORE CALLVALUE DUP1 ISZERO PUSH2 0x10 JUMPI PUSH1 0x0 DUP1 REVERT JUMPDEST POP PUSH1 0x40 MLOAD PUSH1 0x20 DUP1 PUSH2 0x53B DUP4 CODECOPY DUP2 ADD DUP1 PUSH1 0x40 MSTORE DUP2 ADD SWAP1 DUP1 DUP1 MLOAD SWAP1 PUSH1 0x20 ADD SWAP1 SWAP3 SWAP2 SWAP1 POP POP POP CALLER PUSH1 0x0 DUP1 PUSH2 0x100 EXP DUP2 SLOAD DUP2 PUSH20 0xFFFFFFFFFFFFFFFFFFFFFFFFFFFFFFFFFFFFFFFF MUL NOT AND SWAP1 DUP4 PUSH20 0xFFFFFFFFFFFFFFFFFFFFFFFFFFFFFFFFFFFFFFFF AND MUL OR SWAP1 SSTORE POP PUSH1 0x2 PUSH1 0x1 PUSH1 0x0 DUP1 PUSH1 0x0 SWAP1 SLOAD SWAP1 PUSH2 0x100 EXP SWAP1 DIV PUSH20 0xFFFFFFFFFFFFFFFFFFFFFFFFFFFFFFFFFFFFFFFF AND PUSH20 0xFFFFFFFFFFFFFFFFFFFFFFFFFFFFFFFFFFFFFFFF AND PUSH20 0xFFFFFFFFFFFFFFFFFFFFFFFFFFFFFFFFFFFFFFFF AND DUP2 MSTORE PUSH1 0x20 ADD SWAP1 DUP2 MSTORE PUSH1 0x20 ADD PUSH1 0x0 KECCAK256 PUSH1 0x0 ADD DUP2 SWAP1 SSTORE POP DUP1 PUSH1 0xFF AND PUSH1 0x2 DUP2 PUSH2 0xED SWAP2 SWAP1 PUSH2 0xF4 JUMP JUMPDEST POP POP PUSH2 0x147 JUMP JUMPDEST DUP2 SLOAD DUP2 DUP4 SSTORE DUP2 DUP2 GT ISZERO PUSH2 0x11B JUMPI DUP2 DUP4 PUSH1 0x0 MSTORE PUSH1 0x20 PUSH1 0x0 KECCAK256 SWAP2 DUP3 ADD SWAP2 ADD PUSH2 0x11A SWAP2 SWAP1 PUSH2 0x120 JUMP JUMPDEST JUMPDEST POP POP POP JUMP JUMPDEST PUSH2 0x144 SWAP2 SWAP1 JUMPDEST DUP1 DUP3 GT ISZERO PUSH2 0x140 JUMPI PUSH1 0x0 DUP1 DUP3 ADD PUSH1 0x0 SWAP1 SSTORE POP PUSH1 0x1 ADD PUSH2 0x126 JUMP JUMPDEST POP SWAP1 JUMP JUMPDEST SWAP1 JUMP JUMPDEST PUSH2 0x3E5 DUP1 PUSH2 0x156 PUSH1 0x0 CODECOPY PUSH1 0x0 RETURN STOP PUSH1 0x80 PUSH1 0x40 MSTORE PUSH1 0x4 CALLDATASIZE LT PUSH2 0x57 JUMPI PUSH1 0x0 CALLDATALOAD PUSH29 0x100000000000000000000000000000000000000000000000000000000 SWAP1 DIV PUSH4 0xFFFFFFFF AND DUP1 PUSH4 0x4420E486 EQ PUSH2 0x5C JUMPI DUP1 PUSH4 0x609FF1BD EQ PUSH2 0x9F JUMPI DUP1 PUSH4 0xB3F98ADC EQ PUSH2 0xD0 JUMPI JUMPDEST PUSH1 0x0 DUP1 REVERT JUMPDEST CALLVALUE DUP1 ISZERO PUSH2 0x68 JUMPI PUSH1 0x0 DUP1 REVERT JUMPDEST POP PUSH2 0x9D PUSH1 0x4 DUP1 CALLDATASIZE SUB DUP2 ADD SWAP1 DUP1 DUP1 CALLDATALOAD PUSH20 0xFFFFFFFFFFFFFFFFFFFFFFFFFFFFFFFFFFFFFFFF AND SWAP1 PUSH1 0x20 ADD SWAP1 SWAP3 SWAP2 SWAP1 POP POP POP PUSH2 0x100 JUMP JUMPDEST STOP JUMPDEST CALLVALUE DUP1 ISZERO PUSH2 0xAB JUMPI PUSH1 0x0 DUP1 REVERT JUMPDEST POP PUSH2 0xB4 PUSH2 0x258 JUMP JUMPDEST PUSH1 0x40 MLOAD DUP1 DUP3 PUSH1 0xFF AND PUSH1 0xFF AND DUP2 MSTORE PUSH1 0x20 ADD SWAP2 POP POP PUSH1 0x40 MLOAD DUP1 SWAP2 SUB SWAP1 RETURN JUMPDEST CALLVALUE DUP1 ISZERO PUSH2 0xDC JUMPI PUSH1 0x0 DUP1 REVERT JUMPDEST POP PUSH2 0xFE PUSH1 0x4 DUP1 CALLDATASIZE SUB DUP2 ADD SWAP1 DUP1 DUP1 CALLDATALOAD PUSH1 0xFF AND SWAP1 PUSH1 0x20 ADD SWAP1 SWAP3 SWAP2 SWAP1 POP POP POP PUSH2 0x2D7 JUMP JUMPDEST STOP JUMPDEST PUSH1 0x0 DUP1 SWAP1 SLOAD SWAP1 PUSH2 0x100 EXP SWAP1 DIV PUSH20 0xFFFFFFFFFFFFFFFFFFFFFFFFFFFFFFFFFFFFFFFF AND PUSH20 0xFFFFFFFFFFFFFFFFFFFFFFFFFFFFFFFFFFFFFFFF AND CALLER PUSH20 0xFFFFFFFFFFFFFFFFFFFFFFFFFFFFFFFFFFFFFFFF AND EQ ISZERO DUP1 PUSH2 0x1A8 JUMPI POP PUSH1 0x1 PUSH1 0x0 DUP3 PUSH20 0xFFFFFFFFFFFFFFFFFFFFFFFFFFFFFFFFFFFFFFFF AND PUSH20 0xFFFFFFFFFFFFFFFFFFFFFFFFFFFFFFFFFFFFFFFF AND DUP2 MSTORE PUSH1 0x20 ADD SWAP1 DUP2 MSTORE PUSH1 0x20 ADD PUSH1 0x0 KECCAK256 PUSH1 0x1 ADD PUSH1 0x0 SWAP1 SLOAD SWAP1 PUSH2 0x100 EXP SWAP1 DIV PUSH1 0xFF AND JUMPDEST ISZERO PUSH2 0x1B2 JUMPI PUSH2 0x255 JUMP JUMPDEST PUSH1 0x1 DUP1 PUSH1 0x0 DUP4 PUSH20 0xFFFFFFFFFFFFFFFFFFFFFFFFFFFFFFFFFFFFFFFF AND PUSH20 0xFFFFFFFFFFFFFFFFFFFFFFFFFFFFFFFFFFFFFFFF AND DUP2 MSTORE PUSH1 0x20 ADD SWAP1 DUP2 MSTORE PUSH1 0x20 ADD PUSH1 0x0 KECCAK256 PUSH1 0x0 ADD DUP2 SWAP1 SSTORE POP PUSH1 0x0 PUSH1 0x1 PUSH1 0x0 DUP4 PUSH20 0xFFFFFFFFFFFFFFFFFFFFFFFFFFFFFFFFFFFFFFFF AND PUSH20 0xFFFFFFFFFFFFFFFFFFFFFFFFFFFFFFFFFFFFFFFF AND DUP2 MSTORE PUSH1 0x20 ADD SWAP1 DUP2 MSTORE PUSH1 0x20 ADD PUSH1 0x0 KECCAK256 PUSH1 0x1 ADD PUSH1 0x0 PUSH2 0x100 EXP DUP2 SLOAD DUP2 PUSH1 0xFF MUL NOT AND SWAP1 DUP4 ISZERO ISZERO MUL OR SWAP1 SSTORE POP JUMPDEST POP JUMP JUMPDEST PUSH1 0x0 DUP1 PUSH1 0x0 DUP1 SWAP2 POP PUSH1 0x0 SWAP1 POP JUMPDEST PUSH1 0x2 DUP1 SLOAD SWAP1 POP DUP2 PUSH1 0xFF AND LT ISZERO PUSH2 0x2CF JUMPI DUP2 PUSH1 0x2 DUP3 PUSH1 0xFF AND DUP2 SLOAD DUP2 LT ISZERO ISZERO PUSH2 0x288 JUMPI INVALID JUMPDEST SWAP1 PUSH1 0x0 MSTORE PUSH1 0x20 PUSH1 0x0 KECCAK256 ADD PUSH1 0x0 ADD SLOAD GT ISZERO PUSH2 0x2C2 JUMPI PUSH1 0x2 DUP2 PUSH1 0xFF AND DUP2 SLOAD DUP2 LT ISZERO ISZERO PUSH2 0x2AE JUMPI INVALID JUMPDEST SWAP1 PUSH1 0x0 MSTORE PUSH1 0x20 PUSH1 0x0 KECCAK256 ADD PUSH1 0x0 ADD SLOAD SWAP2 POP DUP1 SWAP3 POP JUMPDEST DUP1 DUP1 PUSH1 0x1 ADD SWAP2 POP POP PUSH2 0x265 JUMP JUMPDEST DUP3 SWAP3 POP POP POP SWAP1 JUMP JUMPDEST PUSH1 0x0 PUSH1 0x1 PUSH1 0x0 CALLER PUSH20 0xFFFFFFFFFFFFFFFFFFFFFFFFFFFFFFFFFFFFFFFF AND PUSH20 0xFFFFFFFFFFFFFFFFFFFFFFFFFFFFFFFFFFFFFFFF AND DUP2 MSTORE PUSH1 0x20 ADD SWAP1 DUP2 MSTORE PUSH1 0x20 ADD PUSH1 0x0 KECCAK256 SWAP1 POP DUP1 PUSH1 0x1 ADD PUSH1 0x0 SWAP1 SLOAD SWAP1 PUSH2 0x100 EXP SWAP1 DIV PUSH1 0xFF AND DUP1 PUSH2 0x33F JUMPI POP PUSH1 0x2 DUP1 SLOAD SWAP1 POP DUP3 PUSH1 0xFF AND LT ISZERO JUMPDEST ISZERO PUSH2 0x349 JUMPI PUSH2 0x3B5 JUMP JUMPDEST PUSH1 0x1 DUP2 PUSH1 0x1 ADD PUSH1 0x0 PUSH2 0x100 EXP DUP2 SLOAD DUP2 PUSH1 0xFF MUL NOT AND SWAP1 DUP4 ISZERO ISZERO MUL OR SWAP1 SSTORE POP DUP2 DUP2 PUSH1 0x1 ADD PUSH1 0x1 PUSH2 0x100 EXP DUP2 SLOAD DUP2 PUSH1 0xFF MUL NOT AND SWAP1 DUP4 PUSH1 0xFF AND MUL OR SWAP1 SSTORE POP DUP1 PUSH1 0x0 ADD SLOAD PUSH1 0x2 DUP4 PUSH1 0xFF AND DUP2 SLOAD DUP2 LT ISZERO ISZERO PUSH2 0x39A JUMPI INVALID JUMPDEST SWAP1 PUSH1 0x0 MSTORE PUSH1 0x20 PUSH1 0x0 KECCAK256 ADD PUSH1 0x0 ADD PUSH1 0x0 DUP3 DUP3 SLOAD ADD SWAP3 POP POP DUP2 SWAP1 SSTORE POP JUMPDEST POP POP JUMP STOP LOG1 PUSH6 0x627A7A723058 KECCAK256 0xa6 DUP1 0xd5 DUP12 SLT RETURN PUSH29 0xBC9EE610BCE07E89A462C18126E6AB2EFF3383A3BEDD569B1C00290000 "
				},
				"gasEstimates": {
					"creation": {
						"codeDepositCost": "199400",
						"executionCost": "infinite",
						"totalCost": "infinite"
					},
					"external": {
						"register(address)": "41301",
						"vote(uint8)": "62184",
						"winningProposal()": "infinite"
					}
				},
				"methodIdentifiers": {
					"register(address)": "4420e486",
					"vote(uint8)": "b3f98adc",
					"winningProposal()": "609ff1bd"
				}
			},
			"userdoc": {
				"methods": {}
			}
		}
	}
}