{
	"learningExamples/ballotV1.sol": {
		"Ballot": {
			"abi": [
				{
					"constant": false,
					"inputs": [
						{
							"name": "toVoter",
							"type": "address"
						}
					],
					"name": "register",
					"outputs": [],
					"payable": false,
					"stateMutability": "nonpayable",
					"type": "function"
				}
			],
			"devdoc": {
				"methods": {}
			},
			"evm": {
				"assembly": "    /* \"learningExamples/ballotV1.sol\":25:757  contract Ballot {... */\n  mstore(0x40, 0x80)\n  callvalue\n    /* \"--CODEGEN--\":8:17   */\n  dup1\n    /* \"--CODEGEN--\":5:7   */\n  iszero\n  tag_1\n  jumpi\n    /* \"--CODEGEN--\":30:31   */\n  0x0\n    /* \"--CODEGEN--\":27:28   */\n  dup1\n    /* \"--CODEGEN--\":20:32   */\n  revert\n    /* \"--CODEGEN--\":5:7   */\ntag_1:\n    /* \"learningExamples/ballotV1.sol\":25:757  contract Ballot {... */\n  pop\n  dataSize(sub_0)\n  dup1\n  dataOffset(sub_0)\n  0x0\n  codecopy\n  0x0\n  return\nstop\n\nsub_0: assembly {\n        /* \"learningExamples/ballotV1.sol\":25:757  contract Ballot {... */\n      mstore(0x40, 0x80)\n      jumpi(tag_1, lt(calldatasize, 0x4))\n      calldataload(0x0)\n      0x100000000000000000000000000000000000000000000000000000000\n      swap1\n      div\n      0xffffffff\n      and\n      dup1\n      0x4420e486\n      eq\n      tag_2\n      jumpi\n    tag_1:\n      0x0\n      dup1\n      revert\n        /* \"learningExamples/ballotV1.sol\":538:754  function register(address toVoter) public {... */\n    tag_2:\n      callvalue\n        /* \"--CODEGEN--\":8:17   */\n      dup1\n        /* \"--CODEGEN--\":5:7   */\n      iszero\n      tag_3\n      jumpi\n        /* \"--CODEGEN--\":30:31   */\n      0x0\n        /* \"--CODEGEN--\":27:28   */\n      dup1\n        /* \"--CODEGEN--\":20:32   */\n      revert\n        /* \"--CODEGEN--\":5:7   */\n    tag_3:\n        /* \"learningExamples/ballotV1.sol\":538:754  function register(address toVoter) public {... */\n      pop\n      tag_4\n      0x4\n      dup1\n      calldatasize\n      sub\n      dup2\n      add\n      swap1\n      dup1\n      dup1\n      calldataload\n      0xffffffffffffffffffffffffffffffffffffffff\n      and\n      swap1\n      0x20\n      add\n      swap1\n      swap3\n      swap2\n      swap1\n      pop\n      pop\n      pop\n      jump(tag_5)\n    tag_4:\n      stop\n    tag_5:\n        /* \"learningExamples/ballotV1.sol\":607:618  chairperson */\n      0x0\n      dup1\n      swap1\n      sload\n      swap1\n      0x100\n      exp\n      swap1\n      div\n      0xffffffffffffffffffffffffffffffffffffffff\n      and\n        /* \"learningExamples/ballotV1.sol\":593:618  msg.sender != chairperson */\n      0xffffffffffffffffffffffffffffffffffffffff\n      and\n        /* \"learningExamples/ballotV1.sol\":593:603  msg.sender */\n      caller\n        /* \"learningExamples/ballotV1.sol\":593:618  msg.sender != chairperson */\n      0xffffffffffffffffffffffffffffffffffffffff\n      and\n      eq\n      iszero\n        /* \"learningExamples/ballotV1.sol\":593:643  msg.sender != chairperson || voters[toVoter].voted */\n      dup1\n      tag_7\n      jumpi\n      pop\n        /* \"learningExamples/ballotV1.sol\":622:628  voters */\n      0x1\n        /* \"learningExamples/ballotV1.sol\":622:637  voters[toVoter] */\n      0x0\n        /* \"learningExamples/ballotV1.sol\":629:636  toVoter */\n      dup3\n        /* \"learningExamples/ballotV1.sol\":622:637  voters[toVoter] */\n      0xffffffffffffffffffffffffffffffffffffffff\n      and\n      0xffffffffffffffffffffffffffffffffffffffff\n      and\n      dup2\n      mstore\n      0x20\n      add\n      swap1\n      dup2\n      mstore\n      0x20\n      add\n      0x0\n      keccak256\n        /* \"learningExamples/ballotV1.sol\":622:643  voters[toVoter].voted */\n      0x1\n      add\n      0x0\n      swap1\n      sload\n      swap1\n      0x100\n      exp\n      swap1\n      div\n      0xff\n      and\n        /* \"learningExamples/ballotV1.sol\":593:643  msg.sender != chairperson || voters[toVoter].voted */\n    tag_7:\n        /* \"learningExamples/ballotV1.sol\":590:664  if(msg.sender != chairperson || voters[toVoter].voted)... */\n      iszero\n      tag_8\n      jumpi\n        /* \"learningExamples/ballotV1.sol\":657:664  return; */\n      jump(tag_6)\n        /* \"learningExamples/ballotV1.sol\":590:664  if(msg.sender != chairperson || voters[toVoter].voted)... */\n    tag_8:\n        /* \"learningExamples/ballotV1.sol\":698:699  1 */\n      0x1\n        /* \"learningExamples/ballotV1.sol\":673:679  voters */\n      dup1\n        /* \"learningExamples/ballotV1.sol\":673:688  voters[toVoter] */\n      0x0\n        /* \"learningExamples/ballotV1.sol\":680:687  toVoter */\n      dup4\n        /* \"learningExamples/ballotV1.sol\":673:688  voters[toVoter] */\n      0xffffffffffffffffffffffffffffffffffffffff\n      and\n      0xffffffffffffffffffffffffffffffffffffffff\n      and\n      dup2\n      mstore\n      0x20\n      add\n      swap1\n      dup2\n      mstore\n      0x20\n      add\n      0x0\n      keccak256\n        /* \"learningExamples/ballotV1.sol\":673:695  voters[toVoter].weight */\n      0x0\n      add\n        /* \"learningExamples/ballotV1.sol\":673:699  voters[toVoter].weight = 1 */\n      dup2\n      swap1\n      sstore\n      pop\n        /* \"learningExamples/ballotV1.sol\":733:738  false */\n      0x0\n        /* \"learningExamples/ballotV1.sol\":709:715  voters */\n      0x1\n        /* \"learningExamples/ballotV1.sol\":709:724  voters[toVoter] */\n      0x0\n        /* \"learningExamples/ballotV1.sol\":716:723  toVoter */\n      dup4\n        /* \"learningExamples/ballotV1.sol\":709:724  voters[toVoter] */\n      0xffffffffffffffffffffffffffffffffffffffff\n      and\n      0xffffffffffffffffffffffffffffffffffffffff\n      and\n      dup2\n      mstore\n      0x20\n      add\n      swap1\n      dup2\n      mstore\n      0x20\n      add\n      0x0\n      keccak256\n        /* \"learningExamples/ballotV1.sol\":709:730  voters[toVoter].voted */\n      0x1\n      add\n      0x0\n        /* \"learningExamples/ballotV1.sol\":709:738  voters[toVoter].voted = false */\n      0x100\n      exp\n      dup2\n      sload\n      dup2\n      0xff\n      mul\n      not\n      and\n      swap1\n      dup4\n      iszero\n      iszero\n      mul\n      or\n      swap1\n      sstore\n      pop\n        /* \"learningExamples/ballotV1.sol\":538:754  function register(address toVoter) public {... */\n    tag_6:\n      pop\n      jump\t// out\n\n    auxdata: 0xa165627a7a72305820ad07763a208fbaf407e1860134d790c2de55407a8e895544a3c4e91fe883709b0029\n}\n",
				"bytecode": {
					"linkReferences": {},
					"object": "608060405234801561001057600080fd5b5061020d806100206000396000f300608060405260043610610041576000357c0100000000000000000000000000000000000000000000000000000000900463ffffffff1680634420e48614610046575b600080fd5b34801561005257600080fd5b50610087600480360381019080803573ffffffffffffffffffffffffffffffffffffffff169060200190929190505050610089565b005b6000809054906101000a900473ffffffffffffffffffffffffffffffffffffffff1673ffffffffffffffffffffffffffffffffffffffff163373ffffffffffffffffffffffffffffffffffffffff161415806101315750600160008273ffffffffffffffffffffffffffffffffffffffff1673ffffffffffffffffffffffffffffffffffffffff16815260200190815260200160002060010160009054906101000a900460ff165b1561013b576101de565b60018060008373ffffffffffffffffffffffffffffffffffffffff1673ffffffffffffffffffffffffffffffffffffffff168152602001908152602001600020600001819055506000600160008373ffffffffffffffffffffffffffffffffffffffff1673ffffffffffffffffffffffffffffffffffffffff16815260200190815260200160002060010160006101000a81548160ff0219169083151502179055505b505600a165627a7a72305820ad07763a208fbaf407e1860134d790c2de55407a8e895544a3c4e91fe883709b0029",
					"opcodes": "PUSH1 0x80 PUSH1 0x40 MSTORE CALLVALUE DUP1 ISZERO PUSH2 0x10 JUMPI PUSH1 0x0 DUP1 REVERT JUMPDEST POP PUSH2 0x20D DUP1 PUSH2 0x20 PUSH1 0x0 CODECOPY PUSH1 0x0 RETURN STOP PUSH1 0x80 PUSH1 0x40 MSTORE PUSH1 0x4 CALLDATASIZE LT PUSH2 0x41 JUMPI PUSH1 0x0 CALLDATALOAD PUSH29 0x100000000000000000000000000000000000000000000000000000000 SWAP1 DIV PUSH4 0xFFFFFFFF AND DUP1 PUSH4 0x4420E486 EQ PUSH2 0x46 JUMPI JUMPDEST PUSH1 0x0 DUP1 REVERT JUMPDEST CALLVALUE DUP1 ISZERO PUSH2 0x52 JUMPI PUSH1 0x0 DUP1 REVERT JUMPDEST POP PUSH2 0x87 PUSH1 0x4 DUP1 CALLDATASIZE SUB DUP2 ADD SWAP1 DUP1 DUP1 CALLDATALOAD PUSH20 0xFFFFFFFFFFFFFFFFFFFFFFFFFFFFFFFFFFFFFFFF AND SWAP1 PUSH1 0x20 ADD SWAP1 SWAP3 SWAP2 SWAP1 POP POP POP PUSH2 0x89 JUMP JUMPDEST STOP JUMPDEST PUSH1 0x0 DUP1 SWAP1 SLOAD SWAP1 PUSH2 0x100 EXP SWAP1 DIV PUSH20 0xFFFFFFFFFFFFFFFFFFFFFFFFFFFFFFFFFFFFFFFF AND PUSH20 0xFFFFFFFFFFFFFFFFFFFFFFFFFFFFFFFFFFFFFFFF AND CALLER PUSH20 0xFFFFFFFFFFFFFFFFFFFFFFFFFFFFFFFFFFFFFFFF AND EQ ISZERO DUP1 PUSH2 0x131 JUMPI POP PUSH1 0x1 PUSH1 0x0 DUP3 PUSH20 0xFFFFFFFFFFFFFFFFFFFFFFFFFFFFFFFFFFFFFFFF AND PUSH20 0xFFFFFFFFFFFFFFFFFFFFFFFFFFFFFFFFFFFFFFFF AND DUP2 MSTORE PUSH1 0x20 ADD SWAP1 DUP2 MSTORE PUSH1 0x20 ADD PUSH1 0x0 KECCAK256 PUSH1 0x1 ADD PUSH1 0x0 SWAP1 SLOAD SWAP1 PUSH2 0x100 EXP SWAP1 DIV PUSH1 0xFF AND JUMPDEST ISZERO PUSH2 0x13B JUMPI PUSH2 0x1DE JUMP JUMPDEST PUSH1 0x1 DUP1 PUSH1 0x0 DUP4 PUSH20 0xFFFFFFFFFFFFFFFFFFFFFFFFFFFFFFFFFFFFFFFF AND PUSH20 0xFFFFFFFFFFFFFFFFFFFFFFFFFFFFFFFFFFFFFFFF AND DUP2 MSTORE PUSH1 0x20 ADD SWAP1 DUP2 MSTORE PUSH1 0x20 ADD PUSH1 0x0 KECCAK256 PUSH1 0x0 ADD DUP2 SWAP1 SSTORE POP PUSH1 0x0 PUSH1 0x1 PUSH1 0x0 DUP4 PUSH20 0xFFFFFFFFFFFFFFFFFFFFFFFFFFFFFFFFFFFFFFFF AND PUSH20 0xFFFFFFFFFFFFFFFFFFFFFFFFFFFFFFFFFFFFFFFF AND DUP2 MSTORE PUSH1 0x20 ADD SWAP1 DUP2 MSTORE PUSH1 0x20 ADD PUSH1 0x0 KECCAK256 PUSH1 0x1 ADD PUSH1 0x0 PUSH2 0x100 EXP DUP2 SLOAD DUP2 PUSH1 0xFF MUL NOT AND SWAP1 DUP4 ISZERO ISZERO MUL OR SWAP1 SSTORE POP JUMPDEST POP JUMP STOP LOG1 PUSH6 0x627A7A723058 KECCAK256 0xad SMOD PUSH23 0x3A208FBAF407E1860134D790C2DE55407A8E895544A3C4 0xe9 0x1f 0xe8 DUP4 PUSH17 0x9B00290000000000000000000000000000 "
				},
				"gasEstimates": {
					"creation": {
						"codeDepositCost": "105000",
						"executionCost": "153",
						"totalCost": "105153"
					},
					"external": {
						"register(address)": "41301"
					}
				},
				"methodIdentifiers": {
					"register(address)": "4420e486"
				}
			},
			"userdoc": {
				"methods": {}
			}
		}
	}
}